{
  "abi": [
    {
      "inputs": [
        {
          "internalType": "address",
          "name": "_serverSigner",
          "type": "address"
        }
      ],
      "stateMutability": "nonpayable",
      "type": "constructor"
    },
    {
      "inputs": [
        {
          "internalType": "address",
          "name": "target",
          "type": "address"
        }
      ],
      "name": "AddressEmptyCode",
      "type": "error"
    },
    {
      "inputs": [
        {
          "internalType": "address",
          "name": "account",
          "type": "address"
        }
      ],
      "name": "AddressInsufficientBalance",
      "type": "error"
    },
    {
      "inputs": [],
      "name": "FailedInnerCall",
      "type": "error"
    },
    {
      "inputs": [
        {
          "internalType": "address",
          "name": "token",
          "type": "address"
        }
      ],
      "name": "SafeERC20FailedOperation",
      "type": "error"
    },
    {
      "anonymous": false,
      "inputs": [
        {
          "indexed": true,
          "internalType": "bytes32",
          "name": "makerHash",
          "type": "bytes32"
        },
        {
          "indexed": true,
          "internalType": "bytes32",
          "name": "takerHash",
          "type": "bytes32"
        },
        {
          "indexed": false,
          "internalType": "address",
          "name": "maker",
          "type": "address"
        },
        {
          "indexed": false,
          "internalType": "address",
          "name": "taker",
          "type": "address"
        },
        {
          "indexed": false,
          "internalType": "uint256",
          "name": "inputChainId",
          "type": "uint256"
        },
        {
          "indexed": false,
          "internalType": "uint256",
          "name": "outputChainId",
          "type": "uint256"
        },
        {
          "indexed": false,
          "internalType": "address",
          "name": "inputZone",
          "type": "address"
        },
        {
          "indexed": false,
          "internalType": "address",
          "name": "outputZone",
          "type": "address"
        },
        {
          "indexed": false,
          "internalType": "address",
          "name": "inputToken",
          "type": "address"
        },
        {
          "indexed": false,
          "internalType": "address",
          "name": "outputToken",
          "type": "address"
        },
        {
          "indexed": false,
          "internalType": "uint256",
          "name": "inputAmount",
          "type": "uint256"
        },
        {
          "indexed": false,
          "internalType": "uint256",
          "name": "outputAmount",
          "type": "uint256"
        },
        {
          "indexed": false,
          "internalType": "bytes32",
          "name": "matchingHash",
          "type": "bytes32"
        }
      ],
      "name": "OrdersSettled",
      "type": "event"
    },
    {
      "inputs": [
        {
          "internalType": "address",
          "name": "_account",
          "type": "address"
        },
        {
          "internalType": "address",
          "name": "_token",
          "type": "address"
        }
      ],
      "name": "balanceOf",
      "outputs": [
        {
          "internalType": "uint256",
          "name": "balance",
          "type": "uint256"
        }
      ],
      "stateMutability": "view",
      "type": "function"
    },
    {
      "inputs": [
        {
          "internalType": "address",
          "name": "_account",
          "type": "address"
        },
        {
          "internalType": "address",
          "name": "_token",
          "type": "address"
        },
        {
          "internalType": "uint256",
          "name": "_amount",
          "type": "uint256"
        }
      ],
      "name": "deposit",
      "outputs": [],
      "stateMutability": "nonpayable",
      "type": "function"
    },
    {
      "inputs": [
        {
          "internalType": "address",
          "name": "recipient",
          "type": "address"
        },
        {
          "internalType": "address",
          "name": "token",
          "type": "address"
        },
        {
          "internalType": "uint256",
          "name": "amount",
          "type": "uint256"
        },
        {
          "internalType": "bytes",
          "name": "userData",
          "type": "bytes"
        },
        {
          "internalType": "bool",
          "name": "receiveToken",
          "type": "bool"
        }
      ],
      "name": "flashLoan",
      "outputs": [],
      "stateMutability": "nonpayable",
      "type": "function"
    },
    {
      "inputs": [],
      "name": "getCounter",
      "outputs": [
        {
          "internalType": "uint256",
          "name": "",
          "type": "uint256"
        }
      ],
      "stateMutability": "view",
      "type": "function"
    },
    {
      "inputs": [
        {
          "components": [
            {
              "components": [
                {
                  "internalType": "address",
                  "name": "offerer",
                  "type": "address"
                },
                {
                  "internalType": "address",
                  "name": "inputToken",
                  "type": "address"
                },
                {
                  "internalType": "uint256",
                  "name": "inputAmount",
                  "type": "uint256"
                },
                {
                  "internalType": "uint256",
                  "name": "inputChainId",
                  "type": "uint256"
                },
                {
                  "internalType": "address",
                  "name": "inputZone",
                  "type": "address"
                },
                {
                  "internalType": "address",
                  "name": "outputToken",
                  "type": "address"
                },
                {
                  "internalType": "uint256",
                  "name": "outputAmount",
                  "type": "uint256"
                },
                {
                  "internalType": "uint256",
                  "name": "outputChainId",
                  "type": "uint256"
                },
                {
                  "internalType": "address",
                  "name": "outputZone",
                  "type": "address"
                },
                {
                  "internalType": "uint256",
                  "name": "startTime",
                  "type": "uint256"
                },
                {
                  "internalType": "uint256",
                  "name": "endTime",
                  "type": "uint256"
                },
                {
                  "internalType": "uint256",
                  "name": "salt",
                  "type": "uint256"
                },
                {
                  "internalType": "uint256",
                  "name": "counter",
                  "type": "uint256"
                },
                {
                  "internalType": "bool",
                  "name": "toWithdraw",
                  "type": "bool"
                }
              ],
              "internalType": "struct IAoriV2.Order",
              "name": "makerOrder",
              "type": "tuple"
            },
            {
              "components": [
                {
                  "internalType": "address",
                  "name": "offerer",
                  "type": "address"
                },
                {
                  "internalType": "address",
                  "name": "inputToken",
                  "type": "address"
                },
                {
                  "internalType": "uint256",
                  "name": "inputAmount",
                  "type": "uint256"
                },
                {
                  "internalType": "uint256",
                  "name": "inputChainId",
                  "type": "uint256"
                },
                {
                  "internalType": "address",
                  "name": "inputZone",
                  "type": "address"
                },
                {
                  "internalType": "address",
                  "name": "outputToken",
                  "type": "address"
                },
                {
                  "internalType": "uint256",
                  "name": "outputAmount",
                  "type": "uint256"
                },
                {
                  "internalType": "uint256",
                  "name": "outputChainId",
                  "type": "uint256"
                },
                {
                  "internalType": "address",
                  "name": "outputZone",
                  "type": "address"
                },
                {
                  "internalType": "uint256",
                  "name": "startTime",
                  "type": "uint256"
                },
                {
                  "internalType": "uint256",
                  "name": "endTime",
                  "type": "uint256"
                },
                {
                  "internalType": "uint256",
                  "name": "salt",
                  "type": "uint256"
                },
                {
                  "internalType": "uint256",
                  "name": "counter",
                  "type": "uint256"
                },
                {
                  "internalType": "bool",
                  "name": "toWithdraw",
                  "type": "bool"
                }
              ],
              "internalType": "struct IAoriV2.Order",
              "name": "takerOrder",
              "type": "tuple"
            },
            {
              "internalType": "bytes",
              "name": "makerSignature",
              "type": "bytes"
            },
            {
              "internalType": "bytes",
              "name": "takerSignature",
              "type": "bytes"
            },
            {
              "internalType": "uint256",
              "name": "blockDeadline",
              "type": "uint256"
            },
            {
              "internalType": "uint256",
              "name": "seatNumber",
              "type": "uint256"
            },
            {
              "internalType": "address",
              "name": "seatHolder",
              "type": "address"
            },
            {
              "internalType": "uint256",
              "name": "seatPercentOfFees",
              "type": "uint256"
            }
          ],
          "internalType": "struct IAoriV2.MatchingDetails",
          "name": "matching",
          "type": "tuple"
        }
      ],
      "name": "getMatchingHash",
      "outputs": [
        {
          "internalType": "bytes32",
          "name": "matchingHash",
          "type": "bytes32"
        }
      ],
      "stateMutability": "view",
      "type": "function"
    },
    {
      "inputs": [
        {
          "components": [
            {
              "internalType": "address",
              "name": "offerer",
              "type": "address"
            },
            {
              "internalType": "address",
              "name": "inputToken",
              "type": "address"
            },
            {
              "internalType": "uint256",
              "name": "inputAmount",
              "type": "uint256"
            },
            {
              "internalType": "uint256",
              "name": "inputChainId",
              "type": "uint256"
            },
            {
              "internalType": "address",
              "name": "inputZone",
              "type": "address"
            },
            {
              "internalType": "address",
              "name": "outputToken",
              "type": "address"
            },
            {
              "internalType": "uint256",
              "name": "outputAmount",
              "type": "uint256"
            },
            {
              "internalType": "uint256",
              "name": "outputChainId",
              "type": "uint256"
            },
            {
              "internalType": "address",
              "name": "outputZone",
              "type": "address"
            },
            {
              "internalType": "uint256",
              "name": "startTime",
              "type": "uint256"
            },
            {
              "internalType": "uint256",
              "name": "endTime",
              "type": "uint256"
            },
            {
              "internalType": "uint256",
              "name": "salt",
              "type": "uint256"
            },
            {
              "internalType": "uint256",
              "name": "counter",
              "type": "uint256"
            },
            {
              "internalType": "bool",
              "name": "toWithdraw",
              "type": "bool"
            }
          ],
          "internalType": "struct IAoriV2.Order",
          "name": "order",
          "type": "tuple"
        }
      ],
      "name": "getOrderHash",
      "outputs": [
        {
          "internalType": "bytes32",
          "name": "orderHash",
          "type": "bytes32"
        }
      ],
      "stateMutability": "view",
      "type": "function"
    },
    {
      "inputs": [
        {
          "internalType": "bytes32",
          "name": "orderHash",
          "type": "bytes32"
        }
      ],
      "name": "hasOrderSettled",
      "outputs": [
        {
          "internalType": "bool",
          "name": "settled",
          "type": "bool"
        }
      ],
      "stateMutability": "view",
      "type": "function"
    },
    {
      "inputs": [],
      "name": "incrementCounter",
      "outputs": [],
      "stateMutability": "nonpayable",
      "type": "function"
    },
    {
      "inputs": [
        {
          "internalType": "uint8",
          "name": "_takerFeeBips",
          "type": "uint8"
        },
        {
          "internalType": "address",
          "name": "_takerFeeAddress",
          "type": "address"
        }
      ],
      "name": "setTakerFee",
      "outputs": [],
      "stateMutability": "nonpayable",
      "type": "function"
    },
    {
      "inputs": [
        {
          "components": [
            {
              "components": [
                {
                  "internalType": "address",
                  "name": "offerer",
                  "type": "address"
                },
                {
                  "internalType": "address",
                  "name": "inputToken",
                  "type": "address"
                },
                {
                  "internalType": "uint256",
                  "name": "inputAmount",
                  "type": "uint256"
                },
                {
                  "internalType": "uint256",
                  "name": "inputChainId",
                  "type": "uint256"
                },
                {
                  "internalType": "address",
                  "name": "inputZone",
                  "type": "address"
                },
                {
                  "internalType": "address",
                  "name": "outputToken",
                  "type": "address"
                },
                {
                  "internalType": "uint256",
                  "name": "outputAmount",
                  "type": "uint256"
                },
                {
                  "internalType": "uint256",
                  "name": "outputChainId",
                  "type": "uint256"
                },
                {
                  "internalType": "address",
                  "name": "outputZone",
                  "type": "address"
                },
                {
                  "internalType": "uint256",
                  "name": "startTime",
                  "type": "uint256"
                },
                {
                  "internalType": "uint256",
                  "name": "endTime",
                  "type": "uint256"
                },
                {
                  "internalType": "uint256",
                  "name": "salt",
                  "type": "uint256"
                },
                {
                  "internalType": "uint256",
                  "name": "counter",
                  "type": "uint256"
                },
                {
                  "internalType": "bool",
                  "name": "toWithdraw",
                  "type": "bool"
                }
              ],
              "internalType": "struct IAoriV2.Order",
              "name": "makerOrder",
              "type": "tuple"
            },
            {
              "components": [
                {
                  "internalType": "address",
                  "name": "offerer",
                  "type": "address"
                },
                {
                  "internalType": "address",
                  "name": "inputToken",
                  "type": "address"
                },
                {
                  "internalType": "uint256",
                  "name": "inputAmount",
                  "type": "uint256"
                },
                {
                  "internalType": "uint256",
                  "name": "inputChainId",
                  "type": "uint256"
                },
                {
                  "internalType": "address",
                  "name": "inputZone",
                  "type": "address"
                },
                {
                  "internalType": "address",
                  "name": "outputToken",
                  "type": "address"
                },
                {
                  "internalType": "uint256",
                  "name": "outputAmount",
                  "type": "uint256"
                },
                {
                  "internalType": "uint256",
                  "name": "outputChainId",
                  "type": "uint256"
                },
                {
                  "internalType": "address",
                  "name": "outputZone",
                  "type": "address"
                },
                {
                  "internalType": "uint256",
                  "name": "startTime",
                  "type": "uint256"
                },
                {
                  "internalType": "uint256",
                  "name": "endTime",
                  "type": "uint256"
                },
                {
                  "internalType": "uint256",
                  "name": "salt",
                  "type": "uint256"
                },
                {
                  "internalType": "uint256",
                  "name": "counter",
                  "type": "uint256"
                },
                {
                  "internalType": "bool",
                  "name": "toWithdraw",
                  "type": "bool"
                }
              ],
              "internalType": "struct IAoriV2.Order",
              "name": "takerOrder",
              "type": "tuple"
            },
            {
              "internalType": "bytes",
              "name": "makerSignature",
              "type": "bytes"
            },
            {
              "internalType": "bytes",
              "name": "takerSignature",
              "type": "bytes"
            },
            {
              "internalType": "uint256",
              "name": "blockDeadline",
              "type": "uint256"
            },
            {
              "internalType": "uint256",
              "name": "seatNumber",
              "type": "uint256"
            },
            {
              "internalType": "address",
              "name": "seatHolder",
              "type": "address"
            },
            {
              "internalType": "uint256",
              "name": "seatPercentOfFees",
              "type": "uint256"
            }
          ],
          "internalType": "struct IAoriV2.MatchingDetails",
          "name": "matching",
          "type": "tuple"
        },
        {
          "internalType": "bytes",
          "name": "serverSignature",
          "type": "bytes"
        },
        {
          "internalType": "bytes",
          "name": "hookData",
          "type": "bytes"
        },
        {
          "internalType": "bytes",
          "name": "options",
          "type": "bytes"
        }
      ],
      "name": "settleOrders",
      "outputs": [],
      "stateMutability": "payable",
      "type": "function"
    },
    {
      "inputs": [
        {
          "internalType": "bytes",
          "name": "signature",
          "type": "bytes"
        }
      ],
      "name": "signatureIntoComponents",
      "outputs": [
        {
          "internalType": "uint8",
          "name": "v",
          "type": "uint8"
        },
        {
          "internalType": "bytes32",
          "name": "r",
          "type": "bytes32"
        },
        {
          "internalType": "bytes32",
          "name": "s",
          "type": "bytes32"
        }
      ],
      "stateMutability": "pure",
      "type": "function"
    },
    {
      "inputs": [
        {
          "internalType": "address",
          "name": "_token",
          "type": "address"
        },
        {
          "internalType": "uint256",
          "name": "_amount",
          "type": "uint256"
        }
      ],
      "name": "withdraw",
      "outputs": [],
      "stateMutability": "nonpayable",
      "type": "function"
    }
  ],
  "bytecode": {
    "object": "0x60a0346200007757601f6200390238819003918201601f19168301916001600160401b038311848410176200007c578084926020946040528339810103126200007757516001600160a01b0381168103620000775760805260405161386f90816200009382396080518181816103c901526110510152f35b600080fd5b634e487b7160e01b600052604160045260246000fdfe60806040526004361015610013575b600080fd5b60003560e01c806354fd4d50146101175780635b34b9661461010e57806360e40739146101055780637735767b146100fc5780637a54ff25146100f35780638340f549146100ea5780638ada066e146100e1578063b4ec369f146100d8578063bbae0a88146100cf578063f3fef3a3146100c6578063f7888aec146100bd578063ff5a57be146100b45763ff628b46146100ac57600080fd5b61000e611b51565b5061000e611a7a565b5061000e6118eb565b5061000e611838565b5061000e6108a2565b5061000e610804565b5061000e61066a565b5061000e6105aa565b5061000e610549565b5061000e610365565b5061000e610296565b5061000e610229565b5061000e610189565b600091031261000e57565b919082519283825260005b8481106101755750507fffffffffffffffffffffffffffffffffffffffffffffffffffffffffffffffe0601f8460006020809697860101520116010190565b602081830181015184830182015201610136565b503461000e5760007ffffffffffffffffffffffffffffffffffffffffffffffffffffffffffffffffc36011261000e576102186040516040810181811067ffffffffffffffff82111761021c575b604052601481527f414c5048412d302e312d444f2d4e4f542d555345000000000000000000000000602082015260405191829160208352602083019061012b565b0390f35b6102246106b3565b6101d7565b503461000e576000807ffffffffffffffffffffffffffffffffffffffffffffffffffffffffffffffffc3601126102845733815260026020526040812080549060018201809211610278575580f35b610280612af9565b5580f35b80fd5b908161044091031261000e5790565b503461000e5760207ffffffffffffffffffffffffffffffffffffffffffffffffffffffffffffffffc36011261000e5760043567ffffffffffffffff811161000e576102f06102eb6020923690600401610287565b6132f3565b604051908152f35b73ffffffffffffffffffffffffffffffffffffffff81160361000e57565b60043590610323826102f8565b565b60243590610323826102f8565b60843590610323826102f8565b60a43590610323826102f8565b6101043590610323826102f8565b3590610323826102f8565b503461000e5760407ffffffffffffffffffffffffffffffffffffffffffffffffffffffffffffffffc36011261000e5760043560ff811680820361000e57602435916103b0836102f8565b73ffffffffffffffffffffffffffffffffffffffff91827f00000000000000000000000000000000000000000000000000000000000000001633036104c5576103fc6064821115612f56565b61041161040b60035460ff1690565b60ff1690565b0361048d575b5060035460081c73ffffffffffffffffffffffffffffffffffffffff1682821691160361044057005b61048b907fffffffffffffffffffffff0000000000000000000000000000000000000000ff74ffffffffffffffffffffffffffffffffffffffff006003549260081b16911617600355565b005b6104bf9060ff167fffffffffffffffffffffffffffffffffffffffffffffffffffffffffffffff006003541617600355565b38610417565b60846040517f08c379a000000000000000000000000000000000000000000000000000000000815260206004820152602760248201527f54616b6572206665652061646472657373206d7573742062652073657276657260448201527f207369676e6572000000000000000000000000000000000000000000000000006064820152fd5b503461000e5760207ffffffffffffffffffffffffffffffffffffffffffffffffffffffffffffffffc36011261000e5760206105a060043560ff6001918060081c6000526000602052161b60406000205416151590565b6040519015158152f35b503461000e5760607ffffffffffffffffffffffffffffffffffffffffffffffffffffffffffffffffc36011261000e576004356105e6816102f8565b6106506024356105f5816102f8565b6044359273ffffffffffffffffffffffffffffffffffffffff9061061d853033858716613423565b16600052600160205260406000209073ffffffffffffffffffffffffffffffffffffffff16600052602052604060002090565b805491820180921161065f5755005b610667612af9565b55005b503461000e5760007ffffffffffffffffffffffffffffffffffffffffffffffffffffffffffffffffc36011261000e573360005260026020526020604060002054604051908152f35b507f4e487b7100000000000000000000000000000000000000000000000000000000600052604160045260246000fd5b67ffffffffffffffff81116106f757604052565b6106ff6106b3565b604052565b90601f7fffffffffffffffffffffffffffffffffffffffffffffffffffffffffffffffe0910116810190811067ffffffffffffffff8211176106f757604052565b604051906101c0820182811067ffffffffffffffff8211176106f757604052565b7fffffffffffffffffffffffffffffffffffffffffffffffffffffffffffffffe0601f60209267ffffffffffffffff81116107a2575b01160190565b6107aa6106b3565b61079c565b9291926107bb82610766565b916107c96040519384610704565b82948184528183011161000e578281602093846000960137010152565b9080601f8301121561000e57816020610801933591016107af565b90565b503461000e5760207ffffffffffffffffffffffffffffffffffffffffffffffffffffffffffffffffc36011261000e5760043567ffffffffffffffff811161000e5761085e61085960609236906004016107e6565b613063565b9060ff6040519316835260208301526040820152f35b9181601f8401121561000e5782359167ffffffffffffffff831161000e576020838186019501011161000e57565b5060807ffffffffffffffffffffffffffffffffffffffffffffffffffffffffffffffffc36011261000e5767ffffffffffffffff60043581811161000e576108ee903690600401610287565b60243582811161000e57610906903690600401610874565b92909160443582811161000e57610921903690600401610874565b9260643590811161000e5761093a903690600401610874565b505042610120830135111561094e90611d3d565b61095f426102e08401351115611dc8565b610970426101408401351015611e53565b610981426103008401351015611ede565b61098a82611f69565b6109b49073ffffffffffffffffffffffffffffffffffffffff166000526002602052604060002090565b5461018083013510156109c690611f73565b6109d36101c08301611f69565b6109fd9073ffffffffffffffffffffffffffffffffffffffff166000526002602052604060002090565b546103408301351015610a0f90611ffe565b6060820135610a246102a08401358214612089565b610220830135610a3960e0850135821461213a565b6080840190610a4782611f69565b610a546102c08701611f69565b73ffffffffffffffffffffffffffffffffffffffff16610a8a9173ffffffffffffffffffffffffffffffffffffffff16146121eb565b610240850192610a9984611f69565b610aa66101008801611f69565b73ffffffffffffffffffffffffffffffffffffffff16610adc9173ffffffffffffffffffffffffffffffffffffffff161461229c565b4614610ae79061234d565b4614610af2906123d8565b610afb90611f69565b610b1c9073ffffffffffffffffffffffffffffffffffffffff163014612463565b3090610b2790611f69565b73ffffffffffffffffffffffffffffffffffffffff1614610b47906124ee565b610b5136836119ac565b610b5a906131d6565b93610b69366101c085016119ac565b610b72906131d6565b95610b81610380850185612579565b3690610b8c926107af565b610b9590613063565b9190610ba087611f69565b92604051602081019080610bde8d84603c917f19457468657265756d205369676e6564204d6573736167653a0a3332000000008252601c8201520190565b037fffffffffffffffffffffffffffffffffffffffffffffffffffffffffffffffe081018252610c0e9082610704565b519020916040519384926020840192610c5c9391926041937fff00000000000000000000000000000000000000000000000000000000000000928452602084015260f81b1660408201520190565b037fffffffffffffffffffffffffffffffffffffffffffffffffffffffffffffffe081018352610c8c9083610704565b610c9592613603565b610c9e906125ca565b610cac6103a0850185612579565b3690610cb7926107af565b610cc090613063565b9190610ccf6101c08801611f69565b928a604051806020810192610d0e9084603c917f19457468657265756d205369676e6564204d6573736167653a0a3332000000008252601c8201520190565b037fffffffffffffffffffffffffffffffffffffffffffffffffffffffffffffffe081018252610d3e9082610704565b519020916040519384926020840192610d8c9391926041937fff00000000000000000000000000000000000000000000000000000000000000928452602084015260f81b1660408201520190565b037fffffffffffffffffffffffffffffffffffffffffffffffffffffffffffffffe081018352610dbc9083610704565b610dc592613603565b610dce90612655565b610dda60208501611f69565b610de76102608601611f69565b73ffffffffffffffffffffffffffffffffffffffff16610e1d9173ffffffffffffffffffffffffffffffffffffffff16146126e0565b610e2960a08501611f69565b610e366101e08601611f69565b73ffffffffffffffffffffffffffffffffffffffff16610e6c9173ffffffffffffffffffffffffffffffffffffffff161461276b565b610e81604085013561028086013511156127f6565b60035460ff16610e9090612fe1565b610ea39061ffff16610200860135612b63565b612710900460c08501351115610eb890612881565b610edb8660ff6001918060081c6000526000602052161b60406000205416151590565b15610ee59061290c565b610f088760ff6001918060081c6000526000602052161b60406000205416151590565b15610f1290612971565b610f23436103c086013510156129d6565b3690610f2e926107af565b610f3790613063565b610f43859392936132f3565b604051806020810192610f809084603c917f19457468657265756d205369676e6564204d6573736167653a0a3332000000008252601c8201520190565b037fffffffffffffffffffffffffffffffffffffffffffffffffffffffffffffffe081018252610fb09082610704565b51902090604051938493610fde93859094939260ff6060936080840197845216602083015260408201520152565b6000805203905a916000916001602094fa15927fa5a837067ce734cabc890658dec20ccade22969a223f38ba11a74f3db36a4c129361182b575b61107761103a60005173ffffffffffffffffffffffffffffffffffffffff1690565b73ffffffffffffffffffffffffffffffffffffffff7f00000000000000000000000000000000000000000000000000000000000000001614612a6e565b61109a858060081c6000526000602052600160ff604060002092161b8154179055565b6110bd868060081c6000526000602052600160ff604060002092161b8154179055565b6110f36110cd6101c08501611f69565b73ffffffffffffffffffffffffffffffffffffffff166000526001602052604060002090565b61112e6102008501359161110a6101e08701611f69565b73ffffffffffffffffffffffffffffffffffffffff16600052602052604060002090565b54106117fd576111546111476110cd6101c08601611f69565b61110a6101e08601611f69565b6111646102008501358254612b3f565b90555b61117b6111776101a08501612b4c565b1590565b156117d75761119b61118f6110cd85611f69565b61110a60a08601611f69565b6111aa60c08501358254612b56565b90555b60035460ff8116806116f5575b50506111c583611f69565b3b151580611642575b6115a8575b6111df6110cd84611f69565b6111f460408501359161110a60208701611f69565b541061157a576112156112096110cd85611f69565b61110a60208601611f69565b61122460408501358254612b3f565b90555b6112376111776103608501612b4c565b156115485761125c61124f6110cd6101c08601611f69565b61110a6102608601611f69565b61126c6102808501358254612b56565b90555b61127883611f69565b3b151580611495575b6113cd575b5050604081013561028082013511611383575b6112a7610200820135612ff5565b60c082013511611329575b6112be60208201611f69565b906113246112ce60a08301611f69565b916112d8816132f3565b6040805173ffffffffffffffffffffffffffffffffffffffff9687168152959094166020860152838201359385019390935260c0013560608401526080830191909152819060a0820190565b0390a3005b61134461133a610200830135612ff5565b60c0830135612b3f565b61137c61137461118f3273ffffffffffffffffffffffffffffffffffffffff166000526001602052604060002090565b918254612b56565b90556112b2565b6113966040820135610280830135612b3f565b6113c661137461124f3273ffffffffffffffffffffffffffffffffffffffff166000526001602052604060002090565b9055611299565b602061143891611452936113ff6113e66113e688611f69565b73ffffffffffffffffffffffffffffffffffffffff1690565b9060006040518096819582947fa9cfc2400000000000000000000000000000000000000000000000000000000084528b60048501612d60565b03925af1908115611488575b600091611459575b50612eb0565b3880611286565b61147b915060203d602011611481575b6114738183610704565b810190612b76565b3861144c565b503d611469565b611490612a61565b611444565b506114a56113e66113e685611f69565b602060405180927f01ffc9a7000000000000000000000000000000000000000000000000000000008252818061150260048201907fa9cfc24000000000000000000000000000000000000000000000000000000000602083019252565b03915afa90811561153b575b60009161151c575b50611281565b611535915060203d602011611481576114738183610704565b38611516565b611543612a61565b61150e565b61157561155b6113e66102608601611f69565b6102808501359061156f6101c08701611f69565b906133a4565b61126f565b6115a361158c6113e660208601611f69565b604085013590309061159d87611f69565b90613423565b611227565b6116116115ba6113e66113e686611f69565b602060405180927f7ad28a59000000000000000000000000000000000000000000000000000000008252816000816115f7898b8d60048501612d60565b03925af1908115611635575b600091611616575b50612e4b565b6111d3565b61162f915060203d602011611481576114738183610704565b3861160b565b61163d612a61565b611603565b506116526113e66113e685611f69565b602060405180927f01ffc9a700000000000000000000000000000000000000000000000000000000825281806116af60048201907f7ad28a5900000000000000000000000000000000000000000000000000000000602083019252565b03915afa9081156116e8575b6000916116c9575b506111ce565b6116e2915060203d602011611481576114738183610704565b386116c3565b6116f0612a61565b6116bb565b61170490610200860135612b63565b9061177e61137461177173ffffffffffffffffffffffffffffffffffffffff61174661173f6104208b01359761173989612b29565b90612b63565b6064900490565b9460081c1673ffffffffffffffffffffffffffffffffffffffff166000526001602052604060002090565b61110a6101e08901611f69565b90558061178c575b806111ba565b61173f6117ac916117a760ff60035416610200880135612b63565b612b63565b6117cf6113746117c26110cd6104008801611f69565b61110a6101e08801611f69565b905538611786565b6117f86117e96113e660a08601611f69565b60c08501359061156f86611f69565b6111ad565b6118266118106113e66101e08601611f69565b61020085013590309061159d6101c08801611f69565b611167565b611833612a61565b611018565b503461000e5760407ffffffffffffffffffffffffffffffffffffffffffffffffffffffffffffffffc36011261000e5761048b600435611877816102f8565b602435903360005260016020526118b28160406000209073ffffffffffffffffffffffffffffffffffffffff16600052602052604060002090565b8054908382039182116118de575b5573ffffffffffffffffffffffffffffffffffffffff3391166133a4565b6118e6612af9565b6118c0565b503461000e5760407ffffffffffffffffffffffffffffffffffffffffffffffffffffffffffffffffc36011261000e57602061198060043561192c816102f8565b73ffffffffffffffffffffffffffffffffffffffff6024359161194e836102f8565b166000526001835260406000209073ffffffffffffffffffffffffffffffffffffffff16600052602052604060002090565b54604051908152f35b8015150361000e57565b6101a4359061032382611989565b359061032382611989565b9190826101c091031261000e576119c1610745565b916119cb8161035a565b83526119d96020820161035a565b602084015260408101356040840152606081013560608401526119fe6080820161035a565b6080840152611a0f60a0820161035a565b60a084015260c081013560c084015260e081013560e0840152610100611a3681830161035a565b908401526101208082013590840152610140808201359084015261016080820135908401526101808082013590840152611a746101a08092016119a1565b90830152565b503461000e576101c07ffffffffffffffffffffffffffffffffffffffffffffffffffffffffffffffffc36011261000e5760206102f0611ab8610745565b611ac0610316565b8152611aca610325565b8382015260443560408201526064356060820152611ae6610332565b6080820152611af361033f565b60a082015260c43560c082015260e43560e0820152611b1061034c565b61010082015261012435610120820152610144356101408201526101643561016082015261018435610180820152611b46611993565b6101a08201526131d6565b503461000e5760a07ffffffffffffffffffffffffffffffffffffffffffffffffffffffffffffffffc36011261000e57600435611b8d816102f8565b602435611b99816102f8565b6044359060643567ffffffffffffffff811161000e57611bbd9036906004016107e6565b608435611bc981611989565b8015611cfd57611bf0848673ffffffffffffffffffffffffffffffffffffffff86166133a4565b73ffffffffffffffffffffffffffffffffffffffff91828616803b1561000e5782600091611c5093836040518096819582947fe84afff60000000000000000000000000000000000000000000000000000000084528d8d60048601612f15565b03925af18015611cf0575b611cd7575b5015611c73579261048b93309216613423565b50611ccb90611ca6611cd3939473ffffffffffffffffffffffffffffffffffffffff166000526001602052604060002090565b9073ffffffffffffffffffffffffffffffffffffffff16600052602052604060002090565b918254612b3f565b9055005b80611ce4611cea926106e3565b80610120565b38611c60565b611cf8612a61565b611c5b565b611d2b83611ca68773ffffffffffffffffffffffffffffffffffffffff166000526001602052604060002090565b611d36858254612b56565b9055611bf0565b15611d4457565b60846040517f08c379a000000000000000000000000000000000000000000000000000000000815260206004820152602760248201527f4d616b6572206f726465722073746172742074696d6520697320696e2074686560448201527f20667574757265000000000000000000000000000000000000000000000000006064820152fd5b15611dcf57565b60846040517f08c379a000000000000000000000000000000000000000000000000000000000815260206004820152602760248201527f54616b6572206f726465722073746172742074696d6520697320696e2074686560448201527f20667574757265000000000000000000000000000000000000000000000000006064820152fd5b15611e5a57565b60846040517f08c379a000000000000000000000000000000000000000000000000000000000815260206004820152602760248201527f4d616b6572206f7264657220656e642074696d652068617320616c726561647960448201527f20706173736564000000000000000000000000000000000000000000000000006064820152fd5b15611ee557565b60846040517f08c379a000000000000000000000000000000000000000000000000000000000815260206004820152602760248201527f54616b6572206f7264657220656e642074696d652068617320616c726561647960448201527f20706173736564000000000000000000000000000000000000000000000000006064820152fd5b35610801816102f8565b15611f7a57565b60846040517f08c379a000000000000000000000000000000000000000000000000000000000815260206004820152602160248201527f436f756e746572206f66206d616b6572206f7264657220697320746f6f206c6f60448201527f77000000000000000000000000000000000000000000000000000000000000006064820152fd5b1561200557565b60846040517f08c379a000000000000000000000000000000000000000000000000000000000815260206004820152602160248201527f436f756e746572206f662074616b6572206f7264657220697320746f6f206c6f60448201527f77000000000000000000000000000000000000000000000000000000000000006064820152fd5b1561209057565b60a46040517f08c379a000000000000000000000000000000000000000000000000000000000815260206004820152604760248201527f4d616b6572206f72646572277320696e70757420636861696e696420646f657360448201527f206e6f74206d617463682074616b6572206f726465722773206f75747075742060648201527f636861696e6964000000000000000000000000000000000000000000000000006084820152fd5b1561214157565b60a46040517f08c379a000000000000000000000000000000000000000000000000000000000815260206004820152604760248201527f54616b6572206f72646572277320696e70757420636861696e696420646f657360448201527f206e6f74206d61746368206d616b6572206f726465722773206f75747075742060648201527f636861696e6964000000000000000000000000000000000000000000000000006084820152fd5b156121f257565b60a46040517f08c379a000000000000000000000000000000000000000000000000000000000815260206004820152604160248201527f4d616b6572206f72646572277320696e707574207a6f6e6520646f6573206e6f60448201527f74206d617463682074616b6572206f726465722773206f7574707574207a6f6e60648201527f65000000000000000000000000000000000000000000000000000000000000006084820152fd5b156122a357565b60a46040517f08c379a000000000000000000000000000000000000000000000000000000000815260206004820152604160248201527f54616b6572206f72646572277320696e707574207a6f6e6520646f6573206e6f60448201527f74206d61746368206d616b6572206f726465722773206f7574707574207a6f6e60648201527f65000000000000000000000000000000000000000000000000000000000000006084820152fd5b1561235457565b60846040517f08c379a000000000000000000000000000000000000000000000000000000000815260206004820152603a60248201527f4d616b6572206f72646572277320696e70757420636861696e696420646f657360448201527f206e6f74206d617463682063757272656e7420636861696e69640000000000006064820152fd5b156123df57565b60846040517f08c379a000000000000000000000000000000000000000000000000000000000815260206004820152603a60248201527f54616b6572206f72646572277320696e70757420636861696e696420646f657360448201527f206e6f74206d617463682063757272656e7420636861696e69640000000000006064820152fd5b1561246a57565b60846040517f08c379a000000000000000000000000000000000000000000000000000000000815260206004820152603560248201527f4d616b6572206f72646572277320696e707574207a6f6e6520646f6573206e6f60448201527f74206d61746368207468697320636f6e747261637400000000000000000000006064820152fd5b156124f557565b60846040517f08c379a000000000000000000000000000000000000000000000000000000000815260206004820152603560248201527f54616b6572206f72646572277320696e707574207a6f6e6520646f6573206e6f60448201527f74206d61746368207468697320636f6e747261637400000000000000000000006064820152fd5b9035907fffffffffffffffffffffffffffffffffffffffffffffffffffffffffffffffe18136030182121561000e570180359067ffffffffffffffff821161000e5760200191813603831361000e57565b156125d157565b60846040517f08c379a000000000000000000000000000000000000000000000000000000000815260206004820152603460248201527f4d616b6572207369676e617475726520646f6573206e6f7420636f727265737060448201527f6f6e6420746f206f726465722064657461696c730000000000000000000000006064820152fd5b1561265c57565b60846040517f08c379a000000000000000000000000000000000000000000000000000000000815260206004820152603460248201527f54616b6572207369676e617475726520646f6573206e6f7420636f727265737060448201527f6f6e6420746f206f726465722064657461696c730000000000000000000000006064820152fd5b156126e757565b60846040517f08c379a000000000000000000000000000000000000000000000000000000000815260206004820152604060248201527f4d616b6572206f7264657220696e70757420746f6b656e206973206e6f74206560448201527f7175616c20746f2074616b6572206f72646572206f757470757420746f6b656e6064820152fd5b1561277257565b60846040517f08c379a000000000000000000000000000000000000000000000000000000000815260206004820152604060248201527f4d616b6572206f72646572206f757470757420746f6b656e206973206e6f742060448201527f657175616c20746f2074616b6572206f7264657220696e70757420746f6b656e6064820152fd5b156127fd57565b60846040517f08c379a000000000000000000000000000000000000000000000000000000000815260206004820152603f60248201527f54616b6572206f72646572206f757470757420616d6f756e74206973206d6f7260448201527f65207468616e206d616b6572206f7264657220696e70757420616d6f756e74006064820152fd5b1561288857565b60846040517f08c379a000000000000000000000000000000000000000000000000000000000815260206004820152603f60248201527f4d616b6572206f72646572206f757470757420616d6f756e74206973206d6f7260448201527f65207468616e2074616b6572206f7264657220696e70757420616d6f756e74006064820152fd5b1561291357565b60646040517f08c379a000000000000000000000000000000000000000000000000000000000815260206004820152601c60248201527f4d616b6572206f7264657220686173206265656e20736574746c6564000000006044820152fd5b1561297857565b60646040517f08c379a000000000000000000000000000000000000000000000000000000000815260206004820152601c60248201527f54616b6572206f7264657220686173206265656e20736574746c6564000000006044820152fd5b156129dd57565b60846040517f08c379a000000000000000000000000000000000000000000000000000000000815260206004820152602360248201527f4f7264657220657865637574696f6e20646561646c696e65206861732070617360448201527f73656400000000000000000000000000000000000000000000000000000000006064820152fd5b506040513d6000823e3d90fd5b15612a7557565b60846040517f08c379a000000000000000000000000000000000000000000000000000000000815260206004820152603560248201527f536572766572207369676e617475726520646f6573206e6f7420636f7272657360448201527f706f6e6420746f206f726465722064657461696c7300000000000000000000006064820152fd5b507f4e487b7100000000000000000000000000000000000000000000000000000000600052601160045260246000fd5b6064039060648211612b3757565b610323612af9565b91908203918211612b3757565b3561080181611989565b91908201809211612b3757565b81810292918115918404141715612b3757565b9081602091031261000e575161080181611989565b9061032391612bb782612b9d8361035a565b73ffffffffffffffffffffffffffffffffffffffff169052565b612be3612bc66020830161035a565b73ffffffffffffffffffffffffffffffffffffffff166020840152565b6040810135604083015260608101356060830152612c23612c066080830161035a565b73ffffffffffffffffffffffffffffffffffffffff166080840152565b612c4f612c3260a0830161035a565b73ffffffffffffffffffffffffffffffffffffffff1660a0840152565b60c081013560c083015260e081013560e0830152612c90610100612c7481840161035a565b73ffffffffffffffffffffffffffffffffffffffff1690840152565b6101208082013590830152610140808201359083015261016080820135908301526101808082013590830152612cca6101a08092016119a1565b1515910152565b90357fffffffffffffffffffffffffffffffffffffffffffffffffffffffffffffffe18236030181121561000e57016020813591019167ffffffffffffffff821161000e57813603831361000e57565b601f82602094937fffffffffffffffffffffffffffffffffffffffffffffffffffffffffffffffe0938186528686013760008582860101520116010190565b9161080193919260408152612d786040820185612b8b565b612d8a61020082016101c08601612b8b565b612d98610380850185612cd1565b94612db4610440926103c0978489870152610480860191612d21565b9173ffffffffffffffffffffffffffffffffffffffff612e0e612ddb6103a0850185612cd1565b6103e096917fffffffffffffffffffffffffffffffffffffffffffffffffffffffffffffffc089840301888a0152612d21565b9761040090840135818701526104209484013585870152830135612e31816102f8565b169084015201356104608201526020818503910152612d21565b15612e5257565b60646040517f08c379a000000000000000000000000000000000000000000000000000000000815260206004820152601b60248201527f4265666f7265416f7269547261646520686f6f6b206661696c656400000000006044820152fd5b15612eb757565b60646040517f08c379a000000000000000000000000000000000000000000000000000000000815260206004820152601a60248201527f4166746572416f7269547261646520686f6f6b206661696c65640000000000006044820152fd5b9260609273ffffffffffffffffffffffffffffffffffffffff612f4e93979697168552602085015260806040850152608084019061012b565b931515910152565b15612f5d57565b60846040517f08c379a000000000000000000000000000000000000000000000000000000000815260206004820152602360248201527f54616b6572206665652062697073206d757374206265206c657373207468616e60448201527f20312500000000000000000000000000000000000000000000000000000000006064820152fd5b9061ffff80921661271001918211612b3757565b61271090818102918183041490151715613056575b61ffff61301b60ff60035416612fe1565b16908115613027570490565b7f4e487b7100000000000000000000000000000000000000000000000000000000600052601260045260246000fd5b61305e612af9565b61300a565b6020810151906060604082015191015160001a92601b841061308157565b92601b0160ff81116130905792565b613098612af9565b92565b9c9996926131d29c99956101659f9c99958f60689161314c94613116613178987fffffffffffffffffffffffffffffffffffffffff0000000000000000000000006131ae9e9960601b16855260148501907fffffffffffffffffffffffffffffffffffffffff0000000000000000000000009060601b169052565b6028830152604882015201907fffffffffffffffffffffffffffffffffffffffff0000000000000000000000009060601b169052565b60601b7fffffffffffffffffffffffffffffffffffffffff00000000000000000000000016607c8d0152565b60908b015260b08a015260601b7fffffffffffffffffffffffffffffffffffffffff0000000000000000000000001660d0890152565b60e4870152610104860152610124850152610144840152151560f81b610164830152565b0190565b805173ffffffffffffffffffffffffffffffffffffffff16602082015173ffffffffffffffffffffffffffffffffffffffff169060408301519260608101519060808101516132389073ffffffffffffffffffffffffffffffffffffffff1690565b60a082015173ffffffffffffffffffffffffffffffffffffffff1660c083015160e084015161010085015173ffffffffffffffffffffffffffffffffffffffff1690610120860151926101408701519461016088015196610180890151986101a001516132a490151590565b996040519d8e9d60208f019d6132b99e61309b565b037fffffffffffffffffffffffffffffffffffffffffffffffffffffffffffffffe0810182526132e99082610704565b8051906020012090565b61042061339e6094613309610380850185612579565b90946133196103a0820182612579565b9590917fffffffffffffffffffffffffffffffffffffffff000000000000000000000000876104008301359461334e866102f8565b60405199878b9860208a019d8e3788019160208301600081523701936103c083013560208601526103e0830135604086015260601b16606084015201356074820152036074810184520182610704565b51902090565b6103239273ffffffffffffffffffffffffffffffffffffffff604051937fa9059cbb0000000000000000000000000000000000000000000000000000000060208601521660248401526044830152604482526080820182811067ffffffffffffffff821117613416575b60405261349a565b61341e6106b3565b61340e565b909261032393604051937f23b872dd00000000000000000000000000000000000000000000000000000000602086015273ffffffffffffffffffffffffffffffffffffffff809216602486015216604484015260648301526064825260a0820182811067ffffffffffffffff821117613416576040525b60008073ffffffffffffffffffffffffffffffffffffffff6134d193169360208151910182865af16134ca613533565b9083613563565b8051908115159182613518575b50506134e75750565b602490604051907f5274afe70000000000000000000000000000000000000000000000000000000082526004820152fd5b61352b9250602080918301019101612b76565b1538806134de565b3d1561355e573d9061354482610766565b916135526040519384610704565b82523d6000602084013e565b606090565b906135a2575080511561357857805190602001fd5b60046040517f1425ea42000000000000000000000000000000000000000000000000000000008152fd5b815115806135fa575b6135b3575090565b60249073ffffffffffffffffffffffffffffffffffffffff604051917f9996b315000000000000000000000000000000000000000000000000000000008352166004820152fd5b50803b156135ab565b61360d838361374d565b50600481959295101561371e571593846136fb575b508315613630575b50505090565b60009293509082916040516136ae8161368260208201947f1626ba7e00000000000000000000000000000000000000000000000000000000998a8752602484015260406044840152606483019061012b565b037fffffffffffffffffffffffffffffffffffffffffffffffffffffffffffffffe08101835282610704565b51915afa906136bb613533565b826136ed575b826136d1575b505038808061362a565b90915060208180518101031261000e57602001511438806136c7565b9150602082511015916136c1565b73ffffffffffffffffffffffffffffffffffffffff838116911614935038613622565b7f4e487b7100000000000000000000000000000000000000000000000000000000600052602160045260246000fd5b815191906041830361377e5761377792506020820151906060604084015193015160001a90613789565b9192909190565b505060009160029190565b9291907f7fffffffffffffffffffffffffffffff5d576e7357a4501ddfe92f46681b20a0831161382d57916137df9160209360405195869094939260ff6060936080840197845216602083015260408201520152565b826000938492838052039060015afa15613820575b805173ffffffffffffffffffffffffffffffffffffffff81161561381757918190565b50809160019190565b613828612a61565b6137f4565b5060009360039350905056fea2646970667358221220413593004f7ab433dc34e53bae9659e9f88a237a3660b4e8a7b703a0e794f31864736f6c63430008110033",
    "linkReferences": {}
  },
  "methodIdentifiers": {
    "balanceOf(address,address)": "f7888aec",
    "deposit(address,address,uint256)": "8340f549",
    "flashLoan(address,address,uint256,bytes,bool)": "ff628b46",
    "getCounter()": "8ada066e",
    "getMatchingHash(((address,address,uint256,uint256,address,address,uint256,uint256,address,uint256,uint256,uint256,uint256,bool),(address,address,uint256,uint256,address,address,uint256,uint256,address,uint256,uint256,uint256,uint256,bool),bytes,bytes,uint256,uint256,address,uint256))": "60e40739",
    "getOrderHash((address,address,uint256,uint256,address,address,uint256,uint256,address,uint256,uint256,uint256,uint256,bool))": "ff5a57be",
    "hasOrderSettled(bytes32)": "7a54ff25",
    "incrementCounter()": "5b34b966",
    "setTakerFee(uint8,address)": "7735767b",
    "settleOrders(((address,address,uint256,uint256,address,address,uint256,uint256,address,uint256,uint256,uint256,uint256,bool),(address,address,uint256,uint256,address,address,uint256,uint256,address,uint256,uint256,uint256,uint256,bool),bytes,bytes,uint256,uint256,address,uint256),bytes,bytes,bytes)": "bbae0a88",
    "signatureIntoComponents(bytes)": "b4ec369f",
    "version()": "54fd4d50",
    "withdraw(address,uint256)": "f3fef3a3"
  },
  "id": 21
}