{
  "abi": [
    {
      "inputs": [
        {
          "internalType": "address",
          "name": "_owner",
          "type": "address"
        },
        {
          "internalType": "address",
          "name": "_aoriProtocol",
          "type": "address"
        }
      ],
      "stateMutability": "nonpayable",
      "type": "constructor"
    },
    {
      "anonymous": false,
      "inputs": [
        {
          "indexed": false,
          "internalType": "address",
          "name": "to",
          "type": "address"
        },
        {
          "indexed": false,
          "internalType": "uint256",
          "name": "value",
          "type": "uint256"
        },
        {
          "indexed": false,
          "internalType": "bytes",
          "name": "data",
          "type": "bytes"
        }
      ],
      "name": "Call",
      "type": "event"
    },
    {
      "stateMutability": "payable",
      "type": "fallback"
    },
    {
      "inputs": [
        {
          "components": [
            {
              "components": [
                {
                  "internalType": "address",
                  "name": "offerer",
                  "type": "address"
                },
                {
                  "internalType": "address",
                  "name": "inputToken",
                  "type": "address"
                },
                {
                  "internalType": "uint256",
                  "name": "inputAmount",
                  "type": "uint256"
                },
                {
                  "internalType": "uint256",
                  "name": "inputChainId",
                  "type": "uint256"
                },
                {
                  "internalType": "address",
                  "name": "inputZone",
                  "type": "address"
                },
                {
                  "internalType": "address",
                  "name": "outputToken",
                  "type": "address"
                },
                {
                  "internalType": "uint256",
                  "name": "outputAmount",
                  "type": "uint256"
                },
                {
                  "internalType": "uint256",
                  "name": "outputChainId",
                  "type": "uint256"
                },
                {
                  "internalType": "address",
                  "name": "outputZone",
                  "type": "address"
                },
                {
                  "internalType": "uint256",
                  "name": "startTime",
                  "type": "uint256"
                },
                {
                  "internalType": "uint256",
                  "name": "endTime",
                  "type": "uint256"
                },
                {
                  "internalType": "uint256",
                  "name": "salt",
                  "type": "uint256"
                },
                {
                  "internalType": "uint256",
                  "name": "counter",
                  "type": "uint256"
                },
                {
                  "internalType": "bool",
                  "name": "toWithdraw",
                  "type": "bool"
                }
              ],
              "internalType": "struct IAoriV2.Order",
              "name": "makerOrder",
              "type": "tuple"
            },
            {
              "components": [
                {
                  "internalType": "address",
                  "name": "offerer",
                  "type": "address"
                },
                {
                  "internalType": "address",
                  "name": "inputToken",
                  "type": "address"
                },
                {
                  "internalType": "uint256",
                  "name": "inputAmount",
                  "type": "uint256"
                },
                {
                  "internalType": "uint256",
                  "name": "inputChainId",
                  "type": "uint256"
                },
                {
                  "internalType": "address",
                  "name": "inputZone",
                  "type": "address"
                },
                {
                  "internalType": "address",
                  "name": "outputToken",
                  "type": "address"
                },
                {
                  "internalType": "uint256",
                  "name": "outputAmount",
                  "type": "uint256"
                },
                {
                  "internalType": "uint256",
                  "name": "outputChainId",
                  "type": "uint256"
                },
                {
                  "internalType": "address",
                  "name": "outputZone",
                  "type": "address"
                },
                {
                  "internalType": "uint256",
                  "name": "startTime",
                  "type": "uint256"
                },
                {
                  "internalType": "uint256",
                  "name": "endTime",
                  "type": "uint256"
                },
                {
                  "internalType": "uint256",
                  "name": "salt",
                  "type": "uint256"
                },
                {
                  "internalType": "uint256",
                  "name": "counter",
                  "type": "uint256"
                },
                {
                  "internalType": "bool",
                  "name": "toWithdraw",
                  "type": "bool"
                }
              ],
              "internalType": "struct IAoriV2.Order",
              "name": "takerOrder",
              "type": "tuple"
            },
            {
              "internalType": "bytes",
              "name": "makerSignature",
              "type": "bytes"
            },
            {
              "internalType": "bytes",
              "name": "takerSignature",
              "type": "bytes"
            },
            {
              "internalType": "uint256",
              "name": "blockDeadline",
              "type": "uint256"
            },
            {
              "internalType": "uint256",
              "name": "seatNumber",
              "type": "uint256"
            },
            {
              "internalType": "address",
              "name": "seatHolder",
              "type": "address"
            },
            {
              "internalType": "uint256",
              "name": "seatPercentOfFees",
              "type": "uint256"
            }
          ],
          "internalType": "struct IAoriV2.MatchingDetails",
          "name": "matching",
          "type": "tuple"
        },
        {
          "internalType": "bytes",
          "name": "hookData",
          "type": "bytes"
        }
      ],
      "name": "afterAoriTrade",
      "outputs": [
        {
          "internalType": "bool",
          "name": "",
          "type": "bool"
        }
      ],
      "stateMutability": "nonpayable",
      "type": "function"
    },
    {
      "inputs": [
        {
          "components": [
            {
              "components": [
                {
                  "internalType": "address",
                  "name": "offerer",
                  "type": "address"
                },
                {
                  "internalType": "address",
                  "name": "inputToken",
                  "type": "address"
                },
                {
                  "internalType": "uint256",
                  "name": "inputAmount",
                  "type": "uint256"
                },
                {
                  "internalType": "uint256",
                  "name": "inputChainId",
                  "type": "uint256"
                },
                {
                  "internalType": "address",
                  "name": "inputZone",
                  "type": "address"
                },
                {
                  "internalType": "address",
                  "name": "outputToken",
                  "type": "address"
                },
                {
                  "internalType": "uint256",
                  "name": "outputAmount",
                  "type": "uint256"
                },
                {
                  "internalType": "uint256",
                  "name": "outputChainId",
                  "type": "uint256"
                },
                {
                  "internalType": "address",
                  "name": "outputZone",
                  "type": "address"
                },
                {
                  "internalType": "uint256",
                  "name": "startTime",
                  "type": "uint256"
                },
                {
                  "internalType": "uint256",
                  "name": "endTime",
                  "type": "uint256"
                },
                {
                  "internalType": "uint256",
                  "name": "salt",
                  "type": "uint256"
                },
                {
                  "internalType": "uint256",
                  "name": "counter",
                  "type": "uint256"
                },
                {
                  "internalType": "bool",
                  "name": "toWithdraw",
                  "type": "bool"
                }
              ],
              "internalType": "struct IAoriV2.Order",
              "name": "makerOrder",
              "type": "tuple"
            },
            {
              "components": [
                {
                  "internalType": "address",
                  "name": "offerer",
                  "type": "address"
                },
                {
                  "internalType": "address",
                  "name": "inputToken",
                  "type": "address"
                },
                {
                  "internalType": "uint256",
                  "name": "inputAmount",
                  "type": "uint256"
                },
                {
                  "internalType": "uint256",
                  "name": "inputChainId",
                  "type": "uint256"
                },
                {
                  "internalType": "address",
                  "name": "inputZone",
                  "type": "address"
                },
                {
                  "internalType": "address",
                  "name": "outputToken",
                  "type": "address"
                },
                {
                  "internalType": "uint256",
                  "name": "outputAmount",
                  "type": "uint256"
                },
                {
                  "internalType": "uint256",
                  "name": "outputChainId",
                  "type": "uint256"
                },
                {
                  "internalType": "address",
                  "name": "outputZone",
                  "type": "address"
                },
                {
                  "internalType": "uint256",
                  "name": "startTime",
                  "type": "uint256"
                },
                {
                  "internalType": "uint256",
                  "name": "endTime",
                  "type": "uint256"
                },
                {
                  "internalType": "uint256",
                  "name": "salt",
                  "type": "uint256"
                },
                {
                  "internalType": "uint256",
                  "name": "counter",
                  "type": "uint256"
                },
                {
                  "internalType": "bool",
                  "name": "toWithdraw",
                  "type": "bool"
                }
              ],
              "internalType": "struct IAoriV2.Order",
              "name": "takerOrder",
              "type": "tuple"
            },
            {
              "internalType": "bytes",
              "name": "makerSignature",
              "type": "bytes"
            },
            {
              "internalType": "bytes",
              "name": "takerSignature",
              "type": "bytes"
            },
            {
              "internalType": "uint256",
              "name": "blockDeadline",
              "type": "uint256"
            },
            {
              "internalType": "uint256",
              "name": "seatNumber",
              "type": "uint256"
            },
            {
              "internalType": "address",
              "name": "seatHolder",
              "type": "address"
            },
            {
              "internalType": "uint256",
              "name": "seatPercentOfFees",
              "type": "uint256"
            }
          ],
          "internalType": "struct IAoriV2.MatchingDetails",
          "name": "matching",
          "type": "tuple"
        },
        {
          "internalType": "bytes",
          "name": "hookData",
          "type": "bytes"
        }
      ],
      "name": "beforeAoriTrade",
      "outputs": [
        {
          "internalType": "bool",
          "name": "",
          "type": "bool"
        }
      ],
      "stateMutability": "nonpayable",
      "type": "function"
    },
    {
      "inputs": [
        {
          "components": [
            {
              "internalType": "address",
              "name": "to",
              "type": "address"
            },
            {
              "internalType": "uint256",
              "name": "value",
              "type": "uint256"
            },
            {
              "internalType": "bytes",
              "name": "data",
              "type": "bytes"
            }
          ],
          "internalType": "struct Instruction[]",
          "name": "instructions",
          "type": "tuple[]"
        }
      ],
      "name": "execute",
      "outputs": [],
      "stateMutability": "payable",
      "type": "function"
    },
    {
      "inputs": [
        {
          "internalType": "bytes32",
          "name": "_hash",
          "type": "bytes32"
        },
        {
          "internalType": "bytes",
          "name": "_signature",
          "type": "bytes"
        }
      ],
      "name": "isValidSignature",
      "outputs": [
        {
          "internalType": "bytes4",
          "name": "",
          "type": "bytes4"
        }
      ],
      "stateMutability": "view",
      "type": "function"
    },
    {
      "inputs": [
        {
          "internalType": "address",
          "name": "",
          "type": "address"
        }
      ],
      "name": "managers",
      "outputs": [
        {
          "internalType": "bool",
          "name": "",
          "type": "bool"
        }
      ],
      "stateMutability": "view",
      "type": "function"
    },
    {
      "inputs": [
        {
          "internalType": "address",
          "name": "_manager",
          "type": "address"
        },
        {
          "internalType": "bool",
          "name": "_isManager",
          "type": "bool"
        }
      ],
      "name": "setManager",
      "outputs": [],
      "stateMutability": "nonpayable",
      "type": "function"
    },
    {
      "inputs": [
        {
          "internalType": "bytes4",
          "name": "_interfaceId",
          "type": "bytes4"
        }
      ],
      "name": "supportsInterface",
      "outputs": [
        {
          "internalType": "bool",
          "name": "",
          "type": "bool"
        }
      ],
      "stateMutability": "view",
      "type": "function"
    },
    {
      "inputs": [
        {
          "internalType": "address",
          "name": "token",
          "type": "address"
        },
        {
          "internalType": "address",
          "name": "recipient",
          "type": "address"
        }
      ],
      "name": "withdrawAll",
      "outputs": [],
      "stateMutability": "nonpayable",
      "type": "function"
    },
    {
      "stateMutability": "payable",
      "type": "receive"
    }
  ],
  "bytecode": {
    "object": "0x6080346100b157601f6111fb38819003918201601f19168301916001600160401b038311848410176100b65780849260409485528339810103126100b157610052602061004b836100cc565b92016100cc565b9060018060a01b038091169160018060a01b031992600090808583541617825581526001602052600160408083209260ff1993838582541617905530815220918254161790551690600254161760025560405161111a90816100e18239f35b600080fd5b634e487b7160e01b600052604160045260246000fd5b51906001600160a01b03821682036100b15756fe60806040526004361015610018575b361561001657005b005b6000803560e01c90816301ffc9a7146100bb5750806309cae2c8146100b25780631626ba7e146100a95780633f707e6b146100a05780637ad28a5914610097578063a5e90eee1461008e578063a9cfc240146100855763fdff9b4d0361000e57610080610843565b61000e565b50610080610828565b506100806106fe565b506100806106cf565b50610080610559565b506100806104d2565b506100806101e9565b3461017a5760207ffffffffffffffffffffffffffffffffffffffffffffffffffffffffffffffffc36011261017a57600435907fffffffff00000000000000000000000000000000000000000000000000000000821680920361017a57507f7ad28a59000000000000000000000000000000000000000000000000000000008114908115610150575b50151560805260206080f35b7fa9cfc2400000000000000000000000000000000000000000000000000000000091501481610144565b80fd5b6004359073ffffffffffffffffffffffffffffffffffffffff821682036101a057565b600080fd5b6024359073ffffffffffffffffffffffffffffffffffffffff821682036101a057565b359073ffffffffffffffffffffffffffffffffffffffff821682036101a057565b50346101a05760407ffffffffffffffffffffffffffffffffffffffffffffffffffffffffffffffffc3601126101a05761022161017d565b61032873ffffffffffffffffffffffffffffffffffffffff6102416101a5565b9261027e6102796102723373ffffffffffffffffffffffffffffffffffffffff166000526001602052604060002090565b5460ff1690565b611035565b6040517f70a0823100000000000000000000000000000000000000000000000000000000815230600482015260209485939192909116908383602481855afa92831561039b575b60009361036c575b5060006040518096819582947fa9059cbb000000000000000000000000000000000000000000000000000000008452600484016020909392919373ffffffffffffffffffffffffffffffffffffffff60408201951681520152565b03925af1801561035f575b61033957005b8161001692903d10610358575b6103508183610401565b8101906110cf565b503d610346565b610367610bf9565b610333565b61038d919350843d8611610394575b6103858183610401565b8101906110c0565b91386102cd565b503d61037b565b6103a3610bf9565b6102c5565b507f4e487b7100000000000000000000000000000000000000000000000000000000600052604160045260246000fd5b6060810190811067ffffffffffffffff8211176103f457604052565b6103fc6103a8565b604052565b90601f7fffffffffffffffffffffffffffffffffffffffffffffffffffffffffffffffe0910116810190811067ffffffffffffffff8211176103f457604052565b7fffffffffffffffffffffffffffffffffffffffffffffffffffffffffffffffe0601f60209267ffffffffffffffff811161047e575b01160190565b6104866103a8565b610478565b81601f820112156101a0578035906104a282610442565b926104b06040519485610401565b828452602083830101116101a057816000926020809301838601378301015290565b50346101a05760407ffffffffffffffffffffffffffffffffffffffffffffffffffffffffffffffffc3601126101a05760243567ffffffffffffffff81116101a05761052f610527602092369060040161048b565b600435610c06565b7fffffffff0000000000000000000000000000000000000000000000000000000060405191168152f35b5060207ffffffffffffffffffffffffffffffffffffffffffffffffffffffffffffffffc3601126101a05760043567ffffffffffffffff8082116101a057366023830112156101a05781600401359081116101a0573660248260051b840101116101a05733600052600160205260ff60406000205416156105eb57610016916105e6916024369201610939565b610f2c565b60646040517f08c379a000000000000000000000000000000000000000000000000000000000815260206004820152601a60248201527f4f6e6c792061206d616e616765722063616e20657865637574650000000000006044820152fd5b907ffffffffffffffffffffffffffffffffffffffffffffffffffffffffffffffffc906040828401126101a05760043567ffffffffffffffff928382116101a0576104409082860301126101a05760040192602435908382116101a057806023830112156101a05781600401359384116101a057602484830101116101a0576024019190565b50346101a05760206106ea6106e336610649565b9150610a57565b6040519015158152f35b801515036101a057565b50346101a05760407ffffffffffffffffffffffffffffffffffffffffffffffffffffffffffffffffc3601126101a05761073661017d565b602435610742816106f4565b73ffffffffffffffffffffffffffffffffffffffff806000541633036107a4576100169216600052600160205260406000209060ff7fffffffffffffffffffffffffffffffffffffffffffffffffffffffffffffff0083541691151516179055565b60846040517f08c379a000000000000000000000000000000000000000000000000000000000815260206004820152602160248201527f4f6e6c79206f776e65722063616e2063616c6c20746869732066756e6374696f60448201527f6e000000000000000000000000000000000000000000000000000000000000006064820152fd5b50346101a05760206106ea61083c36610649565b9150610b3d565b50346101a05760207ffffffffffffffffffffffffffffffffffffffffffffffffffffffffffffffffc3601126101a05773ffffffffffffffffffffffffffffffffffffffff61089061017d565b166000526001602052602060ff604060002054166040519015158152f35b156108b557565b60846040517f08c379a000000000000000000000000000000000000000000000000000000000815260206004820152603460248201527f4f6e6c792061206d616e616765722063616e20666f726365207468652065786560448201527f637574696f6e206f6620746869732074726164650000000000000000000000006064820152fd5b9291909267ffffffffffffffff8085116109e9575b8460051b6040938451946020809661096882860182610401565b8099815201928501948286116101a05780935b86851061098c575050505050505050565b84358681116101a05782016060818603126101a0578351916109ad836103d8565b6109b6826101c8565b8352898201358a84015284820135928884116101a0576109da878c9586950161048b565b8682015281520194019361097b565b6109f16103a8565b61094e565b9080601f830112156101a057816020610a1193359101610939565b90565b9190916040818403126101a05767ffffffffffffffff9281358481116101a05781610a409184016109f6565b9360208301359081116101a057610a1192016109f6565b908015610b3657326000526001602052610a7860ff604060002054166108ae565b73ffffffffffffffffffffffffffffffffffffffff600254163303610ab25781610aa791610aad930190610a14565b50610f2c565b600190565b60846040517f08c379a000000000000000000000000000000000000000000000000000000000815260206004820152603160248201527f4f6e6c7920616f726950726f746f636f6c2063616e20696e746572616374207760448201527f697468207468697320636f6e74726163740000000000000000000000000000006064820152fd5b5050600190565b908015610b3657326000526001602052610b5e60ff604060002054166108ae565b73ffffffffffffffffffffffffffffffffffffffff600254163303610b945781610b8d91610aad930190610a14565b9050610f2c565b60646040517f08c379a000000000000000000000000000000000000000000000000000000000815260206004820152601b60248201527f4f6e6c7920616f726950726f746f636f6c2063616e20747261646500000000006044820152fd5b156101a057565b506040513d6000823e3d90fd5b6020610d0692610c196041825114610bf2565b818101519060606040820151910151916000958693841a9285858589610c608588604051948594859094939260ff6060936080840197845216602083015260408201520152565b838052039060015afa15610dbb575b845196604051610cdc81610cb08a82019485603c917f19457468657265756d205369676e6564204d6573736167653a0a3332000000008252601c8201520190565b037fffffffffffffffffffffffffffffffffffffffffffffffffffffffffffffffe08101835282610401565b51902092604051948594859094939260ff6060936080840197845216602083015260408201520152565b838052039060015afa15610dae575b610d4461027283519273ffffffffffffffffffffffffffffffffffffffff166000526001602052604060002090565b908115610d79575b50610d545790565b507f1626ba7e0000000000000000000000000000000000000000000000000000000090565b610da891506102729073ffffffffffffffffffffffffffffffffffffffff166000526001602052604060002090565b38610d4c565b610db6610bf9565b610d15565b610dc3610bf9565b610c6f565b8051821015610ddc5760209160051b010190565b7f4e487b7100000000000000000000000000000000000000000000000000000000600052603260045260246000fd5b3d15610e36573d90610e1c82610442565b91610e2a6040519384610401565b82523d6000602084013e565b606090565b15610e4257565b60646040517f08c379a000000000000000000000000000000000000000000000000000000000815260206004820152602060248201527f43616c6c20746f2065787465726e616c2066756e6374696f6e206661696c65646044820152fd5b919073ffffffffffffffffffffffffffffffffffffffff90949394168252602090818301526060604083015283519384606084015260005b858110610f18575050507fffffffffffffffffffffffffffffffffffffffffffffffffffffffffffffffe0601f8460006080809697860101520116010190565b818101830151848201608001528201610ed8565b80519060005b828110610f3e57505050565b7f58920bab8ebe20f458895b68243189a021c51741421c3d98eff715b8e5afe1fa610f87610f6c8385610dc8565b515173ffffffffffffffffffffffffffffffffffffffff1690565b602090610fd482610f988688610dc8565b510151926040610fca60008083610faf8b8d610dc8565b51015194855190860189895af1610fc4610e0b565b50610e3b565b5193849384610ea0565b0390a17fffffffffffffffffffffffffffffffffffffffffffffffffffffffffffffffff811461100657600101610f32565b7f4e487b7100000000000000000000000000000000000000000000000000000000600052601160045260246000fd5b1561103c57565b60846040517f08c379a000000000000000000000000000000000000000000000000000000000815260206004820152602760248201527f4f6e6c79206f776e6572206f72207468697320636f6e74726163742063616e2060448201527f65786563757465000000000000000000000000000000000000000000000000006064820152fd5b908160209103126101a0575190565b908160209103126101a05751610a11816106f456fea2646970667358221220dfa59a9976f6df787923f9afa387faab85544230bc7e94ac50e5c56b4aa92b1a64736f6c63430008110033",
    "linkReferences": {}
  },
  "methodIdentifiers": {
    "afterAoriTrade(((address,address,uint256,uint256,address,address,uint256,uint256,address,uint256,uint256,uint256,uint256,bool),(address,address,uint256,uint256,address,address,uint256,uint256,address,uint256,uint256,uint256,uint256,bool),bytes,bytes,uint256,uint256,address,uint256),bytes)": "a9cfc240",
    "beforeAoriTrade(((address,address,uint256,uint256,address,address,uint256,uint256,address,uint256,uint256,uint256,uint256,bool),(address,address,uint256,uint256,address,address,uint256,uint256,address,uint256,uint256,uint256,uint256,bool),bytes,bytes,uint256,uint256,address,uint256),bytes)": "7ad28a59",
    "execute((address,uint256,bytes)[])": "3f707e6b",
    "isValidSignature(bytes32,bytes)": "1626ba7e",
    "managers(address)": "fdff9b4d",
    "setManager(address,bool)": "a5e90eee",
    "supportsInterface(bytes4)": "01ffc9a7",
    "withdrawAll(address,address)": "09cae2c8"
  },
  "id": 0
}