{"abi":[{"type":"function","name":"balanceOf","inputs":[{"name":"_account","type":"address","internalType":"address"},{"name":"_token","type":"address","internalType":"address"}],"outputs":[{"name":"balance","type":"uint256","internalType":"uint256"}],"stateMutability":"view"},{"type":"function","name":"cancel","inputs":[{"name":"signedOrder","type":"tuple","internalType":"struct IClearing.SignedOrder","components":[{"name":"order","type":"tuple","internalType":"struct IClearing.Order","components":[{"name":"offerer","type":"address","internalType":"address"},{"name":"inputToken","type":"address","internalType":"address"},{"name":"inputAmount","type":"uint256","internalType":"uint256"},{"name":"outputToken","type":"address","internalType":"address"},{"name":"outputAmount","type":"uint256","internalType":"uint256"},{"name":"recipient","type":"address","internalType":"address"},{"name":"zone","type":"address","internalType":"address"},{"name":"chainId","type":"uint160","internalType":"uint160"},{"name":"startTime","type":"uint32","internalType":"uint32"},{"name":"endTime","type":"uint32","internalType":"uint32"},{"name":"toWithdraw","type":"bool","internalType":"bool"}]},{"name":"extraData","type":"bytes","internalType":"bytes"},{"name":"signature","type":"bytes","internalType":"bytes"}]}],"outputs":[],"stateMutability":"nonpayable"},{"type":"function","name":"deposit","inputs":[{"name":"_account","type":"address","internalType":"address"},{"name":"_token","type":"address","internalType":"address"},{"name":"_amount","type":"uint256","internalType":"uint256"},{"name":"_extraData","type":"bytes","internalType":"bytes"}],"outputs":[],"stateMutability":"payable"},{"type":"function","name":"eip712Domain","inputs":[],"outputs":[{"name":"fields","type":"bytes1","internalType":"bytes1"},{"name":"name","type":"string","internalType":"string"},{"name":"version","type":"string","internalType":"string"},{"name":"chainId","type":"uint256","internalType":"uint256"},{"name":"verifyingContract","type":"address","internalType":"address"},{"name":"salt","type":"bytes32","internalType":"bytes32"},{"name":"extensions","type":"uint256[]","internalType":"uint256[]"}],"stateMutability":"view"},{"type":"function","name":"escrow","inputs":[{"name":"signedOrder","type":"tuple","internalType":"struct IClearing.SignedOrder","components":[{"name":"order","type":"tuple","internalType":"struct IClearing.Order","components":[{"name":"offerer","type":"address","internalType":"address"},{"name":"inputToken","type":"address","internalType":"address"},{"name":"inputAmount","type":"uint256","internalType":"uint256"},{"name":"outputToken","type":"address","internalType":"address"},{"name":"outputAmount","type":"uint256","internalType":"uint256"},{"name":"recipient","type":"address","internalType":"address"},{"name":"zone","type":"address","internalType":"address"},{"name":"chainId","type":"uint160","internalType":"uint160"},{"name":"startTime","type":"uint32","internalType":"uint32"},{"name":"endTime","type":"uint32","internalType":"uint32"},{"name":"toWithdraw","type":"bool","internalType":"bool"}]},{"name":"extraData","type":"bytes","internalType":"bytes"},{"name":"signature","type":"bytes","internalType":"bytes"}]}],"outputs":[],"stateMutability":"nonpayable"},{"type":"function","name":"flash","inputs":[{"name":"recipient","type":"address","internalType":"address"},{"name":"token","type":"address","internalType":"address"},{"name":"amount","type":"uint256","internalType":"uint256"},{"name":"userData","type":"bytes","internalType":"bytes"},{"name":"receiveToken","type":"bool","internalType":"bool"}],"outputs":[],"stateMutability":"nonpayable"},{"type":"function","name":"getOrderHash","inputs":[{"name":"order","type":"tuple","internalType":"struct IClearing.Order","components":[{"name":"offerer","type":"address","internalType":"address"},{"name":"inputToken","type":"address","internalType":"address"},{"name":"inputAmount","type":"uint256","internalType":"uint256"},{"name":"outputToken","type":"address","internalType":"address"},{"name":"outputAmount","type":"uint256","internalType":"uint256"},{"name":"recipient","type":"address","internalType":"address"},{"name":"zone","type":"address","internalType":"address"},{"name":"chainId","type":"uint160","internalType":"uint160"},{"name":"startTime","type":"uint32","internalType":"uint32"},{"name":"endTime","type":"uint32","internalType":"uint32"},{"name":"toWithdraw","type":"bool","internalType":"bool"}]}],"outputs":[{"name":"","type":"bytes32","internalType":"bytes32"}],"stateMutability":"pure"},{"type":"function","name":"getSignatureMessage","inputs":[{"name":"signedOrder","type":"tuple","internalType":"struct IClearing.SignedOrder","components":[{"name":"order","type":"tuple","internalType":"struct IClearing.Order","components":[{"name":"offerer","type":"address","internalType":"address"},{"name":"inputToken","type":"address","internalType":"address"},{"name":"inputAmount","type":"uint256","internalType":"uint256"},{"name":"outputToken","type":"address","internalType":"address"},{"name":"outputAmount","type":"uint256","internalType":"uint256"},{"name":"recipient","type":"address","internalType":"address"},{"name":"zone","type":"address","internalType":"address"},{"name":"chainId","type":"uint160","internalType":"uint160"},{"name":"startTime","type":"uint32","internalType":"uint32"},{"name":"endTime","type":"uint32","internalType":"uint32"},{"name":"toWithdraw","type":"bool","internalType":"bool"}]},{"name":"extraData","type":"bytes","internalType":"bytes"},{"name":"signature","type":"bytes","internalType":"bytes"}]}],"outputs":[{"name":"","type":"bytes32","internalType":"bytes32"}],"stateMutability":"pure"},{"type":"function","name":"hasSettled","inputs":[{"name":"offerer","type":"address","internalType":"address"},{"name":"orderHash","type":"bytes32","internalType":"bytes32"}],"outputs":[{"name":"","type":"bool","internalType":"bool"}],"stateMutability":"view"},{"type":"function","name":"isCancelled","inputs":[{"name":"offerer","type":"address","internalType":"address"},{"name":"orderHash","type":"bytes32","internalType":"bytes32"}],"outputs":[{"name":"","type":"bool","internalType":"bool"}],"stateMutability":"view"},{"type":"function","name":"move","inputs":[{"name":"to","type":"address","internalType":"address"},{"name":"token","type":"address","internalType":"address"},{"name":"amount","type":"uint256","internalType":"uint256"},{"name":"extraData","type":"bytes","internalType":"bytes"}],"outputs":[],"stateMutability":"nonpayable"},{"type":"function","name":"release","inputs":[{"name":"signedOrder","type":"tuple","internalType":"struct IClearing.SignedOrder","components":[{"name":"order","type":"tuple","internalType":"struct IClearing.Order","components":[{"name":"offerer","type":"address","internalType":"address"},{"name":"inputToken","type":"address","internalType":"address"},{"name":"inputAmount","type":"uint256","internalType":"uint256"},{"name":"outputToken","type":"address","internalType":"address"},{"name":"outputAmount","type":"uint256","internalType":"uint256"},{"name":"recipient","type":"address","internalType":"address"},{"name":"zone","type":"address","internalType":"address"},{"name":"chainId","type":"uint160","internalType":"uint160"},{"name":"startTime","type":"uint32","internalType":"uint32"},{"name":"endTime","type":"uint32","internalType":"uint32"},{"name":"toWithdraw","type":"bool","internalType":"bool"}]},{"name":"extraData","type":"bytes","internalType":"bytes"},{"name":"signature","type":"bytes","internalType":"bytes"}]}],"outputs":[],"stateMutability":"nonpayable"},{"type":"function","name":"settle","inputs":[{"name":"orders","type":"tuple[]","internalType":"struct IClearing.SignedOrder[]","components":[{"name":"order","type":"tuple","internalType":"struct IClearing.Order","components":[{"name":"offerer","type":"address","internalType":"address"},{"name":"inputToken","type":"address","internalType":"address"},{"name":"inputAmount","type":"uint256","internalType":"uint256"},{"name":"outputToken","type":"address","internalType":"address"},{"name":"outputAmount","type":"uint256","internalType":"uint256"},{"name":"recipient","type":"address","internalType":"address"},{"name":"zone","type":"address","internalType":"address"},{"name":"chainId","type":"uint160","internalType":"uint160"},{"name":"startTime","type":"uint32","internalType":"uint32"},{"name":"endTime","type":"uint32","internalType":"uint32"},{"name":"toWithdraw","type":"bool","internalType":"bool"}]},{"name":"extraData","type":"bytes","internalType":"bytes"},{"name":"signature","type":"bytes","internalType":"bytes"}]},{"name":"extraData","type":"bytes","internalType":"bytes"},{"name":"witness","type":"bytes","internalType":"bytes"}],"outputs":[],"stateMutability":"payable"},{"type":"function","name":"verifyOrderSignature","inputs":[{"name":"signedOrder","type":"tuple","internalType":"struct IClearing.SignedOrder","components":[{"name":"order","type":"tuple","internalType":"struct IClearing.Order","components":[{"name":"offerer","type":"address","internalType":"address"},{"name":"inputToken","type":"address","internalType":"address"},{"name":"inputAmount","type":"uint256","internalType":"uint256"},{"name":"outputToken","type":"address","internalType":"address"},{"name":"outputAmount","type":"uint256","internalType":"uint256"},{"name":"recipient","type":"address","internalType":"address"},{"name":"zone","type":"address","internalType":"address"},{"name":"chainId","type":"uint160","internalType":"uint160"},{"name":"startTime","type":"uint32","internalType":"uint32"},{"name":"endTime","type":"uint32","internalType":"uint32"},{"name":"toWithdraw","type":"bool","internalType":"bool"}]},{"name":"extraData","type":"bytes","internalType":"bytes"},{"name":"signature","type":"bytes","internalType":"bytes"}]}],"outputs":[{"name":"","type":"bool","internalType":"bool"}],"stateMutability":"view"},{"type":"function","name":"withdraw","inputs":[{"name":"_to","type":"address","internalType":"address"},{"name":"_token","type":"address","internalType":"address"},{"name":"_amount","type":"uint256","internalType":"uint256"},{"name":"_extraData","type":"bytes","internalType":"bytes"}],"outputs":[],"stateMutability":"nonpayable"},{"type":"event","name":"Cancelled","inputs":[{"name":"orderHash","type":"bytes32","indexed":true,"internalType":"bytes32"},{"name":"zone","type":"address","indexed":true,"internalType":"address"},{"name":"offerer","type":"address","indexed":true,"internalType":"address"},{"name":"order","type":"tuple","indexed":false,"internalType":"struct IClearing.Order","components":[{"name":"offerer","type":"address","internalType":"address"},{"name":"inputToken","type":"address","internalType":"address"},{"name":"inputAmount","type":"uint256","internalType":"uint256"},{"name":"outputToken","type":"address","internalType":"address"},{"name":"outputAmount","type":"uint256","internalType":"uint256"},{"name":"recipient","type":"address","internalType":"address"},{"name":"zone","type":"address","internalType":"address"},{"name":"chainId","type":"uint160","internalType":"uint160"},{"name":"startTime","type":"uint32","internalType":"uint32"},{"name":"endTime","type":"uint32","internalType":"uint32"},{"name":"toWithdraw","type":"bool","internalType":"bool"}]},{"name":"extraData","type":"bytes","indexed":false,"internalType":"bytes"}],"anonymous":false},{"type":"event","name":"Deposit","inputs":[{"name":"from","type":"address","indexed":true,"internalType":"address"},{"name":"account","type":"address","indexed":true,"internalType":"address"},{"name":"token","type":"address","indexed":true,"internalType":"address"},{"name":"amount","type":"uint256","indexed":false,"internalType":"uint256"},{"name":"extraData","type":"bytes","indexed":false,"internalType":"bytes"}],"anonymous":false},{"type":"event","name":"Settled","inputs":[{"name":"orderHash","type":"bytes32","indexed":true,"internalType":"bytes32"},{"name":"zone","type":"address","indexed":true,"internalType":"address"},{"name":"offerer","type":"address","indexed":true,"internalType":"address"},{"name":"order","type":"tuple","indexed":false,"internalType":"struct IClearing.Order","components":[{"name":"offerer","type":"address","internalType":"address"},{"name":"inputToken","type":"address","internalType":"address"},{"name":"inputAmount","type":"uint256","internalType":"uint256"},{"name":"outputToken","type":"address","internalType":"address"},{"name":"outputAmount","type":"uint256","internalType":"uint256"},{"name":"recipient","type":"address","internalType":"address"},{"name":"zone","type":"address","internalType":"address"},{"name":"chainId","type":"uint160","internalType":"uint160"},{"name":"startTime","type":"uint32","internalType":"uint32"},{"name":"endTime","type":"uint32","internalType":"uint32"},{"name":"toWithdraw","type":"bool","internalType":"bool"}]},{"name":"extraData","type":"bytes","indexed":false,"internalType":"bytes"}],"anonymous":false},{"type":"event","name":"Transfer","inputs":[{"name":"from","type":"address","indexed":true,"internalType":"address"},{"name":"account","type":"address","indexed":true,"internalType":"address"},{"name":"token","type":"address","indexed":true,"internalType":"address"},{"name":"amount","type":"uint256","indexed":false,"internalType":"uint256"},{"name":"extraData","type":"bytes","indexed":false,"internalType":"bytes"}],"anonymous":false},{"type":"event","name":"Withdraw","inputs":[{"name":"from","type":"address","indexed":true,"internalType":"address"},{"name":"account","type":"address","indexed":true,"internalType":"address"},{"name":"token","type":"address","indexed":true,"internalType":"address"},{"name":"amount","type":"uint256","indexed":false,"internalType":"uint256"},{"name":"extraData","type":"bytes","indexed":false,"internalType":"bytes"}],"anonymous":false},{"type":"error","name":"AddressEmptyCode","inputs":[{"name":"target","type":"address","internalType":"address"}]},{"type":"error","name":"AddressInsufficientBalance","inputs":[{"name":"account","type":"address","internalType":"address"}]},{"type":"error","name":"FailedInnerCall","inputs":[]},{"type":"error","name":"SafeERC20FailedOperation","inputs":[{"name":"token","type":"address","internalType":"address"}]}],"bytecode":{"object":"0x61012060405234620000c757306080524660a05260a06200001f620000cb565b602081019063416f726960e01b825262000038620000cb565b91602083019163076322e360e41b8352519020915190208160c0528060e052604051917f8b73c3c69bb8fe3d512ecc4cf759cc79239f7b179b0ffacaa9a75d522b39400f83526020830152604082015246606082015230608082015220610100908152604051613323918262000104833960805182505060a05182505060c05182505060e05182505051815050f35b5f80fd5b60408051919082016001600160401b03811183821017620000ef5760405260048252565b634e487b7160e01b5f52604160045260245ffdfe60806040526004361015610011575f80fd5b5f3560e01c8063112f6a76146101045780631f487333146100ff5780632c25b52b146100fa5780634b388178146100f55780637db7cdd6146100f0578063836337d4146100eb57806384b0196e146100e657806385a1208a146100e1578063aaeaa99a146100dc578063b1e53821146100d7578063d33a5997146100d2578063e1dfd54a146100cd578063e9c670ad146100c8578063f37e8d38146100c35763f7888aec146100be575f80fd5b6112ab565b61114e565b610f97565b610d32565b610d1a565b610d04565b610b39565b610a84565b61094d565b6108bd565b610819565b6107d3565b610605565b61048f565b610384565b7f4e487b71000000000000000000000000000000000000000000000000000000005f52604160045260245ffd5b6060810190811067ffffffffffffffff82111761015257604052565b610109565b67ffffffffffffffff811161015257604052565b6040810190811067ffffffffffffffff82111761015257604052565b90601f7fffffffffffffffffffffffffffffffffffffffffffffffffffffffffffffffe0910116810190811067ffffffffffffffff82111761015257604052565b60405190610160820182811067ffffffffffffffff82111761015257604052565b73ffffffffffffffffffffffffffffffffffffffff81160361020757565b5f80fd5b60043590610218826101e9565b565b60243590610218826101e9565b60643590610218826101e9565b60a43590610218826101e9565b60c43590610218826101e9565b60e43590610218826101e9565b3590610218826101e9565b610104359063ffffffff8216820361020757565b610124359063ffffffff8216820361020757565b359063ffffffff8216820361020757565b8015150361020757565b61014435906102188261029f565b35906102188261029f565b919082610160910312610207576102d76101c8565b916102e18161025b565b83526102ef6020820161025b565b60208401526040810135604084015261030a6060820161025b565b60608401526080810135608084015261032560a0820161025b565b60a084015261033660c0820161025b565b60c084015261034760e0820161025b565b60e084015261010061035a81830161028e565b9084015261012061036c81830161028e565b9084015261037e6101408092016102b7565b90830152565b34610207576101607ffffffffffffffffffffffffffffffffffffffffffffffffffffffffffffffffc36011261020757602061044a6103c16101c8565b6103c961020b565b81526103d361021a565b8382015260443560408201526103e7610227565b606082015260843560808201526103fc610234565b60a0820152610409610241565b60c082015261041661024e565b60e0820152610423610266565b61010082015261043161027a565b61012082015261043f6102a9565b610140820152612ae8565b604051908152f35b7ffffffffffffffffffffffffffffffffffffffffffffffffffffffffffffffffc604091011261020757600435610488816101e9565b9060243590565b346102075773ffffffffffffffffffffffffffffffffffffffff6104b236610452565b91165f52600160205260405f20905f52602052602060ff60405f2054166040519015158152f35b67ffffffffffffffff811161015257601f017fffffffffffffffffffffffffffffffffffffffffffffffffffffffffffffffe01660200190565b81601f820112156102075780359061052a826104d9565b926105386040519485610187565b8284526020838301011161020757815f926020809301838601378301015290565b7ffffffffffffffffffffffffffffffffffffffffffffffffffffffffffffffffc602081830112610207576004359167ffffffffffffffff91828411610207576101a090848303011261020757604051926105b384610136565b6105c082826004016102c2565b8452610164810135838111610207578260046105de92840101610513565b6020850152610184810135928311610207576105fd9201600401610513565b604082015290565b346102075761061336610559565b610659610652610639835173ffffffffffffffffffffffffffffffffffffffff90511690565b73ffffffffffffffffffffffffffffffffffffffff1690565b3314611343565b61066a61066582612c24565b6113a8565b6106748151612ae8565b6106e56106e06106dc6106d5846106c86106a4885173ffffffffffffffffffffffffffffffffffffffff90511690565b73ffffffffffffffffffffffffffffffffffffffff165f52600260205260405f2090565b905f5260205260405f2090565b5460ff1690565b1590565b611433565b61073a61070f826106c86106a4865173ffffffffffffffffffffffffffffffffffffffff90511690565b60017fffffffffffffffffffffffffffffffffffffffffffffffffffffffffffffff00825416179055565b8151907f21569887b708af6837697669608231446fcd6f338a74705f15701a776811dfd761077f60c084015173ffffffffffffffffffffffffffffffffffffffff1690565b9360206107a0855173ffffffffffffffffffffffffffffffffffffffff1690565b910151906107ce73ffffffffffffffffffffffffffffffffffffffff92836040519485941698169683611498565b0390a4005b34610207576107e96107e436610559565b611947565b005b9181601f840112156102075782359167ffffffffffffffff8311610207576020838186019501011161020757565b60607ffffffffffffffffffffffffffffffffffffffffffffffffffffffffffffffffc3601126102075760043567ffffffffffffffff808211610207573660238301121561020757816004013591818311610207573660248460051b8301011161020757602435828111610207576108959036906004016107eb565b90604435938411610207576107e9946108b460249536906004016107eb565b95909401612272565b346102075760206108d56108d036610559565b612c24565b6040519015158152f35b5f91031261020757565b5f5b8381106108fa5750505f910152565b81810151838201526020016108eb565b907fffffffffffffffffffffffffffffffffffffffffffffffffffffffffffffffe0601f602093610946815180928187528780880191016108e9565b0116010190565b34610207575f7ffffffffffffffffffffffffffffffffffffffffffffffffffffffffffffffffc36011261020757610a2660405161098a8161016b565b6004815260207f416f72690000000000000000000000000000000000000000000000000000000081830152610a346040516109c48161016b565b600481527f76322e3000000000000000000000000000000000000000000000000000000000838201526040519485947f0f00000000000000000000000000000000000000000000000000000000000000865260e08587015260e086019061090a565b90848203604086015261090a565b904660608401523060808401525f60a084015282820360c0840152806060519283815201916080915f5b828110610a6d57505050500390f35b835185528695509381019392810192600101610a5e565b346102075773ffffffffffffffffffffffffffffffffffffffff610aa736610452565b91165f52600260205260405f20905f52602052602060ff60405f2054166040519015158152f35b9060807ffffffffffffffffffffffffffffffffffffffffffffffffffffffffffffffffc83011261020757600435610b05816101e9565b91602435610b12816101e9565b91604435916064359067ffffffffffffffff821161020757610b3691600401610513565b90565b3461020757610b4736610ace565b90610b9683610b733373ffffffffffffffffffffffffffffffffffffffff165f525f60205260405f2090565b9073ffffffffffffffffffffffffffffffffffffffff165f5260205260405f2090565b549081811115610cfc5750925b610bae8415156125cd565b610bd983610b733373ffffffffffffffffffffffffffffffffffffffff165f525f60205260405f2090565b610be4858254611928565b9055610c1183610b738373ffffffffffffffffffffffffffffffffffffffff165f525f60205260405f2090565b610c1c85825461193a565b905573ffffffffffffffffffffffffffffffffffffffff908181169182604051918616917fad83e7acd83464979ce505abf61e770330d71fb25db2fcec82a9a9f50aea30f0339180610c6f898c83612632565b0390a4813314159081610cf1575b50610c8457005b803b1561020757610cc9935f8094604051968795869485937ff58171df0000000000000000000000000000000000000000000000000000000085523360048601612649565b03925af18015610cec57610cd957005b80610ce66107e992610157565b806108df565b61216a565b90503b15155f610c7d565b905092610ba3565b34610207576107e9610d1536610559565b612710565b3461020757602061044a610d2d36610559565b612f2b565b346102075760a07ffffffffffffffffffffffffffffffffffffffffffffffffffffffffffffffffc36011261020757600435610d6d816101e9565b602435610d79816101e9565b6044359160643567ffffffffffffffff811161020757610d9d903690600401610513565b608435610da98161029f565b6040517f70a0823100000000000000000000000000000000000000000000000000000000808252306004830152602096919573ffffffffffffffffffffffffffffffffffffffff8082169692949089896024818b5afa988915610cec575f99610f78575b508115610f3b57610e1f85858a612eb8565b8316803b1561020757815f91610e679883604051809b819582947fe84afff60000000000000000000000000000000000000000000000000000000084528c8b6004860161295f565b03925af1958615610cec578996610f28575b5015610eeb575090610e8d91309086612e3c565b60405190815230600482015291829060249082905afa908115610cec576107e9935f92610ebe575b505010156129a0565b610edd9250803d10610ee4575b610ed58183610187565b810190612950565b5f80610eb5565b503d610ecb565b610f1990610b73610f219373ffffffffffffffffffffffffffffffffffffffff165f525f60205260405f2090565b918254611928565b9055610e8d565b80610ce6610f3592610157565b5f610e79565b610f6683610b738673ffffffffffffffffffffffffffffffffffffffff165f525f60205260405f2090565b610f7186825461193a565b9055610e1f565b610f909199508a3d8c11610ee457610ed58183610187565b975f610e0d565b610fa036610ace565b6040517f70a082310000000000000000000000000000000000000000000000000000000080825233600483015273ffffffffffffffffffffffffffffffffffffffff9592938587169392602092918382602481895afa918215610cec575f9261112f575b50818111156111275750905b61101b8215156125cd565b604051818152306004820152918383602481895afa928315610cec575f93611104575b5061104b90303388612e3c565b6040519081523060048201528281602481885afa908115610cec57611078935f926110e7575b5050611928565b946110a485610b738473ffffffffffffffffffffffffffffffffffffffff165f525f60205260405f2090565b6110af87825461193a565b9055811691826040517fc78ca74c250a1078ea448c136b74deef29cee05418f17eaee30a117c22483c18339180610c6f898c83612632565b6110fd9250803d10610ee457610ed58183610187565b5f80611071565b61104b91935061112090853d8711610ee457610ed58183610187565b929061103e565b905090611010565b611147919250843d8611610ee457610ed58183610187565b905f611004565b346102075761115c36610ace565b91335f525f60205261118f8160405f209073ffffffffffffffffffffffffffffffffffffffff165f5260205260405f2090565b54821161122757806111e37f618bd60ddf6a63dee46da100226c5eff9f6be6133c110c5c0a0c7bf686d0747892610b733373ffffffffffffffffffffffffffffffffffffffff165f525f60205260405f2090565b6111ee848254611928565b905573ffffffffffffffffffffffffffffffffffffffff80911694611214848288612eb8565b6107ce6040519283921695339583612632565b60846040517f08c379a000000000000000000000000000000000000000000000000000000000815260206004820152603060248201527f416d6f756e7420746f207769746864726177206973206772656174657220746860448201527f616e2074686569722062616c616e6365000000000000000000000000000000006064820152fd5b346102075760407ffffffffffffffffffffffffffffffffffffffffffffffffffffffffffffffffc36011261020757602061133a6004356112eb816101e9565b73ffffffffffffffffffffffffffffffffffffffff6024359161130d836101e9565b165f525f835260405f209073ffffffffffffffffffffffffffffffffffffffff165f5260205260405f2090565b54604051908152f35b1561134a57565b60646040517f08c379a000000000000000000000000000000000000000000000000000000000815260206004820152601760248201527f4f6e6c79206f6666657265722063616e2063616e63656c0000000000000000006044820152fd5b156113af57565b60846040517f08c379a000000000000000000000000000000000000000000000000000000000815260206004820152602e60248201527f5369676e617475726520646f6573206e6f7420636f72726573706f6e6420746f60448201527f206f726465722064657461696c730000000000000000000000000000000000006064820152fd5b1561143a57565b60646040517f08c379a000000000000000000000000000000000000000000000000000000000815260206004820152602060248201527f4f726465722068617320616c7265616479206265656e2063616e63656c6c65646044820152fd5b90610b3692916115b8610180926114c583825173ffffffffffffffffffffffffffffffffffffffff169052565b60208181015173ffffffffffffffffffffffffffffffffffffffff1690840152604081015160408401526115166060820151606085019073ffffffffffffffffffffffffffffffffffffffff169052565b6080810151608084015261154760a082015160a085019073ffffffffffffffffffffffffffffffffffffffff169052565b60c08181015173ffffffffffffffffffffffffffffffffffffffff169084015260e08181015173ffffffffffffffffffffffffffffffffffffffff16908401526101008181015163ffffffff16908401526101208181015163ffffffff169084015261014090810151151590830152565b81610160820152019061090a565b156115cd57565b60646040517f08c379a000000000000000000000000000000000000000000000000000000000815260206004820152601560248201527f4e6f7420696e20636c656172696e6720706861736500000000000000000000006044820152fd5b1561163257565b60846040517f08c379a000000000000000000000000000000000000000000000000000000000815260206004820152602160248201527f4f726465722073746172742074696d6520697320696e2074686520667574757260448201527f65000000000000000000000000000000000000000000000000000000000000006064820152fd5b156116bd57565b60846040517f08c379a000000000000000000000000000000000000000000000000000000000815260206004820152602160248201527f4f7264657220656e642074696d652068617320616c726561647920706173736560448201527f64000000000000000000000000000000000000000000000000000000000000006064820152fd5b1561174857565b60646040517f08c379a000000000000000000000000000000000000000000000000000000000815260206004820152601960248201527f4f72646572207a6f6e6520646f6573206e6f74206d61746368000000000000006044820152fd5b156117ad57565b60646040517f08c379a000000000000000000000000000000000000000000000000000000000815260206004820152601c60248201527f4f7264657220636861696e496420646f6573206e6f74206d61746368000000006044820152fd5b1561181257565b60646040517f08c379a000000000000000000000000000000000000000000000000000000000815260206004820152601660248201527f4f7264657220686173206265656e20736574746c6564000000000000000000006044820152fd5b1561187757565b60846040517f08c379a000000000000000000000000000000000000000000000000000000000815260206004820152602f60248201527f4f72646572277320696e70757420617373657473206861766520616c7265616460448201527f79206265656e20657363726f77656400000000000000000000000000000000006064820152fd5b7f4e487b71000000000000000000000000000000000000000000000000000000005f52601160045260245ffd5b9190820391821161193557565b6118fb565b9190820180921161193557565b611955600160035c146115c6565b805161010001516119769063ffffffff165b63ffffffff429116111561162b565b6119a14261199a61199161012085510163ffffffff90511690565b63ffffffff1690565b10156116b6565b611a1e6119c660c08351015173ffffffffffffffffffffffffffffffffffffffff1690565b6119f973ffffffffffffffffffffffffffffffffffffffff809216338114908115611caa575b8115611ca0575b50611741565b825160e0015173ffffffffffffffffffffffffffffffffffffffff165b1646146117a6565b611a288151612ae8565b611a89611a846106dc83611a52865173ffffffffffffffffffffffffffffffffffffffff90511690565b73ffffffffffffffffffffffffffffffffffffffff165f52600160205260405f20905f5260205260ff60405f20541690565b61180b565b611aaa600180611aa1845f52600460205260405f2090565b5c161415611870565b604082510151611c8f575b6001611adb611acc835f52600460205260405f2090565b925f52600460205260405f2090565b5c17905d8051604081015115611c8b57611b32611b0f611b71925173ffffffffffffffffffffffffffffffffffffffff1690565b73ffffffffffffffffffffffffffffffffffffffff165f525f60205260405f2090565b82516020015173ffffffffffffffffffffffffffffffffffffffff165b73ffffffffffffffffffffffffffffffffffffffff165f5260205260405f2090565b5481519060408201518091115f14611c395750508051611bd4610f19611bb3611b0f6040850151945173ffffffffffffffffffffffffffffffffffffffff1690565b84516020015173ffffffffffffffffffffffffffffffffffffffff16611b4f565b90555b611c35611c2d60408351015192611b4f6020611c103373ffffffffffffffffffffffffffffffffffffffff165f525f60205260405f2090565b9251015173ffffffffffffffffffffffffffffffffffffffff1690565b91825461193a565b9055565b81611c7f611c646106396020611c8696015173ffffffffffffffffffffffffffffffffffffffff1690565b915173ffffffffffffffffffffffffffffffffffffffff1690565b3091612e3c565b611bd7565b5050565b611c9b61066583612c24565b611ab5565b905030145f6119f3565b801591506119ec565b9190811015611cf35760051b810135907ffffffffffffffffffffffffffffffffffffffffffffffffffffffffffffffe6181360301821215610207570190565b7f4e487b71000000000000000000000000000000000000000000000000000000005f52603260045260245ffd5b35610b36816101e9565b15611d3157565b60646040517f08c379a000000000000000000000000000000000000000000000000000000000815260206004820152602060248201527f4f726465727320617265206e6f7420666f72207468652073616d65207a6f6e656044820152fd5b610b369036906102c2565b15611da157565b60646040517f08c379a000000000000000000000000000000000000000000000000000000000815260206004820152601860248201527f4f7264657220686173206265656e2063616e63656c6c656400000000000000006044820152fd5b15611e0657565b60646040517f08c379a000000000000000000000000000000000000000000000000000000000815260206004820152600f60248201527f5a6f6e65206973206e6f742073657400000000000000000000000000000000006044820152fd5b9061021891611e9082611e768361025b565b73ffffffffffffffffffffffffffffffffffffffff169052565b611ebc611e9f6020830161025b565b73ffffffffffffffffffffffffffffffffffffffff166020840152565b60408101356040830152611ef2611ed56060830161025b565b73ffffffffffffffffffffffffffffffffffffffff166060840152565b60808101356080830152611f28611f0b60a0830161025b565b73ffffffffffffffffffffffffffffffffffffffff1660a0840152565b611f54611f3760c0830161025b565b73ffffffffffffffffffffffffffffffffffffffff1660c0840152565b611f80611f6360e0830161025b565b73ffffffffffffffffffffffffffffffffffffffff1660e0840152565b611f9d610100611f9181840161028e565b63ffffffff1690840152565b611fae610120611f9181840161028e565b611fbc6101408092016102b7565b1515910152565b90357fffffffffffffffffffffffffffffffffffffffffffffffffffffffffffffffe18236030181121561020757016020813591019167ffffffffffffffff821161020757813603831361020757565b601f82602094937fffffffffffffffffffffffffffffffffffffffffffffffffffffffffffffffe093818652868601375f8582860101520116010190565b9496959391929083606087016060885252608086019060808560051b8801019481925f5b8281106120a75750505050509161209991610b369697938683036020880152612013565b926040818503910152612013565b90919293967fffffffffffffffffffffffffffffffffffffffffffffffffffffffffffffff808a820301835287357ffffffffffffffffffffffffffffffffffffffffffffffffffffffffffffffe6186360301811215610207576001918661215992019061213a6101a061211b8385611e64565b610160908061212c83870187611fc3565b929093860152840191612013565b9161214b6101809182810190611fc3565b929091818503910152612013565b976020908101959493019101612075565b6040513d5f823e3d90fd5b1561217c57565b60846040517f08c379a000000000000000000000000000000000000000000000000000000000815260206004820152602860248201527f4f726465722773206f7574707574206173736574732068617665206e6f74206260448201527f65656e20706169640000000000000000000000000000000000000000000000006064820152fd5b9035907fffffffffffffffffffffffffffffffffffffffffffffffffffffffffffffffe181360301821215610207570180359067ffffffffffffffff82116102075760200191813603831361020757565b90610b3693916122648161018093611e64565b816101608201520191612013565b93909291600195600160035d5f85885f5b8983821061247d575050506123ea575b50505050505f5b8181106122ab57505050505f60035d565b806122c86122c36122be87948688611cb3565b611d8f565b612ae8565b6122e86002806122e0845f52600460205260405f2090565b5c1614612175565b6123026106dc82611a526122fd86898b611cb3565b611d20565b61230e575b500161229a565b61234a61070f826106c86123266122fd878a8c611cb3565b73ffffffffffffffffffffffffffffffffffffffff165f52600160205260405f2090565b61236060c061235a848789611cb3565b01611d20565b9061236f6122fd848789611cb3565b907f3fc35899ff3cf87226e044d32f485b1ef6de2cce5635a009226b1659cf9906716123e161239f86898b611cb3565b936123b96123ae888b8d611cb3565b610160810190612200565b73ffffffffffffffffffffffffffffffffffffffff9391846040519586951699169784612251565b0390a45f612307565b73ffffffffffffffffffffffffffffffffffffffff169061240c821515611dff565b813b15610207575f8761245288938397604051998a98899788967f9ab3f3cc00000000000000000000000000000000000000000000000000000000885260048801612051565b03925af18015610cec5761246a575b80808080612293565b80610ce661247792610157565b5f612461565b9091929361249e4661249861063960e061235a888b89611cb3565b146117a6565b73ffffffffffffffffffffffffffffffffffffffff80821690811580156125c4575b15612543575050506125356106dc826125026122c36122be876124ec60c061235a838e61253a9c611cb3565b9a5b6124fc6122fd838389611cb3565b95611cb3565b9073ffffffffffffffffffffffffffffffffffffffff165f52600260205260405f20905f5260205260ff60405f20541690565b611d9a565b01888791612283565b926125026122c36122be878a612535979b6106dc9761253a9a6125716106398a61235a8860c0978893611cb3565b151590816125a9575b50612587575b50506124ee565b61259c6106396125a29361235a87878d611cb3565b14611d2a565b5f80612580565b90506125ba8361235a87878d611cb3565b163014155f61257a565b503082146124c0565b156125d457565b60646040517f08c379a000000000000000000000000000000000000000000000000000000000815260206004820152601760248201527f416d6f756e7420746f207472616e7366657220697320300000000000000000006044820152fd5b604090610b3693928152816020820152019061090a565b9092610b36949360809373ffffffffffffffffffffffffffffffffffffffff80921684521660208301526040820152816060820152019061090a565b1561268c57565b60846040517f08c379a000000000000000000000000000000000000000000000000000000000815260206004820152602c60248201527f4f726465722773206f757470757420617373657473206861766520616c72656160448201527f6479206265656e207061696400000000000000000000000000000000000000006064820152fd5b61271e600160035c146115c6565b6127288151612ae8565b8151610100015161273e9063ffffffff16611967565b6127594261199a61199161012086510163ffffffff90511690565b6127d061277e60c08451015173ffffffffffffffffffffffffffffffffffffffff1690565b6127af73ffffffffffffffffffffffffffffffffffffffff809216338114908115611caa578115611ca05750611741565b835160e0015173ffffffffffffffffffffffffffffffffffffffff16611a16565b6127fa611a846106dc83611a52865173ffffffffffffffffffffffffffffffffffffffff90511690565b61281b600280612812845f52600460205260405f2090565b5c161415612685565b60408251015161293f575b600261283d611acc835f52600460205260405f2090565b5c17905d6080815101518015611c8b5761289b610f1961287a3373ffffffffffffffffffffffffffffffffffffffff165f525f60205260405f2090565b84516060015173ffffffffffffffffffffffffffffffffffffffff16611b4f565b90558051906128ae610140830151151590565b1561290a576102189150516128dd610639606083015173ffffffffffffffffffffffffffffffffffffffff1690565b90608061290160a083015173ffffffffffffffffffffffffffffffffffffffff1690565b91015191612eb8565b611c2d611c3591611b4f6060611c10611b0f60a0608089015198015173ffffffffffffffffffffffffffffffffffffffff1690565b61294b61066583612c24565b612826565b90816020910312610207575190565b9260609273ffffffffffffffffffffffffffffffffffffffff61299893979697168552602085015260806040850152608084019061090a565b931515910152565b156129a757565b60646040517f08c379a000000000000000000000000000000000000000000000000000000000815260206004820152601560248201527f466c617368206c6f616e206e6f742072657061696400000000000000000000006044820152fd5b999592612ad89760c19c9993612ae49b9695612aac98605c8f7fffffffffffffffffffffffffffffffffffffffff000000000000000000000000809a81988280988160609d8e1b1686528c1b1660148501526028840152891b1660488201520152841b16607c8d0152821b1660908b01521b1660a488015260b88701907fffffffff000000000000000000000000000000000000000000000000000000009060e01b169052565b60e01b7fffffffff000000000000000000000000000000000000000000000000000000001660bc850152565b151560f81b60c0830152565b0190565b805173ffffffffffffffffffffffffffffffffffffffff1690612c1e612b25602083015173ffffffffffffffffffffffffffffffffffffffff1690565b612bf2604084015193612b4f606082015173ffffffffffffffffffffffffffffffffffffffff1690565b906080810151612b7660a083015173ffffffffffffffffffffffffffffffffffffffff1690565b60c083015173ffffffffffffffffffffffffffffffffffffffff1660e084015173ffffffffffffffffffffffffffffffffffffffff1691612bbf61010086015163ffffffff1690565b93612be0610140612bd861012089015163ffffffff1690565b970151151590565b966040519b8c9a60208c019e8f612a05565b037fffffffffffffffffffffffffffffffffffffffffffffffffffffffffffffffe08101835282610187565b51902090565b612c316040820151612f6d565b909291612c3d83612f2b565b93612d29612c61855173ffffffffffffffffffffffffffffffffffffffff90511690565b6040519687612c9e602082019283603c917f19457468657265756d205369676e6564204d6573736167653a0a3332000000008252601c8201520190565b0397612cd07fffffffffffffffffffffffffffffffffffffffffffffffffffffffffffffffe0998a8101835282610187565b51902060408051602081018690529081018790527fff0000000000000000000000000000000000000000000000000000000000000060f887901b16606082015260618981018252909290612d249084610187565b612f99565b948515612d39575b505050505090565b909192939450602085015151159485612d5c575b50505050505f80808080612d31565b612e32955090612d24915192612e26612d92612d8c865173ffffffffffffffffffffffffffffffffffffffff1690565b95612ae8565b604051612ddd81612dd1602082019485603c917f19457468657265756d205369676e6564204d6573736167653a0a3332000000008252601c8201520190565b03868101835282610187565b519020956040519788936020850191926041937fff00000000000000000000000000000000000000000000000000000000000000928452602084015260f81b1660408201520190565b03908101855284610187565b5f80808080612d4d565b9290604051927f23b872dd00000000000000000000000000000000000000000000000000000000602085015273ffffffffffffffffffffffffffffffffffffffff809216602485015216604483015260648201526064815260a081019181831067ffffffffffffffff84111761015257610218926040526130b4565b9173ffffffffffffffffffffffffffffffffffffffff604051927fa9059cbb000000000000000000000000000000000000000000000000000000006020850152166024830152604482015260448152608081019181831067ffffffffffffffff84111761015257610218926040526130b4565b6020612f378251612ae8565b910151612c1e60408051809360208201958652612f5d81518092602086860191016108e9565b8101036020810184520182610187565b602081015190606060408201519101515f1a92601b8410612f8a57565b92601b0160ff81116119355792565b612fa38383613155565b50600481959295101561308757159384613064575b508315612fc6575b50505090565b5f92935090829160405161301781612bf260208201947f1626ba7e00000000000000000000000000000000000000000000000000000000998a8752602484015260406044840152606483019061090a565b51915afa9061302461318f565b82613056575b8261303a575b50505f8080612fc0565b9091506020818051810103126102075760200151145f80613030565b91506020825110159161302a565b73ffffffffffffffffffffffffffffffffffffffff83811691161493505f612fb8565b7f4e487b71000000000000000000000000000000000000000000000000000000005f52602160045260245ffd5b5f8073ffffffffffffffffffffffffffffffffffffffff6130ea93169360208151910182865af16130e361318f565b908361324d565b8051908115159182613131575b50506131005750565b602490604051907f5274afe70000000000000000000000000000000000000000000000000000000082526004820152fd5b8192509060209181010312610207576020015161314d8161029f565b155f806130f7565b81519190604183036131855761317e9250602082015190606060408401519301515f1a906131be565b9192909190565b50505f9160029190565b3d156131b9573d906131a0826104d9565b916131ae6040519384610187565b82523d5f602084013e565b606090565b91907f7fffffffffffffffffffffffffffffff5d576e7357a4501ddfe92f46681b20a08411613242579160209360809260ff5f9560405194855216868401526040830152606082015282805260015afa15610cec575f5173ffffffffffffffffffffffffffffffffffffffff81161561323857905f905f90565b505f906001905f90565b5050505f9160039190565b9061328c575080511561326257805190602001fd5b60046040517f1425ea42000000000000000000000000000000000000000000000000000000008152fd5b815115806132e4575b61329d575090565b60249073ffffffffffffffffffffffffffffffffffffffff604051917f9996b315000000000000000000000000000000000000000000000000000000008352166004820152fd5b50803b1561329556fea26469706673582212208cf254826c49d0753f6a0b8e1105c668e4aed234950208b060dde88f4cc87f8b64736f6c63430008180033","linkReferences":{}},"methodIdentifiers":{"balanceOf(address,address)":"f7888aec","cancel(((address,address,uint256,address,uint256,address,address,uint160,uint32,uint32,bool),bytes,bytes))":"2c25b52b","deposit(address,address,uint256,bytes)":"e9c670ad","eip712Domain()":"84b0196e","escrow(((address,address,uint256,address,uint256,address,address,uint160,uint32,uint32,bool),bytes,bytes))":"4b388178","flash(address,address,uint256,bytes,bool)":"e1dfd54a","getOrderHash((address,address,uint256,address,uint256,address,address,uint160,uint32,uint32,bool))":"112f6a76","getSignatureMessage(((address,address,uint256,address,uint256,address,address,uint160,uint32,uint32,bool),bytes,bytes))":"d33a5997","hasSettled(address,bytes32)":"1f487333","isCancelled(address,bytes32)":"85a1208a","move(address,address,uint256,bytes)":"aaeaa99a","release(((address,address,uint256,address,uint256,address,address,uint160,uint32,uint32,bool),bytes,bytes))":"b1e53821","settle(((address,address,uint256,address,uint256,address,address,uint160,uint32,uint32,bool),bytes,bytes)[],bytes,bytes)":"7db7cdd6","verifyOrderSignature(((address,address,uint256,address,uint256,address,address,uint160,uint32,uint32,bool),bytes,bytes))":"836337d4","withdraw(address,address,uint256,bytes)":"f37e8d38"},"id":0}