{
    "abi": [
        {
            "type": "constructor",
            "inputs": [
                {
                    "name": "_owner",
                    "type": "address",
                    "internalType": "address"
                },
                {
                    "name": "_aoriProtocol",
                    "type": "address",
                    "internalType": "address"
                }
            ],
            "stateMutability": "nonpayable"
        },
        {
            "type": "fallback",
            "stateMutability": "payable"
        },
        {
            "type": "receive",
            "stateMutability": "payable"
        },
        {
            "type": "function",
            "name": "afterAoriTrade",
            "inputs": [
                {
                    "name": "matching",
                    "type": "tuple",
                    "internalType": "struct IAoriV2.MatchingDetails",
                    "components": [
                        {
                            "name": "tradeId",
                            "type": "string",
                            "internalType": "string"
                        },
                        {
                            "name": "makerOrder",
                            "type": "tuple",
                            "internalType": "struct IAoriV2.Order",
                            "components": [
                                {
                                    "name": "offerer",
                                    "type": "address",
                                    "internalType": "address"
                                },
                                {
                                    "name": "inputToken",
                                    "type": "address",
                                    "internalType": "address"
                                },
                                {
                                    "name": "inputAmount",
                                    "type": "uint256",
                                    "internalType": "uint256"
                                },
                                {
                                    "name": "outputToken",
                                    "type": "address",
                                    "internalType": "address"
                                },
                                {
                                    "name": "outputAmount",
                                    "type": "uint256",
                                    "internalType": "uint256"
                                },
                                {
                                    "name": "recipient",
                                    "type": "address",
                                    "internalType": "address"
                                },
                                {
                                    "name": "zone",
                                    "type": "address",
                                    "internalType": "address"
                                },
                                {
                                    "name": "chainId",
                                    "type": "uint160",
                                    "internalType": "uint160"
                                },
                                {
                                    "name": "startTime",
                                    "type": "uint32",
                                    "internalType": "uint32"
                                },
                                {
                                    "name": "endTime",
                                    "type": "uint32",
                                    "internalType": "uint32"
                                },
                                {
                                    "name": "toWithdraw",
                                    "type": "bool",
                                    "internalType": "bool"
                                }
                            ]
                        },
                        {
                            "name": "takerOrder",
                            "type": "tuple",
                            "internalType": "struct IAoriV2.Order",
                            "components": [
                                {
                                    "name": "offerer",
                                    "type": "address",
                                    "internalType": "address"
                                },
                                {
                                    "name": "inputToken",
                                    "type": "address",
                                    "internalType": "address"
                                },
                                {
                                    "name": "inputAmount",
                                    "type": "uint256",
                                    "internalType": "uint256"
                                },
                                {
                                    "name": "outputToken",
                                    "type": "address",
                                    "internalType": "address"
                                },
                                {
                                    "name": "outputAmount",
                                    "type": "uint256",
                                    "internalType": "uint256"
                                },
                                {
                                    "name": "recipient",
                                    "type": "address",
                                    "internalType": "address"
                                },
                                {
                                    "name": "zone",
                                    "type": "address",
                                    "internalType": "address"
                                },
                                {
                                    "name": "chainId",
                                    "type": "uint160",
                                    "internalType": "uint160"
                                },
                                {
                                    "name": "startTime",
                                    "type": "uint32",
                                    "internalType": "uint32"
                                },
                                {
                                    "name": "endTime",
                                    "type": "uint32",
                                    "internalType": "uint32"
                                },
                                {
                                    "name": "toWithdraw",
                                    "type": "bool",
                                    "internalType": "bool"
                                }
                            ]
                        },
                        {
                            "name": "makerSignature",
                            "type": "bytes",
                            "internalType": "bytes"
                        },
                        {
                            "name": "takerSignature",
                            "type": "bytes",
                            "internalType": "bytes"
                        },
                        {
                            "name": "feeTag",
                            "type": "string",
                            "internalType": "string"
                        },
                        {
                            "name": "feeRecipient",
                            "type": "address",
                            "internalType": "address"
                        }
                    ]
                },
                {
                    "name": "hookData",
                    "type": "bytes",
                    "internalType": "bytes"
                }
            ],
            "outputs": [
                {
                    "name": "",
                    "type": "bool",
                    "internalType": "bool"
                }
            ],
            "stateMutability": "nonpayable"
        },
        {
            "type": "function",
            "name": "aoriProtocol",
            "inputs": [],
            "outputs": [
                {
                    "name": "",
                    "type": "address",
                    "internalType": "address"
                }
            ],
            "stateMutability": "view"
        },
        {
            "type": "function",
            "name": "beforeAoriTrade",
            "inputs": [
                {
                    "name": "matching",
                    "type": "tuple",
                    "internalType": "struct IAoriV2.MatchingDetails",
                    "components": [
                        {
                            "name": "tradeId",
                            "type": "string",
                            "internalType": "string"
                        },
                        {
                            "name": "makerOrder",
                            "type": "tuple",
                            "internalType": "struct IAoriV2.Order",
                            "components": [
                                {
                                    "name": "offerer",
                                    "type": "address",
                                    "internalType": "address"
                                },
                                {
                                    "name": "inputToken",
                                    "type": "address",
                                    "internalType": "address"
                                },
                                {
                                    "name": "inputAmount",
                                    "type": "uint256",
                                    "internalType": "uint256"
                                },
                                {
                                    "name": "outputToken",
                                    "type": "address",
                                    "internalType": "address"
                                },
                                {
                                    "name": "outputAmount",
                                    "type": "uint256",
                                    "internalType": "uint256"
                                },
                                {
                                    "name": "recipient",
                                    "type": "address",
                                    "internalType": "address"
                                },
                                {
                                    "name": "zone",
                                    "type": "address",
                                    "internalType": "address"
                                },
                                {
                                    "name": "chainId",
                                    "type": "uint160",
                                    "internalType": "uint160"
                                },
                                {
                                    "name": "startTime",
                                    "type": "uint32",
                                    "internalType": "uint32"
                                },
                                {
                                    "name": "endTime",
                                    "type": "uint32",
                                    "internalType": "uint32"
                                },
                                {
                                    "name": "toWithdraw",
                                    "type": "bool",
                                    "internalType": "bool"
                                }
                            ]
                        },
                        {
                            "name": "takerOrder",
                            "type": "tuple",
                            "internalType": "struct IAoriV2.Order",
                            "components": [
                                {
                                    "name": "offerer",
                                    "type": "address",
                                    "internalType": "address"
                                },
                                {
                                    "name": "inputToken",
                                    "type": "address",
                                    "internalType": "address"
                                },
                                {
                                    "name": "inputAmount",
                                    "type": "uint256",
                                    "internalType": "uint256"
                                },
                                {
                                    "name": "outputToken",
                                    "type": "address",
                                    "internalType": "address"
                                },
                                {
                                    "name": "outputAmount",
                                    "type": "uint256",
                                    "internalType": "uint256"
                                },
                                {
                                    "name": "recipient",
                                    "type": "address",
                                    "internalType": "address"
                                },
                                {
                                    "name": "zone",
                                    "type": "address",
                                    "internalType": "address"
                                },
                                {
                                    "name": "chainId",
                                    "type": "uint160",
                                    "internalType": "uint160"
                                },
                                {
                                    "name": "startTime",
                                    "type": "uint32",
                                    "internalType": "uint32"
                                },
                                {
                                    "name": "endTime",
                                    "type": "uint32",
                                    "internalType": "uint32"
                                },
                                {
                                    "name": "toWithdraw",
                                    "type": "bool",
                                    "internalType": "bool"
                                }
                            ]
                        },
                        {
                            "name": "makerSignature",
                            "type": "bytes",
                            "internalType": "bytes"
                        },
                        {
                            "name": "takerSignature",
                            "type": "bytes",
                            "internalType": "bytes"
                        },
                        {
                            "name": "feeTag",
                            "type": "string",
                            "internalType": "string"
                        },
                        {
                            "name": "feeRecipient",
                            "type": "address",
                            "internalType": "address"
                        }
                    ]
                },
                {
                    "name": "hookData",
                    "type": "bytes",
                    "internalType": "bytes"
                }
            ],
            "outputs": [
                {
                    "name": "",
                    "type": "bool",
                    "internalType": "bool"
                }
            ],
            "stateMutability": "nonpayable"
        },
        {
            "type": "function",
            "name": "execute",
            "inputs": [
                {
                    "name": "instructions",
                    "type": "tuple[]",
                    "internalType": "struct Instruction[]",
                    "components": [
                        {
                            "name": "to",
                            "type": "address",
                            "internalType": "address"
                        },
                        {
                            "name": "value",
                            "type": "uint256",
                            "internalType": "uint256"
                        },
                        {
                            "name": "data",
                            "type": "bytes",
                            "internalType": "bytes"
                        }
                    ]
                }
            ],
            "outputs": [],
            "stateMutability": "payable"
        },
        {
            "type": "function",
            "name": "isValidSignature",
            "inputs": [
                {
                    "name": "_hash",
                    "type": "bytes32",
                    "internalType": "bytes32"
                },
                {
                    "name": "_signature",
                    "type": "bytes",
                    "internalType": "bytes"
                }
            ],
            "outputs": [
                {
                    "name": "",
                    "type": "bytes4",
                    "internalType": "bytes4"
                }
            ],
            "stateMutability": "view"
        },
        {
            "type": "function",
            "name": "managers",
            "inputs": [
                {
                    "name": "",
                    "type": "address",
                    "internalType": "address"
                }
            ],
            "outputs": [
                {
                    "name": "",
                    "type": "bool",
                    "internalType": "bool"
                }
            ],
            "stateMutability": "view"
        },
        {
            "type": "function",
            "name": "setAoriProtocol",
            "inputs": [
                {
                    "name": "_aoriProtocol",
                    "type": "address",
                    "internalType": "address"
                }
            ],
            "outputs": [],
            "stateMutability": "nonpayable"
        },
        {
            "type": "function",
            "name": "setManager",
            "inputs": [
                {
                    "name": "_manager",
                    "type": "address",
                    "internalType": "address"
                },
                {
                    "name": "_isManager",
                    "type": "bool",
                    "internalType": "bool"
                }
            ],
            "outputs": [],
            "stateMutability": "nonpayable"
        },
        {
            "type": "function",
            "name": "supportsInterface",
            "inputs": [
                {
                    "name": "_interfaceId",
                    "type": "bytes4",
                    "internalType": "bytes4"
                }
            ],
            "outputs": [
                {
                    "name": "",
                    "type": "bool",
                    "internalType": "bool"
                }
            ],
            "stateMutability": "view"
        },
        {
            "type": "function",
            "name": "withdrawAll",
            "inputs": [
                {
                    "name": "token",
                    "type": "address",
                    "internalType": "address"
                },
                {
                    "name": "recipient",
                    "type": "address",
                    "internalType": "address"
                }
            ],
            "outputs": [],
            "stateMutability": "nonpayable"
        },
        {
            "type": "event",
            "name": "Call",
            "inputs": [
                {
                    "name": "to",
                    "type": "address",
                    "indexed": false,
                    "internalType": "address"
                },
                {
                    "name": "value",
                    "type": "uint256",
                    "indexed": false,
                    "internalType": "uint256"
                },
                {
                    "name": "data",
                    "type": "bytes",
                    "indexed": false,
                    "internalType": "bytes"
                }
            ],
            "anonymous": false
        }
    ],
    "bytecode": {
        "object": "0x6080346100b157601f61138938819003918201601f19168301916001600160401b038311848410176100b65780849260409485528339810103126100b157610052602061004b836100cc565b92016100cc565b9060018060a01b038091169160018060a01b031992600090808583541617825581526001602052600160408083209260ff199383858254161790553081522091825416179055169060025416176002556040516112a890816100e18239f35b600080fd5b634e487b7160e01b600052604160045260246000fd5b51906001600160a01b03821682036100b15756fe60806040526004361015610018575b361561001657005b005b60003560e01c806301ffc9a7146100e057806309cae2c8146100d75780631626ba7e146100ce57806327b9a6e6146100c55780633d4a6079146100bc5780633f707e6b146100b35780636cd2bc88146100aa578063a5e90eee146100a1578063f11b9f15146100985763fdff9b4d0361000e576100936109d1565b61000e565b5061009361097e565b50610093610854565b50610093610732565b50610093610642565b50610093610627565b50610093610602565b506100936104f5565b5061009361020c565b50346101a05760207ffffffffffffffffffffffffffffffffffffffffffffffffffffffffffffffffc3601126101a0576004357fffffffff0000000000000000000000000000000000000000000000000000000081168091036101a057807f3d4a60790000000000000000000000000000000000000000000000000000000060209214908115610176575b506040519015158152f35b7f27b9a6e6000000000000000000000000000000000000000000000000000000009150143861016b565b600080fd5b6004359073ffffffffffffffffffffffffffffffffffffffff821682036101a057565b6024359073ffffffffffffffffffffffffffffffffffffffff821682036101a057565b359073ffffffffffffffffffffffffffffffffffffffff821682036101a057565b50346101a05760407ffffffffffffffffffffffffffffffffffffffffffffffffffffffffffffffffc3601126101a0576102446101a5565b61034b73ffffffffffffffffffffffffffffffffffffffff6102646101c8565b926102a161029c6102953373ffffffffffffffffffffffffffffffffffffffff166000526001602052604060002090565b5460ff1690565b6111c3565b6040517f70a0823100000000000000000000000000000000000000000000000000000000815230600482015260209485939192909116908383602481855afa9283156103be575b60009361038f575b5060006040518096819582947fa9059cbb000000000000000000000000000000000000000000000000000000008452600484016020909392919373ffffffffffffffffffffffffffffffffffffffff60408201951681520152565b03925af18015610382575b61035c57005b8161001692903d1061037b575b6103738183610424565b81019061125d565b503d610369565b61038a610d87565b610356565b6103b0919350843d86116103b7575b6103a88183610424565b81019061124e565b91386102f0565b503d61039e565b6103c6610d87565b6102e8565b507f4e487b7100000000000000000000000000000000000000000000000000000000600052604160045260246000fd5b6060810190811067ffffffffffffffff82111761041757604052565b61041f6103cb565b604052565b90601f7fffffffffffffffffffffffffffffffffffffffffffffffffffffffffffffffe0910116810190811067ffffffffffffffff82111761041757604052565b7fffffffffffffffffffffffffffffffffffffffffffffffffffffffffffffffe0601f60209267ffffffffffffffff81116104a1575b01160190565b6104a96103cb565b61049b565b81601f820112156101a0578035906104c582610465565b926104d36040519485610424565b828452602083830101116101a057816000926020809301838601378301015290565b50346101a05760407ffffffffffffffffffffffffffffffffffffffffffffffffffffffffffffffffc3601126101a05760243567ffffffffffffffff81116101a05761055261054a60209236906004016104ae565b600435610d94565b7fffffffff0000000000000000000000000000000000000000000000000000000060405191168152f35b907ffffffffffffffffffffffffffffffffffffffffffffffffffffffffffffffffc906040828401126101a05760043567ffffffffffffffff928382116101a0576103609082860301126101a05760040192602435908382116101a057806023830112156101a05781600401359384116101a057602484830101116101a0576024019190565b50346101a057602061061d6106163661057c565b9150610ccb565b6040519015158152f35b50346101a057602061061d61063b3661057c565b9150610be5565b5060207ffffffffffffffffffffffffffffffffffffffffffffffffffffffffffffffffc3601126101a05760043567ffffffffffffffff8082116101a057366023830112156101a05781600401359081116101a0573660248260051b840101116101a05733600052600160205260ff60406000205416156106d457610016916106cf916024369201610ac7565b6110ba565b60646040517f08c379a000000000000000000000000000000000000000000000000000000000815260206004820152601a60248201527f4f6e6c792061206d616e616765722063616e20657865637574650000000000006044820152fd5b50346101a05760207ffffffffffffffffffffffffffffffffffffffffffffffffffffffffffffffffc3601126101a05761076a6101a5565b33600052600160205260ff60406000205416156107c6576100169073ffffffffffffffffffffffffffffffffffffffff167fffffffffffffffffffffffff00000000000000000000000000000000000000006002541617600255565b60846040517f08c379a000000000000000000000000000000000000000000000000000000000815260206004820152602b60248201527f4f6e6c7920746865206f776e65722063616e2073657420746865206e6577206160448201527f6f726950726f746f636f6c0000000000000000000000000000000000000000006064820152fd5b801515036101a057565b50346101a05760407ffffffffffffffffffffffffffffffffffffffffffffffffffffffffffffffffc3601126101a05761088c6101a5565b6024356108988161084a565b73ffffffffffffffffffffffffffffffffffffffff806000541633036108fa576100169216600052600160205260406000209060ff7fffffffffffffffffffffffffffffffffffffffffffffffffffffffffffffff0083541691151516179055565b60846040517f08c379a000000000000000000000000000000000000000000000000000000000815260206004820152602160248201527f4f6e6c79206f776e65722063616e2063616c6c20746869732066756e6374696f60448201527f6e000000000000000000000000000000000000000000000000000000000000006064820152fd5b50346101a05760007ffffffffffffffffffffffffffffffffffffffffffffffffffffffffffffffffc3601126101a057602073ffffffffffffffffffffffffffffffffffffffff60025416604051908152f35b50346101a05760207ffffffffffffffffffffffffffffffffffffffffffffffffffffffffffffffffc3601126101a05773ffffffffffffffffffffffffffffffffffffffff610a1e6101a5565b166000526001602052602060ff604060002054166040519015158152f35b15610a4357565b60846040517f08c379a000000000000000000000000000000000000000000000000000000000815260206004820152603460248201527f4f6e6c792061206d616e616765722063616e20666f726365207468652065786560448201527f637574696f6e206f6620746869732074726164650000000000000000000000006064820152fd5b9291909267ffffffffffffffff808511610b77575b8460051b60409384519460208096610af682860182610424565b8099815201928501948286116101a05780935b868510610b1a575050505050505050565b84358681116101a05782016060818603126101a057835191610b3b836103fb565b610b44826101eb565b8352898201358a84015284820135928884116101a057610b68878c958695016104ae565b86820152815201940193610b09565b610b7f6103cb565b610adc565b9080601f830112156101a057816020610b9f93359101610ac7565b90565b9190916040818403126101a05767ffffffffffffffff9281358481116101a05781610bce918401610b84565b9360208301359081116101a057610b9f9201610b84565b908015610cc457326000526001602052610c0660ff60406000205416610a3c565b73ffffffffffffffffffffffffffffffffffffffff600254163303610c405781610c3591610c3b930190610ba2565b506110ba565b600190565b60846040517f08c379a000000000000000000000000000000000000000000000000000000000815260206004820152603160248201527f4f6e6c7920616f726950726f746f636f6c2063616e20696e746572616374207760448201527f697468207468697320636f6e74726163740000000000000000000000000000006064820152fd5b5050600190565b908015610cc457326000526001602052610cec60ff60406000205416610a3c565b73ffffffffffffffffffffffffffffffffffffffff600254163303610d225781610d1b91610c3b930190610ba2565b90506110ba565b60646040517f08c379a000000000000000000000000000000000000000000000000000000000815260206004820152601b60248201527f4f6e6c7920616f726950726f746f636f6c2063616e20747261646500000000006044820152fd5b156101a057565b506040513d6000823e3d90fd5b6020610e9492610da76041825114610d80565b818101519060606040820151910151916000958693841a9285858589610dee8588604051948594859094939260ff6060936080840197845216602083015260408201520152565b838052039060015afa15610f49575b845196604051610e6a81610e3e8a82019485603c917f19457468657265756d205369676e6564204d6573736167653a0a3332000000008252601c8201520190565b037fffffffffffffffffffffffffffffffffffffffffffffffffffffffffffffffe08101835282610424565b51902092604051948594859094939260ff6060936080840197845216602083015260408201520152565b838052039060015afa15610f3c575b610ed261029583519273ffffffffffffffffffffffffffffffffffffffff166000526001602052604060002090565b908115610f07575b50610ee25790565b507f1626ba7e0000000000000000000000000000000000000000000000000000000090565b610f3691506102959073ffffffffffffffffffffffffffffffffffffffff166000526001602052604060002090565b38610eda565b610f44610d87565b610ea3565b610f51610d87565b610dfd565b8051821015610f6a5760209160051b010190565b7f4e487b7100000000000000000000000000000000000000000000000000000000600052603260045260246000fd5b3d15610fc4573d90610faa82610465565b91610fb86040519384610424565b82523d6000602084013e565b606090565b15610fd057565b60646040517f08c379a000000000000000000000000000000000000000000000000000000000815260206004820152602060248201527f43616c6c20746f2065787465726e616c2066756e6374696f6e206661696c65646044820152fd5b919073ffffffffffffffffffffffffffffffffffffffff90949394168252602090818301526060604083015283519384606084015260005b8581106110a6575050507fffffffffffffffffffffffffffffffffffffffffffffffffffffffffffffffe0601f8460006080809697860101520116010190565b818101830151848201608001528201611066565b80519060005b8281106110cc57505050565b7f58920bab8ebe20f458895b68243189a021c51741421c3d98eff715b8e5afe1fa6111156110fa8385610f56565b515173ffffffffffffffffffffffffffffffffffffffff1690565b602090611162826111268688610f56565b5101519260406111586000808361113d8b8d610f56565b51015194855190860189895af1611152610f99565b50610fc9565b519384938461102e565b0390a17fffffffffffffffffffffffffffffffffffffffffffffffffffffffffffffffff8114611194576001016110c0565b7f4e487b7100000000000000000000000000000000000000000000000000000000600052601160045260246000fd5b156111ca57565b60846040517f08c379a000000000000000000000000000000000000000000000000000000000815260206004820152602760248201527f4f6e6c79206f776e6572206f72207468697320636f6e74726163742063616e2060448201527f65786563757465000000000000000000000000000000000000000000000000006064820152fd5b908160209103126101a0575190565b908160209103126101a05751610b9f8161084a56fea26469706673582212205ffde981e816433afa00c6e0138abac073f8cda3ec98eac6a7baf22f8af5cc8864736f6c63430008110033",
        "linkReferences": {}
    },
    "methodIdentifiers": {
        "afterAoriTrade((string,(address,address,uint256,address,uint256,address,address,uint160,uint32,uint32,bool),(address,address,uint256,address,uint256,address,address,uint160,uint32,uint32,bool),bytes,bytes,string,address),bytes)": "27b9a6e6",
        "aoriProtocol()": "f11b9f15",
        "beforeAoriTrade((string,(address,address,uint256,address,uint256,address,address,uint160,uint32,uint32,bool),(address,address,uint256,address,uint256,address,address,uint160,uint32,uint32,bool),bytes,bytes,string,address),bytes)": "3d4a6079",
        "execute((address,uint256,bytes)[])": "3f707e6b",
        "isValidSignature(bytes32,bytes)": "1626ba7e",
        "managers(address)": "fdff9b4d",
        "setAoriProtocol(address)": "6cd2bc88",
        "setManager(address,bool)": "a5e90eee",
        "supportsInterface(bytes4)": "01ffc9a7",
        "withdrawAll(address,address)": "09cae2c8"
    },
    "id": 0
}