{
    "abi": [
        {
            "type": "constructor",
            "inputs": [
                {
                    "name": "_serverSigner",
                    "type": "address",
                    "internalType": "address"
                }
            ],
            "stateMutability": "nonpayable"
        },
        {
            "type": "function",
            "name": "balanceOf",
            "inputs": [
                {
                    "name": "_account",
                    "type": "address",
                    "internalType": "address"
                },
                {
                    "name": "_token",
                    "type": "address",
                    "internalType": "address"
                }
            ],
            "outputs": [
                {
                    "name": "balance",
                    "type": "uint256",
                    "internalType": "uint256"
                }
            ],
            "stateMutability": "view"
        },
        {
            "type": "function",
            "name": "deposit",
            "inputs": [
                {
                    "name": "_account",
                    "type": "address",
                    "internalType": "address"
                },
                {
                    "name": "_token",
                    "type": "address",
                    "internalType": "address"
                },
                {
                    "name": "_amount",
                    "type": "uint256",
                    "internalType": "uint256"
                }
            ],
            "outputs": [],
            "stateMutability": "nonpayable"
        },
        {
            "type": "function",
            "name": "flashLoan",
            "inputs": [
                {
                    "name": "recipient",
                    "type": "address",
                    "internalType": "address"
                },
                {
                    "name": "token",
                    "type": "address",
                    "internalType": "address"
                },
                {
                    "name": "amount",
                    "type": "uint256",
                    "internalType": "uint256"
                },
                {
                    "name": "userData",
                    "type": "bytes",
                    "internalType": "bytes"
                },
                {
                    "name": "receiveToken",
                    "type": "bool",
                    "internalType": "bool"
                }
            ],
            "outputs": [],
            "stateMutability": "nonpayable"
        },
        {
            "type": "function",
            "name": "getMatchingHash",
            "inputs": [
                {
                    "name": "matching",
                    "type": "tuple",
                    "internalType": "struct IAoriV2.MatchingDetails",
                    "components": [
                        {
                            "name": "tradeId",
                            "type": "string",
                            "internalType": "string"
                        },
                        {
                            "name": "makerOrder",
                            "type": "tuple",
                            "internalType": "struct IAoriV2.Order",
                            "components": [
                                {
                                    "name": "offerer",
                                    "type": "address",
                                    "internalType": "address"
                                },
                                {
                                    "name": "inputToken",
                                    "type": "address",
                                    "internalType": "address"
                                },
                                {
                                    "name": "inputAmount",
                                    "type": "uint256",
                                    "internalType": "uint256"
                                },
                                {
                                    "name": "outputToken",
                                    "type": "address",
                                    "internalType": "address"
                                },
                                {
                                    "name": "outputAmount",
                                    "type": "uint256",
                                    "internalType": "uint256"
                                },
                                {
                                    "name": "recipient",
                                    "type": "address",
                                    "internalType": "address"
                                },
                                {
                                    "name": "zone",
                                    "type": "address",
                                    "internalType": "address"
                                },
                                {
                                    "name": "chainId",
                                    "type": "uint160",
                                    "internalType": "uint160"
                                },
                                {
                                    "name": "startTime",
                                    "type": "uint32",
                                    "internalType": "uint32"
                                },
                                {
                                    "name": "endTime",
                                    "type": "uint32",
                                    "internalType": "uint32"
                                },
                                {
                                    "name": "toWithdraw",
                                    "type": "bool",
                                    "internalType": "bool"
                                }
                            ]
                        },
                        {
                            "name": "takerOrder",
                            "type": "tuple",
                            "internalType": "struct IAoriV2.Order",
                            "components": [
                                {
                                    "name": "offerer",
                                    "type": "address",
                                    "internalType": "address"
                                },
                                {
                                    "name": "inputToken",
                                    "type": "address",
                                    "internalType": "address"
                                },
                                {
                                    "name": "inputAmount",
                                    "type": "uint256",
                                    "internalType": "uint256"
                                },
                                {
                                    "name": "outputToken",
                                    "type": "address",
                                    "internalType": "address"
                                },
                                {
                                    "name": "outputAmount",
                                    "type": "uint256",
                                    "internalType": "uint256"
                                },
                                {
                                    "name": "recipient",
                                    "type": "address",
                                    "internalType": "address"
                                },
                                {
                                    "name": "zone",
                                    "type": "address",
                                    "internalType": "address"
                                },
                                {
                                    "name": "chainId",
                                    "type": "uint160",
                                    "internalType": "uint160"
                                },
                                {
                                    "name": "startTime",
                                    "type": "uint32",
                                    "internalType": "uint32"
                                },
                                {
                                    "name": "endTime",
                                    "type": "uint32",
                                    "internalType": "uint32"
                                },
                                {
                                    "name": "toWithdraw",
                                    "type": "bool",
                                    "internalType": "bool"
                                }
                            ]
                        },
                        {
                            "name": "makerSignature",
                            "type": "bytes",
                            "internalType": "bytes"
                        },
                        {
                            "name": "takerSignature",
                            "type": "bytes",
                            "internalType": "bytes"
                        },
                        {
                            "name": "feeTag",
                            "type": "string",
                            "internalType": "string"
                        },
                        {
                            "name": "feeRecipient",
                            "type": "address",
                            "internalType": "address"
                        }
                    ]
                }
            ],
            "outputs": [
                {
                    "name": "matchingHash",
                    "type": "bytes32",
                    "internalType": "bytes32"
                }
            ],
            "stateMutability": "view"
        },
        {
            "type": "function",
            "name": "getOrderHash",
            "inputs": [
                {
                    "name": "order",
                    "type": "tuple",
                    "internalType": "struct IAoriV2.Order",
                    "components": [
                        {
                            "name": "offerer",
                            "type": "address",
                            "internalType": "address"
                        },
                        {
                            "name": "inputToken",
                            "type": "address",
                            "internalType": "address"
                        },
                        {
                            "name": "inputAmount",
                            "type": "uint256",
                            "internalType": "uint256"
                        },
                        {
                            "name": "outputToken",
                            "type": "address",
                            "internalType": "address"
                        },
                        {
                            "name": "outputAmount",
                            "type": "uint256",
                            "internalType": "uint256"
                        },
                        {
                            "name": "recipient",
                            "type": "address",
                            "internalType": "address"
                        },
                        {
                            "name": "zone",
                            "type": "address",
                            "internalType": "address"
                        },
                        {
                            "name": "chainId",
                            "type": "uint160",
                            "internalType": "uint160"
                        },
                        {
                            "name": "startTime",
                            "type": "uint32",
                            "internalType": "uint32"
                        },
                        {
                            "name": "endTime",
                            "type": "uint32",
                            "internalType": "uint32"
                        },
                        {
                            "name": "toWithdraw",
                            "type": "bool",
                            "internalType": "bool"
                        }
                    ]
                }
            ],
            "outputs": [
                {
                    "name": "orderHash",
                    "type": "bytes32",
                    "internalType": "bytes32"
                }
            ],
            "stateMutability": "view"
        },
        {
            "type": "function",
            "name": "getTakerFee",
            "inputs": [],
            "outputs": [
                {
                    "name": "feeRecipient",
                    "type": "address",
                    "internalType": "address"
                },
                {
                    "name": "feeInBips",
                    "type": "uint256",
                    "internalType": "uint256"
                }
            ],
            "stateMutability": "view"
        },
        {
            "type": "function",
            "name": "hasOrderSettled",
            "inputs": [
                {
                    "name": "orderHash",
                    "type": "bytes32",
                    "internalType": "bytes32"
                }
            ],
            "outputs": [
                {
                    "name": "settled",
                    "type": "bool",
                    "internalType": "bool"
                }
            ],
            "stateMutability": "view"
        },
        {
            "type": "function",
            "name": "setTakerFee",
            "inputs": [
                {
                    "name": "_newFeeRecipient",
                    "type": "address",
                    "internalType": "address"
                },
                {
                    "name": "_newFeeInBips",
                    "type": "uint256",
                    "internalType": "uint256"
                }
            ],
            "outputs": [],
            "stateMutability": "nonpayable"
        },
        {
            "type": "function",
            "name": "settleOrders",
            "inputs": [
                {
                    "name": "matching",
                    "type": "tuple",
                    "internalType": "struct IAoriV2.MatchingDetails",
                    "components": [
                        {
                            "name": "tradeId",
                            "type": "string",
                            "internalType": "string"
                        },
                        {
                            "name": "makerOrder",
                            "type": "tuple",
                            "internalType": "struct IAoriV2.Order",
                            "components": [
                                {
                                    "name": "offerer",
                                    "type": "address",
                                    "internalType": "address"
                                },
                                {
                                    "name": "inputToken",
                                    "type": "address",
                                    "internalType": "address"
                                },
                                {
                                    "name": "inputAmount",
                                    "type": "uint256",
                                    "internalType": "uint256"
                                },
                                {
                                    "name": "outputToken",
                                    "type": "address",
                                    "internalType": "address"
                                },
                                {
                                    "name": "outputAmount",
                                    "type": "uint256",
                                    "internalType": "uint256"
                                },
                                {
                                    "name": "recipient",
                                    "type": "address",
                                    "internalType": "address"
                                },
                                {
                                    "name": "zone",
                                    "type": "address",
                                    "internalType": "address"
                                },
                                {
                                    "name": "chainId",
                                    "type": "uint160",
                                    "internalType": "uint160"
                                },
                                {
                                    "name": "startTime",
                                    "type": "uint32",
                                    "internalType": "uint32"
                                },
                                {
                                    "name": "endTime",
                                    "type": "uint32",
                                    "internalType": "uint32"
                                },
                                {
                                    "name": "toWithdraw",
                                    "type": "bool",
                                    "internalType": "bool"
                                }
                            ]
                        },
                        {
                            "name": "takerOrder",
                            "type": "tuple",
                            "internalType": "struct IAoriV2.Order",
                            "components": [
                                {
                                    "name": "offerer",
                                    "type": "address",
                                    "internalType": "address"
                                },
                                {
                                    "name": "inputToken",
                                    "type": "address",
                                    "internalType": "address"
                                },
                                {
                                    "name": "inputAmount",
                                    "type": "uint256",
                                    "internalType": "uint256"
                                },
                                {
                                    "name": "outputToken",
                                    "type": "address",
                                    "internalType": "address"
                                },
                                {
                                    "name": "outputAmount",
                                    "type": "uint256",
                                    "internalType": "uint256"
                                },
                                {
                                    "name": "recipient",
                                    "type": "address",
                                    "internalType": "address"
                                },
                                {
                                    "name": "zone",
                                    "type": "address",
                                    "internalType": "address"
                                },
                                {
                                    "name": "chainId",
                                    "type": "uint160",
                                    "internalType": "uint160"
                                },
                                {
                                    "name": "startTime",
                                    "type": "uint32",
                                    "internalType": "uint32"
                                },
                                {
                                    "name": "endTime",
                                    "type": "uint32",
                                    "internalType": "uint32"
                                },
                                {
                                    "name": "toWithdraw",
                                    "type": "bool",
                                    "internalType": "bool"
                                }
                            ]
                        },
                        {
                            "name": "makerSignature",
                            "type": "bytes",
                            "internalType": "bytes"
                        },
                        {
                            "name": "takerSignature",
                            "type": "bytes",
                            "internalType": "bytes"
                        },
                        {
                            "name": "feeTag",
                            "type": "string",
                            "internalType": "string"
                        },
                        {
                            "name": "feeRecipient",
                            "type": "address",
                            "internalType": "address"
                        }
                    ]
                },
                {
                    "name": "serverSignature",
                    "type": "bytes",
                    "internalType": "bytes"
                },
                {
                    "name": "hookData",
                    "type": "bytes",
                    "internalType": "bytes"
                }
            ],
            "outputs": [],
            "stateMutability": "payable"
        },
        {
            "type": "function",
            "name": "signatureIntoComponents",
            "inputs": [
                {
                    "name": "signature",
                    "type": "bytes",
                    "internalType": "bytes"
                }
            ],
            "outputs": [
                {
                    "name": "v",
                    "type": "uint8",
                    "internalType": "uint8"
                },
                {
                    "name": "r",
                    "type": "bytes32",
                    "internalType": "bytes32"
                },
                {
                    "name": "s",
                    "type": "bytes32",
                    "internalType": "bytes32"
                }
            ],
            "stateMutability": "pure"
        },
        {
            "type": "function",
            "name": "withFee",
            "inputs": [
                {
                    "name": "amount",
                    "type": "uint256",
                    "internalType": "uint256"
                },
                {
                    "name": "feeInBips",
                    "type": "uint256",
                    "internalType": "uint256"
                }
            ],
            "outputs": [
                {
                    "name": "",
                    "type": "uint256",
                    "internalType": "uint256"
                }
            ],
            "stateMutability": "view"
        },
        {
            "type": "function",
            "name": "withdraw",
            "inputs": [
                {
                    "name": "_token",
                    "type": "address",
                    "internalType": "address"
                },
                {
                    "name": "_amount",
                    "type": "uint256",
                    "internalType": "uint256"
                }
            ],
            "outputs": [],
            "stateMutability": "nonpayable"
        },
        {
            "type": "function",
            "name": "withoutFee",
            "inputs": [
                {
                    "name": "amount",
                    "type": "uint256",
                    "internalType": "uint256"
                },
                {
                    "name": "feeInBips",
                    "type": "uint256",
                    "internalType": "uint256"
                }
            ],
            "outputs": [
                {
                    "name": "",
                    "type": "uint256",
                    "internalType": "uint256"
                }
            ],
            "stateMutability": "view"
        },
        {
            "type": "event",
            "name": "FeeReceived",
            "inputs": [
                {
                    "name": "feeRecipient",
                    "type": "address",
                    "indexed": true,
                    "internalType": "address"
                },
                {
                    "name": "feeTag",
                    "type": "string",
                    "indexed": true,
                    "internalType": "string"
                },
                {
                    "name": "inputToken",
                    "type": "address",
                    "indexed": false,
                    "internalType": "address"
                },
                {
                    "name": "inputAmount",
                    "type": "uint256",
                    "indexed": false,
                    "internalType": "uint256"
                },
                {
                    "name": "outputToken",
                    "type": "address",
                    "indexed": false,
                    "internalType": "address"
                },
                {
                    "name": "outputAmount",
                    "type": "uint256",
                    "indexed": false,
                    "internalType": "uint256"
                }
            ],
            "anonymous": false
        },
        {
            "type": "event",
            "name": "OrdersSettled",
            "inputs": [
                {
                    "name": "tradeId",
                    "type": "string",
                    "indexed": true,
                    "internalType": "string"
                },
                {
                    "name": "maker",
                    "type": "address",
                    "indexed": true,
                    "internalType": "address"
                },
                {
                    "name": "taker",
                    "type": "address",
                    "indexed": true,
                    "internalType": "address"
                },
                {
                    "name": "matchingHash",
                    "type": "bytes32",
                    "indexed": false,
                    "internalType": "bytes32"
                },
                {
                    "name": "makerOrderHash",
                    "type": "bytes32",
                    "indexed": false,
                    "internalType": "bytes32"
                },
                {
                    "name": "takerOrderHash",
                    "type": "bytes32",
                    "indexed": false,
                    "internalType": "bytes32"
                },
                {
                    "name": "zone",
                    "type": "address",
                    "indexed": false,
                    "internalType": "address"
                },
                {
                    "name": "chainId",
                    "type": "uint160",
                    "indexed": false,
                    "internalType": "uint160"
                }
            ],
            "anonymous": false
        },
        {
            "type": "error",
            "name": "AddressEmptyCode",
            "inputs": [
                {
                    "name": "target",
                    "type": "address",
                    "internalType": "address"
                }
            ]
        },
        {
            "type": "error",
            "name": "AddressInsufficientBalance",
            "inputs": [
                {
                    "name": "account",
                    "type": "address",
                    "internalType": "address"
                }
            ]
        },
        {
            "type": "error",
            "name": "FailedInnerCall",
            "inputs": []
        },
        {
            "type": "error",
            "name": "SafeERC20FailedOperation",
            "inputs": [
                {
                    "name": "token",
                    "type": "address",
                    "internalType": "address"
                }
            ]
        }
    ],
    "bytecode": {
        "object": "0x60a034620000c857601f6200360c38819003918201601f19168301916001600160401b03831184841017620000cd57808492602094604052833981010312620000c857516001600160a01b038116808203620000c8571562000077576080526040516135289081620000e4823960805181610f6d0152f35b60405162461bcd60e51b8152602060048201526024808201527f536572766572207369676e65722063616e6e6f74206265207a65726f206164646044820152637265737360e01b6064820152608490fd5b600080fd5b634e487b7160e01b600052604160045260246000fdfe60806040526004361015610013575b600080fd5b60003560e01c8063112f6a76146101175780631749c0161461010e5780633394177b146101055780637a54ff25146100fc5780638340f549146100f357806388661f9a146100ea578063b4ec369f146100e1578063d23cc5af146100d8578063e3e3f281146100cf578063efb1d54c146100c6578063f3fef3a3146100bd578063f7888aec146100b45763ff628b46146100ac57600080fd5b61000e611b9b565b5061000e611afd565b5061000e611918565b5061000e610af9565b5061000e610a1b565b5061000e610861565b5061000e6107f1565b5061000e6106f9565b5061000e610536565b5061000e6104df565b5061000e610480565b5061000e610435565b5061000e610366565b507f4e487b7100000000000000000000000000000000000000000000000000000000600052604160045260246000fd5b67ffffffffffffffff811161016457604052565b61016c610120565b604052565b90601f7fffffffffffffffffffffffffffffffffffffffffffffffffffffffffffffffe0910116810190811067ffffffffffffffff82111761016457604052565b60405190610160820182811067ffffffffffffffff82111761016457604052565b73ffffffffffffffffffffffffffffffffffffffff81160361000e57565b600435906101fe826101d3565b565b602435906101fe826101d3565b606435906101fe826101d3565b60a435906101fe826101d3565b60c435906101fe826101d3565b60e435906101fe826101d3565b35906101fe826101d3565b63ffffffff81160361000e57565b61010435906101fe8261024c565b61012435906101fe8261024c565b35906101fe8261024c565b8015150361000e57565b61014435906101fe82610281565b35906101fe82610281565b91908261016091031261000e576102b96101b2565b916102c381610241565b83526102d160208201610241565b6020840152604081013560408401526102ec60608201610241565b60608401526080810135608084015261030760a08201610241565b60a084015261031860c08201610241565b60c084015261032960e08201610241565b60e084015261010061033c818301610276565b9084015261012061034e818301610276565b90840152610360610140809201610299565b90830152565b503461000e576101607ffffffffffffffffffffffffffffffffffffffffffffffffffffffffffffffffc36011261000e57602061042d6103a46101b2565b6103ac6101f1565b81526103b6610200565b8382015260443560408201526103ca61020d565b606082015260843560808201526103df61021a565b60a08201526103ec610227565b60c08201526103f9610234565b60e082015261040661025a565b610100820152610414610268565b61012082015261042261028b565b610140820152612ea3565b604051908152f35b503461000e5760407ffffffffffffffffffffffffffffffffffffffffffffffffffffffffffffffffc36011261000e57602061042d602435600435612d4c565b600091031261000e57565b503461000e5760007ffffffffffffffffffffffffffffffffffffffffffffffffffffffffffffffffc36011261000e576002546003546040805173ffffffffffffffffffffffffffffffffffffffff9093168352602083019190915290f35b503461000e5760207ffffffffffffffffffffffffffffffffffffffffffffffffffffffffffffffffc36011261000e576020600160ff6004358060081c60005260008452161b604060002054161515604051908152f35b503461000e5760607ffffffffffffffffffffffffffffffffffffffffffffffffffffffffffffffffc36011261000e57600435610572816101d3565b61067e610676602435610584816101d3565b6040517f70a08231000000000000000000000000000000000000000000000000000000008082523060048301526106519161062a9160209073ffffffffffffffffffffffffffffffffffffffff8616908284602481855afa9384156106dd575b6000946106bc575b5082906105fd604435303386613107565b60405190815230600482015291829060249082905afa9182156106af575b600092610682575b50506127a6565b9473ffffffffffffffffffffffffffffffffffffffff166000526001602052604060002090565b9073ffffffffffffffffffffffffffffffffffffffff16600052602052604060002090565b9182546127c5565b9055005b6106a19250803d106106a8575b6106998183610171565b810190612bd4565b3880610623565b503d61068f565b6106b76127e7565b61061b565b839194506106d690823d84116106a8576106998183610171565b93906105ec565b6106e56127e7565b6105e4565b908161036091031261000e5790565b503461000e5760207ffffffffffffffffffffffffffffffffffffffffffffffffffffffffffffffffc36011261000e5760043567ffffffffffffffff811161000e5761042d61074e60209236906004016106ea565b612fdf565b7fffffffffffffffffffffffffffffffffffffffffffffffffffffffffffffffe0601f60209267ffffffffffffffff811161078f575b01160190565b610797610120565b610789565b9291926107a882610753565b916107b66040519384610171565b82948184528183011161000e578281602093846000960137010152565b9080601f8301121561000e578160206107ee9335910161079c565b90565b503461000e5760207ffffffffffffffffffffffffffffffffffffffffffffffffffffffffffffffffc36011261000e5760043567ffffffffffffffff811161000e5761084b61084660609236906004016107d3565b612d88565b9060ff6040519316835260208301526040820152f35b503461000e5760407ffffffffffffffffffffffffffffffffffffffffffffffffffffffffffffffffc36011261000e5760043561089d816101d3565b60243573ffffffffffffffffffffffffffffffffffffffff8216156109985760648110156109145761090d6109129273ffffffffffffffffffffffffffffffffffffffff167fffffffffffffffffffffffff00000000000000000000000000000000000000006002541617600255565b600355565b005b60846040517f08c379a000000000000000000000000000000000000000000000000000000000815260206004820152602560248201527f46656520696e20626970732063616e6e6f74206265206772656174657220746860448201527f616e2031250000000000000000000000000000000000000000000000000000006064820152fd5b60846040517f08c379a0000000000000000000000000000000000000000000000000000000008152602060048201526024808201527f46656520726563697069656e742063616e6e6f74206265207a65726f2061646460448201527f72657373000000000000000000000000000000000000000000000000000000006064820152fd5b503461000e5760407ffffffffffffffffffffffffffffffffffffffffffffffffffffffffffffffffc36011261000e5761271060043581810290801590820483141715610abe575b6024358201809211610ab1575b8115610a825760209160405191048152f35b7f4e487b7100000000000000000000000000000000000000000000000000000000600052601260045260246000fd5b610ab9612776565b610a70565b610ac6612776565b610a63565b9181601f8401121561000e5782359167ffffffffffffffff831161000e576020838186019501011161000e57565b5060607ffffffffffffffffffffffffffffffffffffffffffffffffffffffffffffffffc36011261000e5767ffffffffffffffff60043581811161000e57610b459036906004016106ea565b9060243581811161000e57610b5e903690600401610acb565b9060443592831161000e578392610b79903690600401610acb565b9290610b886101208601611e22565b429063ffffffff161115610b9b90611e2c565b42610ba96102808701611e22565b63ffffffff161115610bba90611eb7565b42610bc86101408701611e22565b63ffffffff161015610bd990611f42565b42610be76102a08701611e22565b63ffffffff161015610bf890611fcd565b610c056101008601612058565b610c126102608701612058565b73ffffffffffffffffffffffffffffffffffffffff16610c489173ffffffffffffffffffffffffffffffffffffffff1614612062565b610c556101008601612058565b610c769073ffffffffffffffffffffffffffffffffffffffff1646146120ed565b610c8260e08601612058565b610c8f6102408701612058565b73ffffffffffffffffffffffffffffffffffffffff16610cc59173ffffffffffffffffffffffffffffffffffffffff1614612178565b610cd160e08601612058565b610cf29073ffffffffffffffffffffffffffffffffffffffff163014612203565b610cff36602087016102a4565b610d0890612ea3565b93610d173661018088016102a4565b610d2090612ea3565b918286886060810135151599610f6b610e9a6108467fe9b9452cf2ec20301e34e65510b55e7c969189adae76569786a523c69be2d6e59b73ffffffffffffffffffffffffffffffffffffffff9b6113539f610e8e610e85610f969b610e66610e89610e85610f919e610e66610ea39f610e93996118a1575b6101c081013561179d575b610df8610db260408301612058565b73ffffffffffffffffffffffffffffffffffffffff610df0610dd76101e08601612058565b73ffffffffffffffffffffffffffffffffffffffff1690565b9116146123f5565b610e34610e0760808301612058565b73ffffffffffffffffffffffffffffffffffffffff610e2c610dd76101a08601612058565b911614612480565b610e496060820135610200830135111561250b565b610e5f60035460a06101c0840135930135612d4c565b1115612596565b60ff6001918060081c6000526000602052161b60406000205416151590565b1590565b612621565b612686565b369161079c565b94909193612fdf565b90610f5f6040519283610ee4602082019283603c917f19457468657265756d205369676e6564204d6573736167653a0a3332000000008252601c8201520190565b0393610f167fffffffffffffffffffffffffffffffffffffffffffffffffffffffffffffffe095868101835282610171565b519020946040519687936020850191926041937fff00000000000000000000000000000000000000000000000000000000000000928452602084015260f81b1660408201520190565b03908101845283610171565b7f00000000000000000000000000000000000000000000000000000000000000006132f9565b6126eb565b610fb9868060081c6000526000602052600160ff604060002092161b8154179055565b610fdc838060081c6000526000602052600160ff604060002092161b8154179055565b611012610fec6101808a01612058565b73ffffffffffffffffffffffffffffffffffffffff166000526001602052604060002090565b61104d6101c08a0135916110296101a08c01612058565b73ffffffffffffffffffffffffffffffffffffffff16600052602052604060002090565b541061176f57611073611066610fec6101808b01612058565b6110296101a08b01612058565b6110836101c08a013582546127a6565b90555b611096610e856101608a016127bb565b15611746576110b96110ad610fec60c08b01612058565b61102960808b01612058565b6110c860a08a013582546127c5565b90555b6110d760208901612058565b3b151580611690575b6115f0575b6110f4610fec60208a01612058565b61110960608a01359161102960408c01612058565b54106115bf5761112d611121610fec60208b01612058565b61102960408b01612058565b61113c60608a013582546127a6565b90555b61114f610e856102c08a016127bb565b1561158d57611174611167610fec6102208b01612058565b6110296101e08b01612058565b6111846102008a013582546127c5565b90555b60035480611544575b50610200880135606089013511611507575b6003546111b38160a08b0135612d4c565b6101c08a0135116114c1575b50611297887ff0cc2afd53c1c049bed798781c8b04fa99891b75feb5cebfdd8289d6c9ee438d866111f36103408401612058565b61120161032085018561228e565b959061120f60408701612058565b9561125861122661020083013560608401356127a6565b9861125261123660808501612058565b936101c061124a60035460a0840135612d4c565b9101356127a6565b93612b5a565b9760405195869516978590606092959493608083019673ffffffffffffffffffffffffffffffffffffffff809316845260208401521660408201520152565b0390a3876112a760208201612058565b3b15158061140b575b611358575b6112c2925080915061228e565b95906112d060208901612058565b976112de6101808201612058565b9361130b6112eb83612fdf565b996113056101006112fe60e08701612058565b9501612058565b94612b5a565b604080519a8b5260208b01999099529789015273ffffffffffffffffffffffffffffffffffffffff9081166060890152166080870152908216959091169390819060a0820190565b0390a4005b6113c7926113ad92611373610dd7610dd76020809601612058565b9060008c604051968795869485937f27b9a6e6000000000000000000000000000000000000000000000000000000008552600485016129e2565b03925af19081156113fe575b6000916113cf575b50612b6f565b3880876112b5565b6113f1915060203d6020116113f7575b6113e98183610171565b8101906127d2565b386113c1565b503d6113df565b6114066127e7565b6113b9565b5061141e610dd7610dd760208401612058565b602060405180927f01ffc9a7000000000000000000000000000000000000000000000000000000008252818061147b60048201907f27b9a6e600000000000000000000000000000000000000000000000000000000602083019252565b03915afa9081156114b4575b600091611495575b506112b0565b6114ae915060203d6020116113f7576113e98183610171565b3861148f565b6114bc6127e7565b611487565b6114d26114dd9160a08b0135612d4c565b6101c08a01356127a6565b6114ff6106766114f3610fec6103408d01612058565b61102960808d01612058565b9055386111bf565b61151a61020089013560608a01356127a6565b61153d610676611530610fec6103408d01612058565b6110296101e08d01612058565b90556111a2565b61155d9060a08a0135906115589082612d4c565b6127a6565b6115856106766114f3610fec60025473ffffffffffffffffffffffffffffffffffffffff1690565b905538611190565b6115ba6115a0610dd76101e08b01612058565b6102008a0135906115b46102208c01612058565b906130a0565b611187565b6115eb6115d1610dd760408b01612058565b60608a01359030906115e560208d01612058565b90613107565b61113f565b61165f6116456020848b85600061160e610dd7610dd7878601612058565b92604051968795869485937f3d4a6079000000000000000000000000000000000000000000000000000000008552600485016129e2565b03925af1908115611683575b600091611664575b50612af5565b6110e5565b61167d915060203d6020116113f7576113e98183610171565b38611659565b61168b6127e7565b611651565b506116a3610dd7610dd760208b01612058565b602060405180927f01ffc9a7000000000000000000000000000000000000000000000000000000008252818061170060048201907f3d4a607900000000000000000000000000000000000000000000000000000000602083019252565b03915afa908115611739575b60009161171a575b506110e0565b611733915060203d6020116113f7576113e98183610171565b38611714565b6117416127e7565b61170c565b61176a611758610dd760808b01612058565b60a08a0135906115b460c08c01612058565b6110cb565b611798611782610dd76101a08b01612058565b6101c08a01359030906115e56101808d01612058565b611086565b61189c6118976117b7610846610e9361030086018661228e565b91906118928c6117ca6101808901612058565b92611886604051928361180b602082019283603c917f19457468657265756d205369676e6564204d6573736167653a0a3332000000008252601c8201520190565b039361183d7fffffffffffffffffffffffffffffffffffffffffffffffffffffffffffffffe095868101835282610171565b519020956040519788936020850191926041937fff00000000000000000000000000000000000000000000000000000000000000928452602084015260f81b1660408201520190565b03908101855284610171565b6132f9565b61236a565b610da3565b61191361190e6118bb610846610e936102e086018661228e565b91906118926118cc60208801612058565b91604051906118868b8361180b602082019283603c917f19457468657265756d205369676e6564204d6573736167653a0a3332000000008252601c8201520190565b6122df565b610d98565b503461000e5760407ffffffffffffffffffffffffffffffffffffffffffffffffffffffffffffffffc36011261000e57600435611954816101d3565b61196b611966610e8560045460ff1690565b612be3565b61199b60017fffffffffffffffffffffffffffffffffffffffffffffffffffffffffffffff006004541617600455565b6040517f70a0823100000000000000000000000000000000000000000000000000000000808252306004830152611a7691611a6e91611a439160209173ffffffffffffffffffffffffffffffffffffffff87169083908184602481865afa938415611af0575b600094611ad1575b50611a1760243533856130a0565b60405190815230600482015291829060249082905afa928315611ac4575b600093611aa55750506127a6565b926106513373ffffffffffffffffffffffffffffffffffffffff166000526001602052604060002090565b9182546127a6565b90556109127fffffffffffffffffffffffffffffffffffffffffffffffffffffffffffffff0060045416600455565b611abc929350803d106106a8576106998183610171565b903880610623565b611acc6127e7565b611a35565b611ae9919450823d84116106a8576106998183610171565b9238611a09565b611af86127e7565b611a01565b503461000e5760407ffffffffffffffffffffffffffffffffffffffffffffffffffffffffffffffffc36011261000e576020611b92600435611b3e816101d3565b73ffffffffffffffffffffffffffffffffffffffff60243591611b60836101d3565b166000526001835260406000209073ffffffffffffffffffffffffffffffffffffffff16600052602052604060002090565b54604051908152f35b503461000e5760a07ffffffffffffffffffffffffffffffffffffffffffffffffffffffffffffffffc36011261000e57600435611bd7816101d3565b60243590611be4826101d3565b6044359160643567ffffffffffffffff811161000e57611c089036906004016107d3565b92608435611c1581610281565b6040517f70a0823100000000000000000000000000000000000000000000000000000000808252306004830152909460209473ffffffffffffffffffffffffffffffffffffffff8082169592919087896024818a5afa988915611e15575b600099611df6575b508515611db657611c8d8484896130a0565b821694853b1561000e57611cdb6000828a986109129d836040518096819582947fe84afff60000000000000000000000000000000000000000000000000000000084528d8c60048601612ca6565b03925af18015611da9575b611d90575b5015611d58575090611cff91309086613107565b60405190815230600482015291829060249082905afa918215611d4b575b600092611d2e575b50501015612ce7565b611d449250803d106106a8576106998183610171565b3880611d25565b611d536127e7565b611d1d565b611a6e90610651611d899373ffffffffffffffffffffffffffffffffffffffff166000526001602052604060002090565b9055611cff565b80611d9d611da392610150565b80610475565b38611ceb565b611db16127e7565b611ce6565b611de4826106518573ffffffffffffffffffffffffffffffffffffffff166000526001602052604060002090565b611def8582546127c5565b9055611c8d565b611e0e919950883d8a116106a8576106998183610171565b9738611c7b565b611e1d6127e7565b611c73565b356107ee8161024c565b15611e3357565b60846040517f08c379a000000000000000000000000000000000000000000000000000000000815260206004820152602760248201527f4d616b6572206f726465722073746172742074696d6520697320696e2074686560448201527f20667574757265000000000000000000000000000000000000000000000000006064820152fd5b15611ebe57565b60846040517f08c379a000000000000000000000000000000000000000000000000000000000815260206004820152602760248201527f54616b6572206f726465722073746172742074696d6520697320696e2074686560448201527f20667574757265000000000000000000000000000000000000000000000000006064820152fd5b15611f4957565b60846040517f08c379a000000000000000000000000000000000000000000000000000000000815260206004820152602760248201527f4d616b6572206f7264657220656e642074696d652068617320616c726561647960448201527f20706173736564000000000000000000000000000000000000000000000000006064820152fd5b15611fd457565b60846040517f08c379a000000000000000000000000000000000000000000000000000000000815260206004820152602760248201527f54616b6572206f7264657220656e642074696d652068617320616c726561647960448201527f20706173736564000000000000000000000000000000000000000000000000006064820152fd5b356107ee816101d3565b1561206957565b60846040517f08c379a000000000000000000000000000000000000000000000000000000000815260206004820152603a60248201527f4d616b6572206f72646572277320636861696e696420646f6573206e6f74206d60448201527f617463682074616b6572206f72646572277320636861696e69640000000000006064820152fd5b156120f457565b60846040517f08c379a000000000000000000000000000000000000000000000000000000000815260206004820152602e60248201527f4f72646572277320636861696e696420646f6573206e6f74206d61746368206360448201527f757272656e7420636861696e69640000000000000000000000000000000000006064820152fd5b1561217f57565b60846040517f08c379a000000000000000000000000000000000000000000000000000000000815260206004820152603460248201527f4d616b6572206f726465722773207a6f6e6520646f6573206e6f74206d61746360448201527f682074616b6572206f726465722773207a6f6e650000000000000000000000006064820152fd5b1561220a57565b60846040517f08c379a000000000000000000000000000000000000000000000000000000000815260206004820152602160248201527f5a6f6e6520646f6573206e6f74206d61746368207468697320636f6e7472616360448201527f74000000000000000000000000000000000000000000000000000000000000006064820152fd5b9035907fffffffffffffffffffffffffffffffffffffffffffffffffffffffffffffffe18136030182121561000e570180359067ffffffffffffffff821161000e5760200191813603831361000e57565b156122e657565b60846040517f08c379a000000000000000000000000000000000000000000000000000000000815260206004820152603460248201527f4d616b6572207369676e617475726520646f6573206e6f7420636f727265737060448201527f6f6e6420746f206f726465722064657461696c730000000000000000000000006064820152fd5b1561237157565b60846040517f08c379a000000000000000000000000000000000000000000000000000000000815260206004820152603460248201527f54616b6572207369676e617475726520646f6573206e6f7420636f727265737060448201527f6f6e6420746f206f726465722064657461696c730000000000000000000000006064820152fd5b156123fc57565b60846040517f08c379a000000000000000000000000000000000000000000000000000000000815260206004820152604060248201527f4d616b6572206f7264657220696e70757420746f6b656e206973206e6f74206560448201527f7175616c20746f2074616b6572206f72646572206f757470757420746f6b656e6064820152fd5b1561248757565b60846040517f08c379a000000000000000000000000000000000000000000000000000000000815260206004820152604060248201527f4d616b6572206f72646572206f757470757420746f6b656e206973206e6f742060448201527f657175616c20746f2074616b6572206f7264657220696e70757420746f6b656e6064820152fd5b1561251257565b60846040517f08c379a000000000000000000000000000000000000000000000000000000000815260206004820152603f60248201527f54616b6572206f72646572206f757470757420616d6f756e74206973206d6f7260448201527f65207468616e206d616b6572206f7264657220696e70757420616d6f756e74006064820152fd5b1561259d57565b60846040517f08c379a000000000000000000000000000000000000000000000000000000000815260206004820152603f60248201527f4d616b6572206f72646572206f757470757420616d6f756e74206973206d6f7260448201527f65207468616e2074616b6572206f7264657220696e70757420616d6f756e74006064820152fd5b1561262857565b60646040517f08c379a000000000000000000000000000000000000000000000000000000000815260206004820152601c60248201527f4d616b6572206f7264657220686173206265656e20736574746c6564000000006044820152fd5b1561268d57565b60646040517f08c379a000000000000000000000000000000000000000000000000000000000815260206004820152601c60248201527f54616b6572206f7264657220686173206265656e20736574746c6564000000006044820152fd5b156126f257565b60846040517f08c379a000000000000000000000000000000000000000000000000000000000815260206004820152603560248201527f536572766572207369676e617475726520646f6573206e6f7420636f7272657360448201527f706f6e6420746f206f726465722064657461696c7300000000000000000000006064820152fd5b507f4e487b7100000000000000000000000000000000000000000000000000000000600052601160045260246000fd5b919082039182116127b357565b6101fe612776565b356107ee81610281565b919082018092116127b357565b9081602091031261000e57516107ee81610281565b506040513d6000823e3d90fd5b90357fffffffffffffffffffffffffffffffffffffffffffffffffffffffffffffffe18236030181121561000e57016020813591019167ffffffffffffffff821161000e57813603831361000e57565b601f82602094937fffffffffffffffffffffffffffffffffffffffffffffffffffffffffffffffe0938186528686013760008582860101520116010190565b906101fe916128af8261289583610241565b73ffffffffffffffffffffffffffffffffffffffff169052565b6128db6128be60208301610241565b73ffffffffffffffffffffffffffffffffffffffff166020840152565b604081013560408301526129116128f460608301610241565b73ffffffffffffffffffffffffffffffffffffffff166060840152565b6080810135608083015261294761292a60a08301610241565b73ffffffffffffffffffffffffffffffffffffffff1660a0840152565b61297361295660c08301610241565b73ffffffffffffffffffffffffffffffffffffffff1660c0840152565b61299f61298260e08301610241565b73ffffffffffffffffffffffffffffffffffffffff1660e0840152565b6129bc6101006129b0818401610276565b63ffffffff1690840152565b6129cd6101206129b0818401610276565b6129db610140809201610299565b1515910152565b916107ee9391926040815273ffffffffffffffffffffffffffffffffffffffff612a94612ad5612a2c612a1588806127f4565b9190610360928360408901526103a0880191612844565b90612a3d6060870160208b01612883565b612a4f6101c087016101808b01612883565b612a5d6102e08a018a6127f4565b9490927fffffffffffffffffffffffffffffffffffffffffffffffffffffffffffffffc09561032094878a840301868b0152612844565b93612ac5612abc612aa96103008d018d6127f4565b6103409891858c8403018a8d0152612844565b938b018b6127f4565b9290918885030190880152612844565b950135612ae1816101d3565b166103808201526020818503910152612844565b15612afc57565b60646040517f08c379a000000000000000000000000000000000000000000000000000000000815260206004820152601b60248201527f4265666f7265416f7269547261646520686f6f6b206661696c656400000000006044820152fd5b81604051928392833781016000815203902090565b15612b7657565b60646040517f08c379a000000000000000000000000000000000000000000000000000000000815260206004820152601a60248201527f4166746572416f7269547261646520686f6f6b206661696c65640000000000006044820152fd5b9081602091031261000e575190565b15612bea57565b60646040517f08c379a000000000000000000000000000000000000000000000000000000000815260206004820152601060248201527f5265656e7472616e6379206775617264000000000000000000000000000000006044820152fd5b919082519283825260005b848110612c925750507fffffffffffffffffffffffffffffffffffffffffffffffffffffffffffffffe0601f8460006020809697860101520116010190565b602081830181015184830182015201612c53565b9260609273ffffffffffffffffffffffffffffffffffffffff612cdf939796971685526020850152608060408501526080840190612c48565b931515910152565b15612cee57565b60646040517f08c379a000000000000000000000000000000000000000000000000000000000815260206004820152601560248201527f466c617368206c6f616e206e6f742072657061696400000000000000000000006044820152fd5b61271091820190818311612d7b575b818102918183041490151715612d6f570490565b612d77612776565b0490565b612d83612776565b612d5b565b6020810151906060604082015191015160001a92601b8410612da657565b92601b0160ff8111612db55792565b612dbd612776565b92565b999592612e939760c19c9993612e9f9b9695612e6798605c8f7fffffffffffffffffffffffffffffffffffffffff000000000000000000000000809a81988280988160609d8e1b1686528c1b1660148501526028840152891b1660488201520152841b16607c8d0152821b1660908b01521b1660a488015260b88701907fffffffff000000000000000000000000000000000000000000000000000000009060e01b169052565b60e01b7fffffffff000000000000000000000000000000000000000000000000000000001660bc850152565b151560f81b60c0830152565b0190565b805173ffffffffffffffffffffffffffffffffffffffff1690612fd9612ee0602083015173ffffffffffffffffffffffffffffffffffffffff1690565b612fad604084015193612f0a606082015173ffffffffffffffffffffffffffffffffffffffff1690565b906080810151612f3160a083015173ffffffffffffffffffffffffffffffffffffffff1690565b60c083015173ffffffffffffffffffffffffffffffffffffffff1660e084015173ffffffffffffffffffffffffffffffffffffffff1691612f7a61010086015163ffffffff1690565b93612f9b610140612f9361012089015163ffffffff1690565b970151151590565b966040519b8c9a60208c019e8f612dc0565b037fffffffffffffffffffffffffffffffffffffffffffffffffffffffffffffffe08101835282610171565b51902090565b612fe9818061228e565b6102e083929301612ffa908361228e565b8361030082950161300b908261228e565b8091610320840161301c908561228e565b9561034087959296013597613030896101d3565b6040519a8a8c9b60208d019e8f378b019160208301600081523701916020830160008152370191602083016000815237019060601b7fffffffffffffffffffffffffffffffffffffffff00000000000000000000000016602082015203601481018252603401612fd99082610171565b6040517fa9059cbb00000000000000000000000000000000000000000000000000000000602082015273ffffffffffffffffffffffffffffffffffffffff9290921660248301526044808301939093529181526101fe91613102606483610171565b613190565b90926101fe93604051937f23b872dd00000000000000000000000000000000000000000000000000000000602086015273ffffffffffffffffffffffffffffffffffffffff809216602486015216604484015260648301526064825260a0820182811067ffffffffffffffff821117613183575b604052613190565b61318b610120565b61317b565b60008073ffffffffffffffffffffffffffffffffffffffff6131c793169360208151910182865af16131c0613229565b9083613259565b805190811515918261320e575b50506131dd5750565b602490604051907f5274afe70000000000000000000000000000000000000000000000000000000082526004820152fd5b61322192506020809183010191016127d2565b1538806131d4565b3d15613254573d9061323a82610753565b916132486040519384610171565b82523d6000602084013e565b606090565b90613298575080511561326e57805190602001fd5b60046040517f1425ea42000000000000000000000000000000000000000000000000000000008152fd5b815115806132f0575b6132a9575090565b60249073ffffffffffffffffffffffffffffffffffffffff604051917f9996b315000000000000000000000000000000000000000000000000000000008352166004820152fd5b50803b156132a1565b6133038383613417565b5060048195929510156133e8571593846133c5575b508315613326575b50505090565b600092935090829160405161337881612fad60208201947f1626ba7e00000000000000000000000000000000000000000000000000000000998a87526024840152604060448401526064830190612c48565b51915afa90613385613229565b826133b7575b8261339b575b5050388080613320565b90915060208180518101031261000e5760200151143880613391565b91506020825110159161338b565b73ffffffffffffffffffffffffffffffffffffffff838116911614935038613318565b7f4e487b7100000000000000000000000000000000000000000000000000000000600052602160045260246000fd5b81519190604183036134485761344192506020820151906060604084015193015160001a90613453565b9192909190565b505060009160029190565b91907f7fffffffffffffffffffffffffffffff5d576e7357a4501ddfe92f46681b20a084116134e657926020929160ff608095604051948552168484015260408301526060820152600092839182805260015afa156134d9575b805173ffffffffffffffffffffffffffffffffffffffff8116156134d057918190565b50809160019190565b6134e16127e7565b6134ad565b5050506000916003919056fea2646970667358221220aae9d549125a3f055c216798de2132313a41577867bf45196e3ae0ef244ebd4364736f6c63430008110033",
        "linkReferences": {}
    },
    "methodIdentifiers": {
        "balanceOf(address,address)": "f7888aec",
        "deposit(address,address,uint256)": "8340f549",
        "flashLoan(address,address,uint256,bytes,bool)": "ff628b46",
        "getMatchingHash((string,(address,address,uint256,address,uint256,address,address,uint160,uint32,uint32,bool),(address,address,uint256,address,uint256,address,address,uint160,uint32,uint32,bool),bytes,bytes,string,address))": "88661f9a",
        "getOrderHash((address,address,uint256,address,uint256,address,address,uint160,uint32,uint32,bool))": "112f6a76",
        "getTakerFee()": "3394177b",
        "hasOrderSettled(bytes32)": "7a54ff25",
        "setTakerFee(address,uint256)": "d23cc5af",
        "settleOrders((string,(address,address,uint256,address,uint256,address,address,uint160,uint32,uint32,bool),(address,address,uint256,address,uint256,address,address,uint160,uint32,uint32,bool),bytes,bytes,string,address),bytes,bytes)": "efb1d54c",
        "signatureIntoComponents(bytes)": "b4ec369f",
        "withFee(uint256,uint256)": "1749c016",
        "withdraw(address,uint256)": "f3fef3a3",
        "withoutFee(uint256,uint256)": "e3e3f281"
    },
    "id": 4
}