{
    "abi": [
        {
            "type": "constructor",
            "inputs": [
                {
                    "name": "_serverSigner",
                    "type": "address",
                    "internalType": "address"
                }
            ],
            "stateMutability": "nonpayable"
        },
        {
            "type": "function",
            "name": "balanceOf",
            "inputs": [
                {
                    "name": "_account",
                    "type": "address",
                    "internalType": "address"
                },
                {
                    "name": "_token",
                    "type": "address",
                    "internalType": "address"
                }
            ],
            "outputs": [
                {
                    "name": "balance",
                    "type": "uint256",
                    "internalType": "uint256"
                }
            ],
            "stateMutability": "view"
        },
        {
            "type": "function",
            "name": "deposit",
            "inputs": [
                {
                    "name": "_account",
                    "type": "address",
                    "internalType": "address"
                },
                {
                    "name": "_token",
                    "type": "address",
                    "internalType": "address"
                },
                {
                    "name": "_amount",
                    "type": "uint256",
                    "internalType": "uint256"
                }
            ],
            "outputs": [],
            "stateMutability": "nonpayable"
        },
        {
            "type": "function",
            "name": "flashLoan",
            "inputs": [
                {
                    "name": "recipient",
                    "type": "address",
                    "internalType": "address"
                },
                {
                    "name": "token",
                    "type": "address",
                    "internalType": "address"
                },
                {
                    "name": "amount",
                    "type": "uint256",
                    "internalType": "uint256"
                },
                {
                    "name": "userData",
                    "type": "bytes",
                    "internalType": "bytes"
                },
                {
                    "name": "receiveToken",
                    "type": "bool",
                    "internalType": "bool"
                }
            ],
            "outputs": [],
            "stateMutability": "nonpayable"
        },
        {
            "type": "function",
            "name": "getMatchingHash",
            "inputs": [
                {
                    "name": "matching",
                    "type": "tuple",
                    "internalType": "struct IAoriV2.MatchingDetails",
                    "components": [
                        {
                            "name": "tradeId",
                            "type": "string",
                            "internalType": "string"
                        },
                        {
                            "name": "makerOrder",
                            "type": "tuple",
                            "internalType": "struct IAoriV2.Order",
                            "components": [
                                {
                                    "name": "offerer",
                                    "type": "address",
                                    "internalType": "address"
                                },
                                {
                                    "name": "inputToken",
                                    "type": "address",
                                    "internalType": "address"
                                },
                                {
                                    "name": "inputAmount",
                                    "type": "uint256",
                                    "internalType": "uint256"
                                },
                                {
                                    "name": "outputToken",
                                    "type": "address",
                                    "internalType": "address"
                                },
                                {
                                    "name": "outputAmount",
                                    "type": "uint256",
                                    "internalType": "uint256"
                                },
                                {
                                    "name": "recipient",
                                    "type": "address",
                                    "internalType": "address"
                                },
                                {
                                    "name": "zone",
                                    "type": "address",
                                    "internalType": "address"
                                },
                                {
                                    "name": "chainId",
                                    "type": "uint160",
                                    "internalType": "uint160"
                                },
                                {
                                    "name": "startTime",
                                    "type": "uint32",
                                    "internalType": "uint32"
                                },
                                {
                                    "name": "endTime",
                                    "type": "uint32",
                                    "internalType": "uint32"
                                },
                                {
                                    "name": "toWithdraw",
                                    "type": "bool",
                                    "internalType": "bool"
                                }
                            ]
                        },
                        {
                            "name": "takerOrder",
                            "type": "tuple",
                            "internalType": "struct IAoriV2.Order",
                            "components": [
                                {
                                    "name": "offerer",
                                    "type": "address",
                                    "internalType": "address"
                                },
                                {
                                    "name": "inputToken",
                                    "type": "address",
                                    "internalType": "address"
                                },
                                {
                                    "name": "inputAmount",
                                    "type": "uint256",
                                    "internalType": "uint256"
                                },
                                {
                                    "name": "outputToken",
                                    "type": "address",
                                    "internalType": "address"
                                },
                                {
                                    "name": "outputAmount",
                                    "type": "uint256",
                                    "internalType": "uint256"
                                },
                                {
                                    "name": "recipient",
                                    "type": "address",
                                    "internalType": "address"
                                },
                                {
                                    "name": "zone",
                                    "type": "address",
                                    "internalType": "address"
                                },
                                {
                                    "name": "chainId",
                                    "type": "uint160",
                                    "internalType": "uint160"
                                },
                                {
                                    "name": "startTime",
                                    "type": "uint32",
                                    "internalType": "uint32"
                                },
                                {
                                    "name": "endTime",
                                    "type": "uint32",
                                    "internalType": "uint32"
                                },
                                {
                                    "name": "toWithdraw",
                                    "type": "bool",
                                    "internalType": "bool"
                                }
                            ]
                        },
                        {
                            "name": "makerSignature",
                            "type": "bytes",
                            "internalType": "bytes"
                        },
                        {
                            "name": "takerSignature",
                            "type": "bytes",
                            "internalType": "bytes"
                        },
                        {
                            "name": "feeTag",
                            "type": "string",
                            "internalType": "string"
                        },
                        {
                            "name": "feeRecipient",
                            "type": "address",
                            "internalType": "address"
                        }
                    ]
                }
            ],
            "outputs": [
                {
                    "name": "matchingHash",
                    "type": "bytes32",
                    "internalType": "bytes32"
                }
            ],
            "stateMutability": "view"
        },
        {
            "type": "function",
            "name": "getOrderHash",
            "inputs": [
                {
                    "name": "order",
                    "type": "tuple",
                    "internalType": "struct IAoriV2.Order",
                    "components": [
                        {
                            "name": "offerer",
                            "type": "address",
                            "internalType": "address"
                        },
                        {
                            "name": "inputToken",
                            "type": "address",
                            "internalType": "address"
                        },
                        {
                            "name": "inputAmount",
                            "type": "uint256",
                            "internalType": "uint256"
                        },
                        {
                            "name": "outputToken",
                            "type": "address",
                            "internalType": "address"
                        },
                        {
                            "name": "outputAmount",
                            "type": "uint256",
                            "internalType": "uint256"
                        },
                        {
                            "name": "recipient",
                            "type": "address",
                            "internalType": "address"
                        },
                        {
                            "name": "zone",
                            "type": "address",
                            "internalType": "address"
                        },
                        {
                            "name": "chainId",
                            "type": "uint160",
                            "internalType": "uint160"
                        },
                        {
                            "name": "startTime",
                            "type": "uint32",
                            "internalType": "uint32"
                        },
                        {
                            "name": "endTime",
                            "type": "uint32",
                            "internalType": "uint32"
                        },
                        {
                            "name": "toWithdraw",
                            "type": "bool",
                            "internalType": "bool"
                        }
                    ]
                }
            ],
            "outputs": [
                {
                    "name": "orderHash",
                    "type": "bytes32",
                    "internalType": "bytes32"
                }
            ],
            "stateMutability": "view"
        },
        {
            "type": "function",
            "name": "getTakerFee",
            "inputs": [],
            "outputs": [
                {
                    "name": "feeRecipient",
                    "type": "address",
                    "internalType": "address"
                },
                {
                    "name": "feeInBips",
                    "type": "uint256",
                    "internalType": "uint256"
                }
            ],
            "stateMutability": "view"
        },
        {
            "type": "function",
            "name": "hasOrderSettled",
            "inputs": [
                {
                    "name": "orderHash",
                    "type": "bytes32",
                    "internalType": "bytes32"
                }
            ],
            "outputs": [
                {
                    "name": "settled",
                    "type": "bool",
                    "internalType": "bool"
                }
            ],
            "stateMutability": "view"
        },
        {
            "type": "function",
            "name": "serverSigner",
            "inputs": [],
            "outputs": [
                {
                    "name": "",
                    "type": "address",
                    "internalType": "address"
                }
            ],
            "stateMutability": "view"
        },
        {
            "type": "function",
            "name": "setTakerFee",
            "inputs": [
                {
                    "name": "_newFeeRecipient",
                    "type": "address",
                    "internalType": "address"
                },
                {
                    "name": "_newFeeInBips",
                    "type": "uint256",
                    "internalType": "uint256"
                }
            ],
            "outputs": [],
            "stateMutability": "nonpayable"
        },
        {
            "type": "function",
            "name": "settleOrders",
            "inputs": [
                {
                    "name": "matching",
                    "type": "tuple",
                    "internalType": "struct IAoriV2.MatchingDetails",
                    "components": [
                        {
                            "name": "tradeId",
                            "type": "string",
                            "internalType": "string"
                        },
                        {
                            "name": "makerOrder",
                            "type": "tuple",
                            "internalType": "struct IAoriV2.Order",
                            "components": [
                                {
                                    "name": "offerer",
                                    "type": "address",
                                    "internalType": "address"
                                },
                                {
                                    "name": "inputToken",
                                    "type": "address",
                                    "internalType": "address"
                                },
                                {
                                    "name": "inputAmount",
                                    "type": "uint256",
                                    "internalType": "uint256"
                                },
                                {
                                    "name": "outputToken",
                                    "type": "address",
                                    "internalType": "address"
                                },
                                {
                                    "name": "outputAmount",
                                    "type": "uint256",
                                    "internalType": "uint256"
                                },
                                {
                                    "name": "recipient",
                                    "type": "address",
                                    "internalType": "address"
                                },
                                {
                                    "name": "zone",
                                    "type": "address",
                                    "internalType": "address"
                                },
                                {
                                    "name": "chainId",
                                    "type": "uint160",
                                    "internalType": "uint160"
                                },
                                {
                                    "name": "startTime",
                                    "type": "uint32",
                                    "internalType": "uint32"
                                },
                                {
                                    "name": "endTime",
                                    "type": "uint32",
                                    "internalType": "uint32"
                                },
                                {
                                    "name": "toWithdraw",
                                    "type": "bool",
                                    "internalType": "bool"
                                }
                            ]
                        },
                        {
                            "name": "takerOrder",
                            "type": "tuple",
                            "internalType": "struct IAoriV2.Order",
                            "components": [
                                {
                                    "name": "offerer",
                                    "type": "address",
                                    "internalType": "address"
                                },
                                {
                                    "name": "inputToken",
                                    "type": "address",
                                    "internalType": "address"
                                },
                                {
                                    "name": "inputAmount",
                                    "type": "uint256",
                                    "internalType": "uint256"
                                },
                                {
                                    "name": "outputToken",
                                    "type": "address",
                                    "internalType": "address"
                                },
                                {
                                    "name": "outputAmount",
                                    "type": "uint256",
                                    "internalType": "uint256"
                                },
                                {
                                    "name": "recipient",
                                    "type": "address",
                                    "internalType": "address"
                                },
                                {
                                    "name": "zone",
                                    "type": "address",
                                    "internalType": "address"
                                },
                                {
                                    "name": "chainId",
                                    "type": "uint160",
                                    "internalType": "uint160"
                                },
                                {
                                    "name": "startTime",
                                    "type": "uint32",
                                    "internalType": "uint32"
                                },
                                {
                                    "name": "endTime",
                                    "type": "uint32",
                                    "internalType": "uint32"
                                },
                                {
                                    "name": "toWithdraw",
                                    "type": "bool",
                                    "internalType": "bool"
                                }
                            ]
                        },
                        {
                            "name": "makerSignature",
                            "type": "bytes",
                            "internalType": "bytes"
                        },
                        {
                            "name": "takerSignature",
                            "type": "bytes",
                            "internalType": "bytes"
                        },
                        {
                            "name": "feeTag",
                            "type": "string",
                            "internalType": "string"
                        },
                        {
                            "name": "feeRecipient",
                            "type": "address",
                            "internalType": "address"
                        }
                    ]
                },
                {
                    "name": "serverSignature",
                    "type": "bytes",
                    "internalType": "bytes"
                },
                {
                    "name": "hookData",
                    "type": "bytes",
                    "internalType": "bytes"
                }
            ],
            "outputs": [],
            "stateMutability": "payable"
        },
        {
            "type": "function",
            "name": "signatureIntoComponents",
            "inputs": [
                {
                    "name": "signature",
                    "type": "bytes",
                    "internalType": "bytes"
                }
            ],
            "outputs": [
                {
                    "name": "v",
                    "type": "uint8",
                    "internalType": "uint8"
                },
                {
                    "name": "r",
                    "type": "bytes32",
                    "internalType": "bytes32"
                },
                {
                    "name": "s",
                    "type": "bytes32",
                    "internalType": "bytes32"
                }
            ],
            "stateMutability": "pure"
        },
        {
            "type": "function",
            "name": "withFee",
            "inputs": [
                {
                    "name": "amount",
                    "type": "uint256",
                    "internalType": "uint256"
                },
                {
                    "name": "feeInBips",
                    "type": "uint256",
                    "internalType": "uint256"
                }
            ],
            "outputs": [
                {
                    "name": "",
                    "type": "uint256",
                    "internalType": "uint256"
                }
            ],
            "stateMutability": "view"
        },
        {
            "type": "function",
            "name": "withdraw",
            "inputs": [
                {
                    "name": "_token",
                    "type": "address",
                    "internalType": "address"
                },
                {
                    "name": "_amount",
                    "type": "uint256",
                    "internalType": "uint256"
                }
            ],
            "outputs": [],
            "stateMutability": "nonpayable"
        },
        {
            "type": "function",
            "name": "withoutFee",
            "inputs": [
                {
                    "name": "amount",
                    "type": "uint256",
                    "internalType": "uint256"
                },
                {
                    "name": "feeInBips",
                    "type": "uint256",
                    "internalType": "uint256"
                }
            ],
            "outputs": [
                {
                    "name": "",
                    "type": "uint256",
                    "internalType": "uint256"
                }
            ],
            "stateMutability": "view"
        },
        {
            "type": "event",
            "name": "FeeReceived",
            "inputs": [
                {
                    "name": "feeRecipient",
                    "type": "address",
                    "indexed": true,
                    "internalType": "address"
                },
                {
                    "name": "feeTag",
                    "type": "string",
                    "indexed": true,
                    "internalType": "string"
                },
                {
                    "name": "inputToken",
                    "type": "address",
                    "indexed": false,
                    "internalType": "address"
                },
                {
                    "name": "inputAmount",
                    "type": "uint256",
                    "indexed": false,
                    "internalType": "uint256"
                },
                {
                    "name": "outputToken",
                    "type": "address",
                    "indexed": false,
                    "internalType": "address"
                },
                {
                    "name": "outputAmount",
                    "type": "uint256",
                    "indexed": false,
                    "internalType": "uint256"
                }
            ],
            "anonymous": false
        },
        {
            "type": "event",
            "name": "OrdersSettled",
            "inputs": [
                {
                    "name": "tradeId",
                    "type": "string",
                    "indexed": true,
                    "internalType": "string"
                },
                {
                    "name": "maker",
                    "type": "address",
                    "indexed": true,
                    "internalType": "address"
                },
                {
                    "name": "taker",
                    "type": "address",
                    "indexed": true,
                    "internalType": "address"
                },
                {
                    "name": "matchingHash",
                    "type": "bytes32",
                    "indexed": false,
                    "internalType": "bytes32"
                },
                {
                    "name": "makerOrderHash",
                    "type": "bytes32",
                    "indexed": false,
                    "internalType": "bytes32"
                },
                {
                    "name": "takerOrderHash",
                    "type": "bytes32",
                    "indexed": false,
                    "internalType": "bytes32"
                },
                {
                    "name": "zone",
                    "type": "address",
                    "indexed": false,
                    "internalType": "address"
                },
                {
                    "name": "chainId",
                    "type": "uint160",
                    "indexed": false,
                    "internalType": "uint160"
                }
            ],
            "anonymous": false
        },
        {
            "type": "error",
            "name": "AddressEmptyCode",
            "inputs": [
                {
                    "name": "target",
                    "type": "address",
                    "internalType": "address"
                }
            ]
        },
        {
            "type": "error",
            "name": "AddressInsufficientBalance",
            "inputs": [
                {
                    "name": "account",
                    "type": "address",
                    "internalType": "address"
                }
            ]
        },
        {
            "type": "error",
            "name": "FailedInnerCall",
            "inputs": []
        },
        {
            "type": "error",
            "name": "SafeERC20FailedOperation",
            "inputs": [
                {
                    "name": "token",
                    "type": "address",
                    "internalType": "address"
                }
            ]
        }
    ],
    "bytecode": {
        "object": "0x60a034620000cf57601f6200369738819003918201601f19168301916001600160401b03831184841017620000d457808492602094604052833981010312620000cf57516001600160a01b038116808203620000cf57156200007e576080526040516135ac9081620000eb82396080518181816104e00152610ff10152f35b60405162461bcd60e51b8152602060048201526024808201527f536572766572207369676e65722063616e6e6f74206265207a65726f206164646044820152637265737360e01b6064820152608490fd5b600080fd5b634e487b7160e01b600052604160045260246000fdfe60806040526004361015610013575b600080fd5b60003560e01c8063112f6a761461012b5780631749c0161461012257806331af1908146101195780633394177b146101105780637a54ff25146101075780638340f549146100fe57806388661f9a146100f5578063b4ec369f146100ec578063d23cc5af146100e3578063e3e3f281146100da578063efb1d54c146100d1578063f3fef3a3146100c8578063f7888aec146100bf5763ff628b46146100b757600080fd5b61000e611c1f565b5061000e611b81565b5061000e61199c565b5061000e610b7d565b5061000e610a9f565b5061000e6108e5565b5061000e610875565b5061000e61077d565b5061000e6105ba565b5061000e610563565b5061000e610504565b5061000e610494565b5061000e610449565b5061000e61037a565b507f4e487b7100000000000000000000000000000000000000000000000000000000600052604160045260246000fd5b67ffffffffffffffff811161017857604052565b610180610134565b604052565b90601f7fffffffffffffffffffffffffffffffffffffffffffffffffffffffffffffffe0910116810190811067ffffffffffffffff82111761017857604052565b60405190610160820182811067ffffffffffffffff82111761017857604052565b73ffffffffffffffffffffffffffffffffffffffff81160361000e57565b60043590610212826101e7565b565b60243590610212826101e7565b60643590610212826101e7565b60a43590610212826101e7565b60c43590610212826101e7565b60e43590610212826101e7565b3590610212826101e7565b63ffffffff81160361000e57565b610104359061021282610260565b610124359061021282610260565b359061021282610260565b8015150361000e57565b610144359061021282610295565b359061021282610295565b91908261016091031261000e576102cd6101c6565b916102d781610255565b83526102e560208201610255565b60208401526040810135604084015261030060608201610255565b60608401526080810135608084015261031b60a08201610255565b60a084015261032c60c08201610255565b60c084015261033d60e08201610255565b60e084015261010061035081830161028a565b9084015261012061036281830161028a565b908401526103746101408092016102ad565b90830152565b503461000e576101607ffffffffffffffffffffffffffffffffffffffffffffffffffffffffffffffffc36011261000e5760206104416103b86101c6565b6103c0610205565b81526103ca610214565b8382015260443560408201526103de610221565b606082015260843560808201526103f361022e565b60a082015261040061023b565b60c082015261040d610248565b60e082015261041a61026e565b61010082015261042861027c565b61012082015261043661029f565b610140820152612f27565b604051908152f35b503461000e5760407ffffffffffffffffffffffffffffffffffffffffffffffffffffffffffffffffc36011261000e576020610441602435600435612dd0565b600091031261000e57565b503461000e5760007ffffffffffffffffffffffffffffffffffffffffffffffffffffffffffffffffc36011261000e57602060405173ffffffffffffffffffffffffffffffffffffffff7f0000000000000000000000000000000000000000000000000000000000000000168152f35b503461000e5760007ffffffffffffffffffffffffffffffffffffffffffffffffffffffffffffffffc36011261000e576002546003546040805173ffffffffffffffffffffffffffffffffffffffff9093168352602083019190915290f35b503461000e5760207ffffffffffffffffffffffffffffffffffffffffffffffffffffffffffffffffc36011261000e576020600160ff6004358060081c60005260008452161b604060002054161515604051908152f35b503461000e5760607ffffffffffffffffffffffffffffffffffffffffffffffffffffffffffffffffc36011261000e576004356105f6816101e7565b6107026106fa602435610608816101e7565b6040517f70a08231000000000000000000000000000000000000000000000000000000008082523060048301526106d5916106ae9160209073ffffffffffffffffffffffffffffffffffffffff8616908284602481855afa938415610761575b600094610740575b50829061068160443530338661318b565b60405190815230600482015291829060249082905afa918215610733575b600092610706575b505061282a565b9473ffffffffffffffffffffffffffffffffffffffff166000526001602052604060002090565b9073ffffffffffffffffffffffffffffffffffffffff16600052602052604060002090565b918254612849565b9055005b6107259250803d1061072c575b61071d8183610185565b810190612c58565b38806106a7565b503d610713565b61073b61286b565b61069f565b8391945061075a90823d841161072c5761071d8183610185565b9390610670565b61076961286b565b610668565b908161036091031261000e5790565b503461000e5760207ffffffffffffffffffffffffffffffffffffffffffffffffffffffffffffffffc36011261000e5760043567ffffffffffffffff811161000e576104416107d2602092369060040161076e565b613063565b7fffffffffffffffffffffffffffffffffffffffffffffffffffffffffffffffe0601f60209267ffffffffffffffff8111610813575b01160190565b61081b610134565b61080d565b92919261082c826107d7565b9161083a6040519384610185565b82948184528183011161000e578281602093846000960137010152565b9080601f8301121561000e5781602061087293359101610820565b90565b503461000e5760207ffffffffffffffffffffffffffffffffffffffffffffffffffffffffffffffffc36011261000e5760043567ffffffffffffffff811161000e576108cf6108ca6060923690600401610857565b612e0c565b9060ff6040519316835260208301526040820152f35b503461000e5760407ffffffffffffffffffffffffffffffffffffffffffffffffffffffffffffffffc36011261000e57600435610921816101e7565b60243573ffffffffffffffffffffffffffffffffffffffff821615610a1c576064811015610998576109916109969273ffffffffffffffffffffffffffffffffffffffff167fffffffffffffffffffffffff00000000000000000000000000000000000000006002541617600255565b600355565b005b60846040517f08c379a000000000000000000000000000000000000000000000000000000000815260206004820152602560248201527f46656520696e20626970732063616e6e6f74206265206772656174657220746860448201527f616e2031250000000000000000000000000000000000000000000000000000006064820152fd5b60846040517f08c379a0000000000000000000000000000000000000000000000000000000008152602060048201526024808201527f46656520726563697069656e742063616e6e6f74206265207a65726f2061646460448201527f72657373000000000000000000000000000000000000000000000000000000006064820152fd5b503461000e5760407ffffffffffffffffffffffffffffffffffffffffffffffffffffffffffffffffc36011261000e5761271060043581810290801590820483141715610b42575b6024358201809211610b35575b8115610b065760209160405191048152f35b7f4e487b7100000000000000000000000000000000000000000000000000000000600052601260045260246000fd5b610b3d6127fa565b610af4565b610b4a6127fa565b610ae7565b9181601f8401121561000e5782359167ffffffffffffffff831161000e576020838186019501011161000e57565b5060607ffffffffffffffffffffffffffffffffffffffffffffffffffffffffffffffffc36011261000e5767ffffffffffffffff60043581811161000e57610bc990369060040161076e565b9060243581811161000e57610be2903690600401610b4f565b9060443592831161000e578392610bfd903690600401610b4f565b9290610c0c6101208601611ea6565b429063ffffffff161115610c1f90611eb0565b42610c2d6102808701611ea6565b63ffffffff161115610c3e90611f3b565b42610c4c6101408701611ea6565b63ffffffff161015610c5d90611fc6565b42610c6b6102a08701611ea6565b63ffffffff161015610c7c90612051565b610c8961010086016120dc565b610c9661026087016120dc565b73ffffffffffffffffffffffffffffffffffffffff16610ccc9173ffffffffffffffffffffffffffffffffffffffff16146120e6565b610cd961010086016120dc565b610cfa9073ffffffffffffffffffffffffffffffffffffffff164614612171565b610d0660e086016120dc565b610d1361024087016120dc565b73ffffffffffffffffffffffffffffffffffffffff16610d499173ffffffffffffffffffffffffffffffffffffffff16146121fc565b610d5560e086016120dc565b610d769073ffffffffffffffffffffffffffffffffffffffff163014612287565b610d8336602087016102b8565b610d8c90612f27565b93610d9b3661018088016102b8565b610da490612f27565b918286886060810135151599610fef610f1e6108ca7fe9b9452cf2ec20301e34e65510b55e7c969189adae76569786a523c69be2d6e59b73ffffffffffffffffffffffffffffffffffffffff9b6113d79f610f12610f0961101a9b610eea610f0d610f096110159e610eea610f279f610f1799611925575b6101c0810135611821575b610e7c610e36604083016120dc565b73ffffffffffffffffffffffffffffffffffffffff610e74610e5b6101e086016120dc565b73ffffffffffffffffffffffffffffffffffffffff1690565b911614612479565b610eb8610e8b608083016120dc565b73ffffffffffffffffffffffffffffffffffffffff610eb0610e5b6101a086016120dc565b911614612504565b610ecd6060820135610200830135111561258f565b610ee360035460a06101c0840135930135612dd0565b111561261a565b60ff6001918060081c6000526000602052161b60406000205416151590565b1590565b6126a5565b61270a565b3691610820565b94909193613063565b90610fe36040519283610f68602082019283603c917f19457468657265756d205369676e6564204d6573736167653a0a3332000000008252601c8201520190565b0393610f9a7fffffffffffffffffffffffffffffffffffffffffffffffffffffffffffffffe095868101835282610185565b519020946040519687936020850191926041937fff00000000000000000000000000000000000000000000000000000000000000928452602084015260f81b1660408201520190565b03908101845283610185565b7f000000000000000000000000000000000000000000000000000000000000000061337d565b61276f565b61103d868060081c6000526000602052600160ff604060002092161b8154179055565b611060838060081c6000526000602052600160ff604060002092161b8154179055565b6110966110706101808a016120dc565b73ffffffffffffffffffffffffffffffffffffffff166000526001602052604060002090565b6110d16101c08a0135916110ad6101a08c016120dc565b73ffffffffffffffffffffffffffffffffffffffff16600052602052604060002090565b54106117f3576110f76110ea6110706101808b016120dc565b6110ad6101a08b016120dc565b6111076101c08a0135825461282a565b90555b61111a610f096101608a0161283f565b156117ca5761113d61113161107060c08b016120dc565b6110ad60808b016120dc565b61114c60a08a01358254612849565b90555b61115b602089016120dc565b3b151580611714575b611674575b61117861107060208a016120dc565b61118d60608a0135916110ad60408c016120dc565b5410611643576111b16111a561107060208b016120dc565b6110ad60408b016120dc565b6111c060608a0135825461282a565b90555b6111d3610f096102c08a0161283f565b15611611576111f86111eb6110706102208b016120dc565b6110ad6101e08b016120dc565b6112086102008a01358254612849565b90555b600354806115c8575b5061020088013560608901351161158b575b6003546112378160a08b0135612dd0565b6101c08a013511611545575b5061131b887ff0cc2afd53c1c049bed798781c8b04fa99891b75feb5cebfdd8289d6c9ee438d8661127761034084016120dc565b611285610320850185612312565b9590611293604087016120dc565b956112dc6112aa610200830135606084013561282a565b986112d66112ba608085016120dc565b936101c06112ce60035460a0840135612dd0565b91013561282a565b93612bde565b9760405195869516978590606092959493608083019673ffffffffffffffffffffffffffffffffffffffff809316845260208401521660408201520152565b0390a38761132b602082016120dc565b3b15158061148f575b6113dc575b6113469250809150612312565b9590611354602089016120dc565b9761136261018082016120dc565b9361138f61136f83613063565b9961138961010061138260e087016120dc565b95016120dc565b94612bde565b604080519a8b5260208b01999099529789015273ffffffffffffffffffffffffffffffffffffffff9081166060890152166080870152908216959091169390819060a0820190565b0390a4005b61144b92611431926113f7610e5b610e5b60208096016120dc565b9060008c604051968795869485937f27b9a6e600000000000000000000000000000000000000000000000000000000855260048501612a66565b03925af1908115611482575b600091611453575b50612bf3565b388087611339565b611475915060203d60201161147b575b61146d8183610185565b810190612856565b38611445565b503d611463565b61148a61286b565b61143d565b506114a2610e5b610e5b602084016120dc565b602060405180927f01ffc9a700000000000000000000000000000000000000000000000000000000825281806114ff60048201907f27b9a6e600000000000000000000000000000000000000000000000000000000602083019252565b03915afa908115611538575b600091611519575b50611334565b611532915060203d60201161147b5761146d8183610185565b38611513565b61154061286b565b61150b565b6115566115619160a08b0135612dd0565b6101c08a013561282a565b6115836106fa6115776110706103408d016120dc565b6110ad60808d016120dc565b905538611243565b61159e61020089013560608a013561282a565b6115c16106fa6115b46110706103408d016120dc565b6110ad6101e08d016120dc565b9055611226565b6115e19060a08a0135906115dc9082612dd0565b61282a565b6116096106fa61157761107060025473ffffffffffffffffffffffffffffffffffffffff1690565b905538611214565b61163e611624610e5b6101e08b016120dc565b6102008a0135906116386102208c016120dc565b90613124565b61120b565b61166f611655610e5b60408b016120dc565b60608a013590309061166960208d016120dc565b9061318b565b6111c3565b6116e36116c96020848b856000611692610e5b610e5b8786016120dc565b92604051968795869485937f3d4a607900000000000000000000000000000000000000000000000000000000855260048501612a66565b03925af1908115611707575b6000916116e8575b50612b79565b611169565b611701915060203d60201161147b5761146d8183610185565b386116dd565b61170f61286b565b6116d5565b50611727610e5b610e5b60208b016120dc565b602060405180927f01ffc9a7000000000000000000000000000000000000000000000000000000008252818061178460048201907f3d4a607900000000000000000000000000000000000000000000000000000000602083019252565b03915afa9081156117bd575b60009161179e575b50611164565b6117b7915060203d60201161147b5761146d8183610185565b38611798565b6117c561286b565b611790565b6117ee6117dc610e5b60808b016120dc565b60a08a01359061163860c08c016120dc565b61114f565b61181c611806610e5b6101a08b016120dc565b6101c08a01359030906116696101808d016120dc565b61110a565b61192061191b61183b6108ca610f17610300860186612312565b91906119168c61184e61018089016120dc565b9261190a604051928361188f602082019283603c917f19457468657265756d205369676e6564204d6573736167653a0a3332000000008252601c8201520190565b03936118c17fffffffffffffffffffffffffffffffffffffffffffffffffffffffffffffffe095868101835282610185565b519020956040519788936020850191926041937fff00000000000000000000000000000000000000000000000000000000000000928452602084015260f81b1660408201520190565b03908101855284610185565b61337d565b6123ee565b610e27565b61199761199261193f6108ca610f176102e0860186612312565b9190611916611950602088016120dc565b916040519061190a8b8361188f602082019283603c917f19457468657265756d205369676e6564204d6573736167653a0a3332000000008252601c8201520190565b612363565b610e1c565b503461000e5760407ffffffffffffffffffffffffffffffffffffffffffffffffffffffffffffffffc36011261000e576004356119d8816101e7565b6119ef6119ea610f0960045460ff1690565b612c67565b611a1f60017fffffffffffffffffffffffffffffffffffffffffffffffffffffffffffffff006004541617600455565b6040517f70a0823100000000000000000000000000000000000000000000000000000000808252306004830152611afa91611af291611ac79160209173ffffffffffffffffffffffffffffffffffffffff87169083908184602481865afa938415611b74575b600094611b55575b50611a9b6024353385613124565b60405190815230600482015291829060249082905afa928315611b48575b600093611b2957505061282a565b926106d53373ffffffffffffffffffffffffffffffffffffffff166000526001602052604060002090565b91825461282a565b90556109967fffffffffffffffffffffffffffffffffffffffffffffffffffffffffffffff0060045416600455565b611b40929350803d1061072c5761071d8183610185565b9038806106a7565b611b5061286b565b611ab9565b611b6d919450823d841161072c5761071d8183610185565b9238611a8d565b611b7c61286b565b611a85565b503461000e5760407ffffffffffffffffffffffffffffffffffffffffffffffffffffffffffffffffc36011261000e576020611c16600435611bc2816101e7565b73ffffffffffffffffffffffffffffffffffffffff60243591611be4836101e7565b166000526001835260406000209073ffffffffffffffffffffffffffffffffffffffff16600052602052604060002090565b54604051908152f35b503461000e5760a07ffffffffffffffffffffffffffffffffffffffffffffffffffffffffffffffffc36011261000e57600435611c5b816101e7565b60243590611c68826101e7565b6044359160643567ffffffffffffffff811161000e57611c8c903690600401610857565b92608435611c9981610295565b6040517f70a0823100000000000000000000000000000000000000000000000000000000808252306004830152909460209473ffffffffffffffffffffffffffffffffffffffff8082169592919087896024818a5afa988915611e99575b600099611e7a575b508515611e3a57611d11848489613124565b821694853b1561000e57611d5f6000828a986109969d836040518096819582947fe84afff60000000000000000000000000000000000000000000000000000000084528d8c60048601612d2a565b03925af18015611e2d575b611e14575b5015611ddc575090611d839130908661318b565b60405190815230600482015291829060249082905afa918215611dcf575b600092611db2575b50501015612d6b565b611dc89250803d1061072c5761071d8183610185565b3880611da9565b611dd761286b565b611da1565b611af2906106d5611e0d9373ffffffffffffffffffffffffffffffffffffffff166000526001602052604060002090565b9055611d83565b80611e21611e2792610164565b80610489565b38611d6f565b611e3561286b565b611d6a565b611e68826106d58573ffffffffffffffffffffffffffffffffffffffff166000526001602052604060002090565b611e73858254612849565b9055611d11565b611e92919950883d8a1161072c5761071d8183610185565b9738611cff565b611ea161286b565b611cf7565b3561087281610260565b15611eb757565b60846040517f08c379a000000000000000000000000000000000000000000000000000000000815260206004820152602760248201527f4d616b6572206f726465722073746172742074696d6520697320696e2074686560448201527f20667574757265000000000000000000000000000000000000000000000000006064820152fd5b15611f4257565b60846040517f08c379a000000000000000000000000000000000000000000000000000000000815260206004820152602760248201527f54616b6572206f726465722073746172742074696d6520697320696e2074686560448201527f20667574757265000000000000000000000000000000000000000000000000006064820152fd5b15611fcd57565b60846040517f08c379a000000000000000000000000000000000000000000000000000000000815260206004820152602760248201527f4d616b6572206f7264657220656e642074696d652068617320616c726561647960448201527f20706173736564000000000000000000000000000000000000000000000000006064820152fd5b1561205857565b60846040517f08c379a000000000000000000000000000000000000000000000000000000000815260206004820152602760248201527f54616b6572206f7264657220656e642074696d652068617320616c726561647960448201527f20706173736564000000000000000000000000000000000000000000000000006064820152fd5b35610872816101e7565b156120ed57565b60846040517f08c379a000000000000000000000000000000000000000000000000000000000815260206004820152603a60248201527f4d616b6572206f72646572277320636861696e696420646f6573206e6f74206d60448201527f617463682074616b6572206f72646572277320636861696e69640000000000006064820152fd5b1561217857565b60846040517f08c379a000000000000000000000000000000000000000000000000000000000815260206004820152602e60248201527f4f72646572277320636861696e696420646f6573206e6f74206d61746368206360448201527f757272656e7420636861696e69640000000000000000000000000000000000006064820152fd5b1561220357565b60846040517f08c379a000000000000000000000000000000000000000000000000000000000815260206004820152603460248201527f4d616b6572206f726465722773207a6f6e6520646f6573206e6f74206d61746360448201527f682074616b6572206f726465722773207a6f6e650000000000000000000000006064820152fd5b1561228e57565b60846040517f08c379a000000000000000000000000000000000000000000000000000000000815260206004820152602160248201527f5a6f6e6520646f6573206e6f74206d61746368207468697320636f6e7472616360448201527f74000000000000000000000000000000000000000000000000000000000000006064820152fd5b9035907fffffffffffffffffffffffffffffffffffffffffffffffffffffffffffffffe18136030182121561000e570180359067ffffffffffffffff821161000e5760200191813603831361000e57565b1561236a57565b60846040517f08c379a000000000000000000000000000000000000000000000000000000000815260206004820152603460248201527f4d616b6572207369676e617475726520646f6573206e6f7420636f727265737060448201527f6f6e6420746f206f726465722064657461696c730000000000000000000000006064820152fd5b156123f557565b60846040517f08c379a000000000000000000000000000000000000000000000000000000000815260206004820152603460248201527f54616b6572207369676e617475726520646f6573206e6f7420636f727265737060448201527f6f6e6420746f206f726465722064657461696c730000000000000000000000006064820152fd5b1561248057565b60846040517f08c379a000000000000000000000000000000000000000000000000000000000815260206004820152604060248201527f4d616b6572206f7264657220696e70757420746f6b656e206973206e6f74206560448201527f7175616c20746f2074616b6572206f72646572206f757470757420746f6b656e6064820152fd5b1561250b57565b60846040517f08c379a000000000000000000000000000000000000000000000000000000000815260206004820152604060248201527f4d616b6572206f72646572206f757470757420746f6b656e206973206e6f742060448201527f657175616c20746f2074616b6572206f7264657220696e70757420746f6b656e6064820152fd5b1561259657565b60846040517f08c379a000000000000000000000000000000000000000000000000000000000815260206004820152603f60248201527f54616b6572206f72646572206f757470757420616d6f756e74206973206d6f7260448201527f65207468616e206d616b6572206f7264657220696e70757420616d6f756e74006064820152fd5b1561262157565b60846040517f08c379a000000000000000000000000000000000000000000000000000000000815260206004820152603f60248201527f4d616b6572206f72646572206f757470757420616d6f756e74206973206d6f7260448201527f65207468616e2074616b6572206f7264657220696e70757420616d6f756e74006064820152fd5b156126ac57565b60646040517f08c379a000000000000000000000000000000000000000000000000000000000815260206004820152601c60248201527f4d616b6572206f7264657220686173206265656e20736574746c6564000000006044820152fd5b1561271157565b60646040517f08c379a000000000000000000000000000000000000000000000000000000000815260206004820152601c60248201527f54616b6572206f7264657220686173206265656e20736574746c6564000000006044820152fd5b1561277657565b60846040517f08c379a000000000000000000000000000000000000000000000000000000000815260206004820152603560248201527f536572766572207369676e617475726520646f6573206e6f7420636f7272657360448201527f706f6e6420746f206f726465722064657461696c7300000000000000000000006064820152fd5b507f4e487b7100000000000000000000000000000000000000000000000000000000600052601160045260246000fd5b9190820391821161283757565b6102126127fa565b3561087281610295565b9190820180921161283757565b9081602091031261000e575161087281610295565b506040513d6000823e3d90fd5b90357fffffffffffffffffffffffffffffffffffffffffffffffffffffffffffffffe18236030181121561000e57016020813591019167ffffffffffffffff821161000e57813603831361000e57565b601f82602094937fffffffffffffffffffffffffffffffffffffffffffffffffffffffffffffffe0938186528686013760008582860101520116010190565b90610212916129338261291983610255565b73ffffffffffffffffffffffffffffffffffffffff169052565b61295f61294260208301610255565b73ffffffffffffffffffffffffffffffffffffffff166020840152565b6040810135604083015261299561297860608301610255565b73ffffffffffffffffffffffffffffffffffffffff166060840152565b608081013560808301526129cb6129ae60a08301610255565b73ffffffffffffffffffffffffffffffffffffffff1660a0840152565b6129f76129da60c08301610255565b73ffffffffffffffffffffffffffffffffffffffff1660c0840152565b612a23612a0660e08301610255565b73ffffffffffffffffffffffffffffffffffffffff1660e0840152565b612a40610100612a3481840161028a565b63ffffffff1690840152565b612a51610120612a3481840161028a565b612a5f6101408092016102ad565b1515910152565b916108729391926040815273ffffffffffffffffffffffffffffffffffffffff612b18612b59612ab0612a998880612878565b9190610360928360408901526103a08801916128c8565b90612ac16060870160208b01612907565b612ad36101c087016101808b01612907565b612ae16102e08a018a612878565b9490927fffffffffffffffffffffffffffffffffffffffffffffffffffffffffffffffc09561032094878a840301868b01526128c8565b93612b49612b40612b2d6103008d018d612878565b6103409891858c8403018a8d01526128c8565b938b018b612878565b92909188850301908801526128c8565b950135612b65816101e7565b1661038082015260208185039101526128c8565b15612b8057565b60646040517f08c379a000000000000000000000000000000000000000000000000000000000815260206004820152601b60248201527f4265666f7265416f7269547261646520686f6f6b206661696c656400000000006044820152fd5b81604051928392833781016000815203902090565b15612bfa57565b60646040517f08c379a000000000000000000000000000000000000000000000000000000000815260206004820152601a60248201527f4166746572416f7269547261646520686f6f6b206661696c65640000000000006044820152fd5b9081602091031261000e575190565b15612c6e57565b60646040517f08c379a000000000000000000000000000000000000000000000000000000000815260206004820152601060248201527f5265656e7472616e6379206775617264000000000000000000000000000000006044820152fd5b919082519283825260005b848110612d165750507fffffffffffffffffffffffffffffffffffffffffffffffffffffffffffffffe0601f8460006020809697860101520116010190565b602081830181015184830182015201612cd7565b9260609273ffffffffffffffffffffffffffffffffffffffff612d63939796971685526020850152608060408501526080840190612ccc565b931515910152565b15612d7257565b60646040517f08c379a000000000000000000000000000000000000000000000000000000000815260206004820152601560248201527f466c617368206c6f616e206e6f742072657061696400000000000000000000006044820152fd5b61271091820190818311612dff575b818102918183041490151715612df3570490565b612dfb6127fa565b0490565b612e076127fa565b612ddf565b6020810151906060604082015191015160001a92601b8410612e2a57565b92601b0160ff8111612e395792565b612e416127fa565b92565b999592612f179760c19c9993612f239b9695612eeb98605c8f7fffffffffffffffffffffffffffffffffffffffff000000000000000000000000809a81988280988160609d8e1b1686528c1b1660148501526028840152891b1660488201520152841b16607c8d0152821b1660908b01521b1660a488015260b88701907fffffffff000000000000000000000000000000000000000000000000000000009060e01b169052565b60e01b7fffffffff000000000000000000000000000000000000000000000000000000001660bc850152565b151560f81b60c0830152565b0190565b805173ffffffffffffffffffffffffffffffffffffffff169061305d612f64602083015173ffffffffffffffffffffffffffffffffffffffff1690565b613031604084015193612f8e606082015173ffffffffffffffffffffffffffffffffffffffff1690565b906080810151612fb560a083015173ffffffffffffffffffffffffffffffffffffffff1690565b60c083015173ffffffffffffffffffffffffffffffffffffffff1660e084015173ffffffffffffffffffffffffffffffffffffffff1691612ffe61010086015163ffffffff1690565b9361301f61014061301761012089015163ffffffff1690565b970151151590565b966040519b8c9a60208c019e8f612e44565b037fffffffffffffffffffffffffffffffffffffffffffffffffffffffffffffffe08101835282610185565b51902090565b61306d8180612312565b6102e08392930161307e9083612312565b8361030082950161308f9082612312565b809161032084016130a09085612312565b95610340879592960135976130b4896101e7565b6040519a8a8c9b60208d019e8f378b019160208301600081523701916020830160008152370191602083016000815237019060601b7fffffffffffffffffffffffffffffffffffffffff0000000000000000000000001660208201520360148101825260340161305d9082610185565b6040517fa9059cbb00000000000000000000000000000000000000000000000000000000602082015273ffffffffffffffffffffffffffffffffffffffff92909216602483015260448083019390935291815261021291613186606483610185565b613214565b909261021293604051937f23b872dd00000000000000000000000000000000000000000000000000000000602086015273ffffffffffffffffffffffffffffffffffffffff809216602486015216604484015260648301526064825260a0820182811067ffffffffffffffff821117613207575b604052613214565b61320f610134565b6131ff565b60008073ffffffffffffffffffffffffffffffffffffffff61324b93169360208151910182865af16132446132ad565b90836132dd565b8051908115159182613292575b50506132615750565b602490604051907f5274afe70000000000000000000000000000000000000000000000000000000082526004820152fd5b6132a59250602080918301019101612856565b153880613258565b3d156132d8573d906132be826107d7565b916132cc6040519384610185565b82523d6000602084013e565b606090565b9061331c57508051156132f257805190602001fd5b60046040517f1425ea42000000000000000000000000000000000000000000000000000000008152fd5b81511580613374575b61332d575090565b60249073ffffffffffffffffffffffffffffffffffffffff604051917f9996b315000000000000000000000000000000000000000000000000000000008352166004820152fd5b50803b15613325565b613387838361349b565b50600481959295101561346c57159384613449575b5083156133aa575b50505090565b60009293509082916040516133fc8161303160208201947f1626ba7e00000000000000000000000000000000000000000000000000000000998a87526024840152604060448401526064830190612ccc565b51915afa906134096132ad565b8261343b575b8261341f575b50503880806133a4565b90915060208180518101031261000e5760200151143880613415565b91506020825110159161340f565b73ffffffffffffffffffffffffffffffffffffffff83811691161493503861339c565b7f4e487b7100000000000000000000000000000000000000000000000000000000600052602160045260246000fd5b81519190604183036134cc576134c592506020820151906060604084015193015160001a906134d7565b9192909190565b505060009160029190565b91907f7fffffffffffffffffffffffffffffff5d576e7357a4501ddfe92f46681b20a0841161356a57926020929160ff608095604051948552168484015260408301526060820152600092839182805260015afa1561355d575b805173ffffffffffffffffffffffffffffffffffffffff81161561355457918190565b50809160019190565b61356561286b565b613531565b5050506000916003919056fea2646970667358221220f093ab37711773f2d5c8638c4fd2d46349c93e4469701389408a7e349125709264736f6c63430008110033",
        "linkReferences": {}
    },
    "methodIdentifiers": {
        "balanceOf(address,address)": "f7888aec",
        "deposit(address,address,uint256)": "8340f549",
        "flashLoan(address,address,uint256,bytes,bool)": "ff628b46",
        "getMatchingHash((string,(address,address,uint256,address,uint256,address,address,uint160,uint32,uint32,bool),(address,address,uint256,address,uint256,address,address,uint160,uint32,uint32,bool),bytes,bytes,string,address))": "88661f9a",
        "getOrderHash((address,address,uint256,address,uint256,address,address,uint160,uint32,uint32,bool))": "112f6a76",
        "getTakerFee()": "3394177b",
        "hasOrderSettled(bytes32)": "7a54ff25",
        "serverSigner()": "31af1908",
        "setTakerFee(address,uint256)": "d23cc5af",
        "settleOrders((string,(address,address,uint256,address,uint256,address,address,uint160,uint32,uint32,bool),(address,address,uint256,address,uint256,address,address,uint160,uint32,uint32,bool),bytes,bytes,string,address),bytes,bytes)": "efb1d54c",
        "signatureIntoComponents(bytes)": "b4ec369f",
        "withFee(uint256,uint256)": "1749c016",
        "withdraw(address,uint256)": "f3fef3a3",
        "withoutFee(uint256,uint256)": "e3e3f281"
    },
    "id": 4
}