{"abi":[{"type":"constructor","inputs":[{"name":"_clearing","type":"address","internalType":"address"},{"name":"_manager","type":"address","internalType":"address"}],"stateMutability":"nonpayable"},{"type":"fallback","stateMutability":"payable"},{"type":"receive","stateMutability":"payable"},{"type":"function","name":"clearing","inputs":[],"outputs":[{"name":"","type":"address","internalType":"address"}],"stateMutability":"view"},{"type":"function","name":"handleDeposit","inputs":[{"name":"from","type":"address","internalType":"address"},{"name":"token","type":"address","internalType":"address"},{"name":"amount","type":"uint256","internalType":"uint256"},{"name":"extraData","type":"bytes","internalType":"bytes"}],"outputs":[],"stateMutability":"nonpayable"},{"type":"function","name":"handleSettlement","inputs":[{"name":"orders","type":"tuple[]","internalType":"struct IClearing.SignedOrder[]","components":[{"name":"order","type":"tuple","internalType":"struct IClearing.Order","components":[{"name":"offerer","type":"address","internalType":"address"},{"name":"inputToken","type":"address","internalType":"address"},{"name":"inputAmount","type":"uint256","internalType":"uint256"},{"name":"outputToken","type":"address","internalType":"address"},{"name":"outputAmount","type":"uint256","internalType":"uint256"},{"name":"recipient","type":"address","internalType":"address"},{"name":"zone","type":"address","internalType":"address"},{"name":"chainId","type":"uint160","internalType":"uint160"},{"name":"startTime","type":"uint32","internalType":"uint32"},{"name":"endTime","type":"uint32","internalType":"uint32"},{"name":"toWithdraw","type":"bool","internalType":"bool"}]},{"name":"extraData","type":"bytes","internalType":"bytes"},{"name":"signature","type":"bytes","internalType":"bytes"}]},{"name":"extraData","type":"bytes","internalType":"bytes"},{"name":"witness","type":"bytes","internalType":"bytes"}],"outputs":[],"stateMutability":"nonpayable"},{"type":"function","name":"manager","inputs":[],"outputs":[{"name":"","type":"address","internalType":"address"}],"stateMutability":"view"},{"type":"function","name":"name","inputs":[],"outputs":[{"name":"","type":"string","internalType":"string"}],"stateMutability":"view"},{"type":"function","name":"setNewManager","inputs":[{"name":"_newManager","type":"address","internalType":"address"}],"outputs":[],"stateMutability":"nonpayable"},{"type":"event","name":"TradeSettled","inputs":[{"name":"tradeId","type":"string","indexed":false,"internalType":"string"}],"anonymous":false}],"bytecode":{"object":"0x60a0346200015257601f620017c338819003918201601f19168301916001600160401b038311848410176200015657808492604094855283398101031262000152576200005a602062000052836200016a565b92016200016a565b905f54600190600181811c9116801562000147575b60208210146200013357601f8111620000ea575b50507f5072696e636970616c4d6174636800000000000000000000000000000000001c5f55608052600180546001600160a01b0319166001600160a01b0392909216919091179055604051611643908162000180823960805181818160bc0152610cdb0152f35b5f8052601f0160051c7f290decd9548b62a8d60345a988386fc84ba6bc95484008f6362f93160ef3e563908101905b81811062000128575062000083565b5f8155820162000119565b634e487b7160e01b5f52602260045260245ffd5b90607f16906200006f565b5f80fd5b634e487b7160e01b5f52604160045260245ffd5b51906001600160a01b0382168203620001525756fe60806040526004361015610018575b361561001657005b005b5f3560e01c8063027cb7c61461007757806306fdde0314610072578063481c6a751461006d5780639ab3f3cc14610068578063d30f945a146100635763f58171df0361000e576107ec565b6106de565b6104b8565b610365565b61020e565b346100e5575f7ffffffffffffffffffffffffffffffffffffffffffffffffffffffffffffffffc3601126100e55773ffffffffffffffffffffffffffffffffffffffff7f00000000000000000000000000000000000000000000000000000000000000001660805260206080f35b5f80fd5b5f9103126100e557565b7f4e487b71000000000000000000000000000000000000000000000000000000005f52604160045260245ffd5b6060810190811067ffffffffffffffff82111761013c57604052565b6100f3565b67ffffffffffffffff811161013c57604052565b90601f7fffffffffffffffffffffffffffffffffffffffffffffffffffffffffffffffe0910116810190811067ffffffffffffffff82111761013c57604052565b5f5b8381106101a75750505f910152565b8181015183820152602001610198565b907fffffffffffffffffffffffffffffffffffffffffffffffffffffffffffffffe0601f6020936101f381518092818752878088019101610196565b0116010190565b90602061020b9281815201906101b7565b90565b346100e5575f7ffffffffffffffffffffffffffffffffffffffffffffffffffffffffffffffffc3601126100e5576040515f805460018160011c916001811691821561035b575b60209160208510841461032e5784875260208701939081156102f1575060011461029a575b6102968661028a81880382610155565b604051918291826101fa565b0390f35b5f80805294509192917f290decd9548b62a8d60345a988386fc84ba6bc95484008f6362f93160ef3e5635b8386106102e0575050509101905061028a826102965f61027a565b8054858701529482019481016102c5565b7fffffffffffffffffffffffffffffffffffffffffffffffffffffffffffffff0016845250505090151560051b01905061028a826102965f61027a565b7f4e487b71000000000000000000000000000000000000000000000000000000005f52602260045260245ffd5b92607f1692610255565b346100e5575f7ffffffffffffffffffffffffffffffffffffffffffffffffffffffffffffffffc3601126100e557602073ffffffffffffffffffffffffffffffffffffffff60015416604051908152f35b60405190610160820182811067ffffffffffffffff82111761013c57604052565b67ffffffffffffffff811161013c5760051b60200190565b73ffffffffffffffffffffffffffffffffffffffff8116036100e557565b3590610418826103ef565b565b359063ffffffff821682036100e557565b359081151582036100e557565b67ffffffffffffffff811161013c57601f017fffffffffffffffffffffffffffffffffffffffffffffffffffffffffffffffe01660200190565b81601f820112156100e55780359061048982610438565b926104976040519485610155565b828452602083830101116100e557815f926020809301838601378301015290565b346100e5576060807ffffffffffffffffffffffffffffffffffffffffffffffffffffffffffffffffc3601126100e55767ffffffffffffffff906004358281116100e557366023820112156100e557806004013591602491610519846103d7565b9360409261052a6040519687610155565b81865260209385602088019360051b850101933685116100e557868101935b85851061058a57898989358281116100e557610569903690600401610472565b6044359283116100e557610584610016933690600401610472565b91610cc4565b84358a81116100e55782017fffffffffffffffffffffffffffffffffffffffffffffffffffffffffffffffdc81360301916101a083126100e5576101608551936105d385610120565b126100e5576105e06103b6565b6105eb8b840161040d565b81526105f96044840161040d565b8a8201526064830135868201526106126084840161040d565b8782015260a4830135608082015261062c60c4840161040d565b60a082015261063d60e4840161040d565b60c082015261064f610104840161040d565b60e0820152610661610124840161041a565b610100820152610674610144840161041a565b610120820152610687610164840161042b565b61014082015283526101848201358c81116100e5576106ab908b3691850101610472565b898401526101a4820135928c84116100e5576106cf8a94938c869536920101610472565b86820152815201940193610549565b346100e55760207ffffffffffffffffffffffffffffffffffffffffffffffffffffffffffffffffc3601126100e557600435610719816103ef565b6001549073ffffffffffffffffffffffffffffffffffffffff3381841603610768577fffffffffffffffffffffffff000000000000000000000000000000000000000091169116176001555f80f35b60846040517f08c379a000000000000000000000000000000000000000000000000000000000815260206004820152602360248201527f4f6e6c79206d616e616765722063616e2063616c6c20746869732066756e637460448201527f696f6e00000000000000000000000000000000000000000000000000000000006064820152fd5b346100e55760807ffffffffffffffffffffffffffffffffffffffffffffffffffffffffffffffffc3601126100e5576108266004356103ef565b6108316024356103ef565b60643567ffffffffffffffff81116100e557610016903690600401610472565b1561085857565b60846040517f08c379a000000000000000000000000000000000000000000000000000000000815260206004820152603460248201527f5072696e636970616c4d617463683a204f6e6c7920636c656172696e6720636160448201527f6e2063616c6c20746869732066756e6374696f6e0000000000000000000000006064820152fd5b156108e357565b60846040517f08c379a000000000000000000000000000000000000000000000000000000000815260206004820152602160248201527f5072696e636970616c4d617463683a20496e76616c6964207369676e6174757260448201527f65000000000000000000000000000000000000000000000000000000000000006064820152fd5b7f4e487b71000000000000000000000000000000000000000000000000000000005f52603260045260245ffd5b6060518110156109a75760051b60800190565b610967565b80518210156109a75760209160051b010190565b9061020b9160208152610afa82516109f160208401825173ffffffffffffffffffffffffffffffffffffffff169052565b602081015173ffffffffffffffffffffffffffffffffffffffff16604084015260408101516060840152610a426060820151608085019073ffffffffffffffffffffffffffffffffffffffff169052565b608081015160a0840152610a7360a082015160c085019073ffffffffffffffffffffffffffffffffffffffff169052565b60c081015173ffffffffffffffffffffffffffffffffffffffff1660e084015260e0810151610abd610100918286019073ffffffffffffffffffffffffffffffffffffffff169052565b810151610ad5610120918286019063ffffffff169052565b81015190610aee610140928386019063ffffffff169052565b01511515610160830152565b6020820151906040610b1b6101a093846101808501526101c08401906101b7565b930151917fffffffffffffffffffffffffffffffffffffffffffffffffffffffffffffffe0828503019101526101b7565b6040513d5f823e3d90fd5b90929192610b6481610438565b91610b726040519384610155565b8294828452828201116100e5576020610418930190610196565b9080601f830112156100e557815161020b92602001610b57565b6040929181810384136100e557815167ffffffffffffffff908181116100e55783019482601f870112156100e557855195602096610be3816103d7565b92610bf081519485610155565b818452888085019260051b840101928684116100e557898101925b848410610c2c575050505050948301519081116100e55761020b9201610b8c565b83518781116100e557820190606091827fffffffffffffffffffffffffffffffffffffffffffffffffffffffffffffffe0828c0301126100e557845192610c7284610120565b8d820151610c7f816103ef565b8452818601518e850152810151908982116100e557019089603f830112156100e5578c92610cb58b848887809701519101610b57565b86820152815201930192610c0b565b73ffffffffffffffffffffffffffffffffffffffff7f00000000000000000000000000000000000000000000000000000000000000001691610d07833314610851565b610d3c610d37600195610d2f60015473ffffffffffffffffffffffffffffffffffffffff1690565b908486610ec8565b6108dc565b5f845b610e3e575b5091839291610d6083602080610d679896518301019101610ba6565b95906111eb565b5f925b610da9575b50505050610da47fe4d5f5269fec7aac16db53d2f866575ac8116636929342db32f9b777d80403d191604051918291826101fa565b0390a1565b8051831015610e3957610dbc83826109ac565b5192823b156100e5575f610dfd94604051809681927fb1e53821000000000000000000000000000000000000000000000000000000008352600483016109c0565b038183875af1908115610e345785948592610e1b575b500192610d6a565b80610e28610e2e92610141565b806100e9565b5f610e13565b610b4c565b610d6f565b8251811015610ec357610e5181846109ac565b5190843b156100e5575f610e9292604051809481927f4b388178000000000000000000000000000000000000000000000000000000008352600483016109c0565b038183895af1908115610e345786928392610eb0575b500190610d3f565b80610e28610ebd92610141565b5f610ea8565b610d44565b9391939290926020928386015160409384880151966060809901515f1a601b8110611183575b5f5b865181101561108157808b8961106e610f0b6001958c6109ac565b51928d611062818651610f32815173ffffffffffffffffffffffffffffffffffffffff1690565b9061101c88610f578584015173ffffffffffffffffffffffffffffffffffffffff1690565b92610f7c828201519982015173ffffffffffffffffffffffffffffffffffffffff1690565b608082015160a083015173ffffffffffffffffffffffffffffffffffffffff1660c084015173ffffffffffffffffffffffffffffffffffffffff1690610fd960e086015173ffffffffffffffffffffffffffffffffffffffff1690565b92610fec61010087015163ffffffff1690565b9461100d6101406110056101208a015163ffffffff1690565b980151151590565b97519e8f9a8d8c019c8d61149f565b039461104e7fffffffffffffffffffffffffffffffffffffffffffffffffffffffffffffffe096878101835282610155565b519020960151945194859283019687611448565b03908101835282610155565b51902061107a82610994565b5201610ef0565b5061117e94995061117291939792955061020b98875194856110af868201926110a9846112bf565b906112ea565b03956110e17fffffffffffffffffffffffffffffffffffffffffffffffffffffffffffffffe097888101835282610155565b519020885161112d816111218882019485603c917f19457468657265756d205369676e6564204d6573736167653a0a3332000000008252601c8201520190565b03888101835282610155565b5190209751988994850191926041937fff00000000000000000000000000000000000000000000000000000000000000928452602084015260f81b1660408201520190565b03908101855284610155565b611301565b601b0160ff811115610eee577f4e487b71000000000000000000000000000000000000000000000000000000005f52601160045260245ffd5b3d156111e6573d906111cd82610438565b916111db6040519384610155565b82523d5f602084013e565b606090565b8051905f5b8281106111fc57505050565b73ffffffffffffffffffffffffffffffffffffffff61121b82846109ac565b5151166020905f808361122e86886109ac565b5101516040938461123f888a6109ac565b510151918683519301915af16112536111bc565b50156112635750506001016111f0565b6064925051907f08c379a000000000000000000000000000000000000000000000000000000000825280600483015260248201527f43616c6c20746f2065787465726e616c2066756e6374696f6e206661696c65646044820152fd5b6060516080905f5b8181106112d45750505090565b82518452602093840193909201916001016112c7565b906112fd60209282815194859201610196565b0190565b61130b8383611465565b50600481959295101561141b571593846113f8575b50831561132e575b50505090565b5f9293509082916040516113ab8161137f60208201947f1626ba7e00000000000000000000000000000000000000000000000000000000998a875260248401526040604484015260648301906101b7565b037fffffffffffffffffffffffffffffffffffffffffffffffffffffffffffffffe08101835282610155565b51915afa906113b86111bc565b826113ea575b826113ce575b50505f8080611328565b9091506020818051810103126100e55760200151145f806113c4565b9150602082511015916113be565b73ffffffffffffffffffffffffffffffffffffffff83811691161493505f611320565b7f4e487b71000000000000000000000000000000000000000000000000000000005f52602160045260245ffd5b60209291815261146082518093858085019101610196565b010190565b81519190604183036114955761148e9250602082015190606060408401519301515f1a9061157e565b9192909190565b50505f9160029190565b9995926115729760c19c99936112fd9b969561154698605c8f7fffffffffffffffffffffffffffffffffffffffff000000000000000000000000809a81988280988160609d8e1b1686528c1b1660148501526028840152891b1660488201520152841b16607c8d0152821b1660908b01521b1660a488015260b88701907fffffffff000000000000000000000000000000000000000000000000000000009060e01b169052565b60e01b7fffffffff000000000000000000000000000000000000000000000000000000001660bc850152565b151560f81b60c0830152565b91907f7fffffffffffffffffffffffffffffff5d576e7357a4501ddfe92f46681b20a08411611602579160209360809260ff5f9560405194855216868401526040830152606082015282805260015afa15610e34575f5173ffffffffffffffffffffffffffffffffffffffff8116156115f857905f905f90565b505f906001905f90565b5050505f916003919056fea26469706673582212202e2a48ec1eecdf716d7ce6d6d6bf086f59c96691132a3d1fd211020fa238122364736f6c63430008180033","linkReferences":{}},"methodIdentifiers":{"clearing()":"027cb7c6","handleDeposit(address,address,uint256,bytes)":"f58171df","handleSettlement(((address,address,uint256,address,uint256,address,address,uint160,uint32,uint32,bool),bytes,bytes)[],bytes,bytes)":"9ab3f3cc","manager()":"481c6a75","name()":"06fdde03","setNewManager(address)":"d30f945a"},"id":11}